{
  "contractName": "AddressStorageLogic",
  "abi": [
    {
      "constant": true,
      "inputs": [
        {
          "name": "_address",
          "type": "address"
        }
      ],
      "name": "isAllowedFactProvider",
      "outputs": [
        {
          "name": "",
          "type": "bool"
        }
      ],
      "payable": false,
      "stateMutability": "view",
      "type": "function"
    },
    {
      "constant": false,
      "inputs": [
        {
          "name": "_onlyWhitelist",
          "type": "bool"
        }
      ],
      "name": "setWhitelistOnlyPermission",
      "outputs": [],
      "payable": false,
      "stateMutability": "nonpayable",
      "type": "function"
    },
    {
      "constant": false,
      "inputs": [],
      "name": "claimOwnership",
      "outputs": [],
      "payable": false,
      "stateMutability": "nonpayable",
      "type": "function"
    },
    {
      "constant": true,
      "inputs": [],
      "name": "isWhitelistOnlyPermissionSet",
      "outputs": [
        {
          "name": "",
          "type": "bool"
        }
      ],
      "payable": false,
      "stateMutability": "view",
      "type": "function"
    },
    {
      "constant": false,
      "inputs": [
        {
          "name": "_address",
          "type": "address"
        }
      ],
      "name": "removeFactProviderFromWhitelist",
      "outputs": [],
      "payable": false,
      "stateMutability": "nonpayable",
      "type": "function"
    },
    {
      "constant": true,
      "inputs": [
        {
          "name": "",
          "type": "uint256"
        }
      ],
      "name": "privateDataExchanges",
      "outputs": [
        {
          "name": "dataRequester",
          "type": "address"
        },
        {
          "name": "dataRequesterValue",
          "type": "uint256"
        },
        {
          "name": "passportOwner",
          "type": "address"
        },
        {
          "name": "passportOwnerValue",
          "type": "uint256"
        },
        {
          "name": "factProvider",
          "type": "address"
        },
        {
          "name": "key",
          "type": "bytes32"
        },
        {
          "name": "dataIPFSHash",
          "type": "string"
        },
        {
          "name": "dataKeyHash",
          "type": "bytes32"
        },
        {
          "name": "encryptedExchangeKey",
          "type": "bytes"
        },
        {
          "name": "exchangeKeyHash",
          "type": "bytes32"
        },
        {
          "name": "encryptedDataKey",
          "type": "bytes32"
        },
        {
          "name": "state",
          "type": "uint8"
        },
        {
          "name": "stateExpired",
          "type": "uint256"
        }
      ],
      "payable": false,
      "stateMutability": "view",
      "type": "function"
    },
    {
      "constant": false,
      "inputs": [],
      "name": "renounceOwnership",
      "outputs": [],
      "payable": false,
      "stateMutability": "nonpayable",
      "type": "function"
    },
    {
      "constant": true,
      "inputs": [
        {
          "name": "_address",
          "type": "address"
        }
      ],
      "name": "isFactProviderInWhitelist",
      "outputs": [
        {
          "name": "",
          "type": "bool"
        }
      ],
      "payable": false,
      "stateMutability": "view",
      "type": "function"
    },
    {
      "constant": true,
      "inputs": [],
      "name": "owner",
      "outputs": [
        {
          "name": "",
          "type": "address"
        }
      ],
      "payable": false,
      "stateMutability": "view",
      "type": "function"
    },
    {
      "constant": false,
      "inputs": [
        {
          "name": "_address",
          "type": "address"
        }
      ],
      "name": "addFactProviderToWhitelist",
      "outputs": [],
      "payable": false,
      "stateMutability": "nonpayable",
      "type": "function"
    },
    {
      "constant": true,
      "inputs": [],
      "name": "openPrivateDataExchangesCount",
      "outputs": [
        {
          "name": "",
          "type": "uint256"
        }
      ],
      "payable": false,
      "stateMutability": "view",
      "type": "function"
    },
    {
      "constant": true,
      "inputs": [],
      "name": "pendingOwner",
      "outputs": [
        {
          "name": "",
          "type": "address"
        }
      ],
      "payable": false,
      "stateMutability": "view",
      "type": "function"
    },
    {
      "constant": false,
      "inputs": [
        {
          "name": "newOwner",
          "type": "address"
        }
      ],
      "name": "transferOwnership",
      "outputs": [],
      "payable": false,
      "stateMutability": "nonpayable",
      "type": "function"
    },
    {
      "anonymous": false,
      "inputs": [
        {
          "indexed": true,
          "name": "factProvider",
          "type": "address"
        },
        {
          "indexed": true,
          "name": "key",
          "type": "bytes32"
        }
      ],
      "name": "AddressUpdated",
      "type": "event"
    },
    {
      "anonymous": false,
      "inputs": [
        {
          "indexed": true,
          "name": "factProvider",
          "type": "address"
        },
        {
          "indexed": true,
          "name": "key",
          "type": "bytes32"
        }
      ],
      "name": "AddressDeleted",
      "type": "event"
    },
    {
      "anonymous": false,
      "inputs": [
        {
          "indexed": true,
          "name": "onlyWhitelist",
          "type": "bool"
        }
      ],
      "name": "WhitelistOnlyPermissionSet",
      "type": "event"
    },
    {
      "anonymous": false,
      "inputs": [
        {
          "indexed": true,
          "name": "factProvider",
          "type": "address"
        }
      ],
      "name": "WhitelistFactProviderAdded",
      "type": "event"
    },
    {
      "anonymous": false,
      "inputs": [
        {
          "indexed": true,
          "name": "factProvider",
          "type": "address"
        }
      ],
      "name": "WhitelistFactProviderRemoved",
      "type": "event"
    },
    {
      "anonymous": false,
      "inputs": [
        {
          "indexed": true,
          "name": "previousOwner",
          "type": "address"
        }
      ],
      "name": "OwnershipRenounced",
      "type": "event"
    },
    {
      "anonymous": false,
      "inputs": [
        {
          "indexed": true,
          "name": "previousOwner",
          "type": "address"
        },
        {
          "indexed": true,
          "name": "newOwner",
          "type": "address"
        }
      ],
      "name": "OwnershipTransferred",
      "type": "event"
    },
    {
      "constant": false,
      "inputs": [
        {
          "name": "_key",
          "type": "bytes32"
        },
        {
          "name": "_value",
          "type": "address"
        }
      ],
      "name": "setAddress",
      "outputs": [],
      "payable": false,
      "stateMutability": "nonpayable",
      "type": "function"
    },
    {
      "constant": false,
      "inputs": [
        {
          "name": "_key",
          "type": "bytes32"
        }
      ],
      "name": "deleteAddress",
      "outputs": [],
      "payable": false,
      "stateMutability": "nonpayable",
      "type": "function"
    },
    {
      "constant": true,
      "inputs": [
        {
          "name": "_factProvider",
          "type": "address"
        },
        {
          "name": "_key",
          "type": "bytes32"
        }
      ],
      "name": "getAddress",
      "outputs": [
        {
          "name": "success",
          "type": "bool"
        },
        {
          "name": "value",
          "type": "address"
        }
      ],
      "payable": false,
      "stateMutability": "view",
      "type": "function"
    }
  ],
  "bytecode": "0x608060408190527f6f72672e6d6f6e657468612e70726f78792e6f776e6572000000000000000000905261003b3364010000000061009a810204565b604080517f6f72672e6d6f6e657468612e70726f78792e70656e64696e674f776e657200008152905190819003601e0190207fcfd0c6ea5352192d7d4c5d4e7a73c5da12c871730cb60ff57879cbe7b403bb521461009557fe5b6100be565b7f3ca57e4b51fc2e18497b219410298879868edada7e6fe5132c8feceb0a080d2255565b610cca806100cd6000396000f3006080604052600436106100e55763ffffffff7c01000000000000000000000000000000000000000000000000000000006000350416630e14a37681146100ea57806320888158146101045780632b42a89a146101395780634e71e0c81461015357806361a2d076146101685780636d4e78021461017d5780636f618f9a1461019e578063715018a6146103455780637ac4ed641461035a5780638ae44a08146103a15780638da5cb5b146103c2578063ac0aeb1a146103f3578063ca446dd914610414578063caa95f1b14610438578063e30c39781461045f578063f2fde38b14610474575b600080fd5b3480156100f657600080fd5b50610102600435610495565b005b34801561011057600080fd5b50610125600160a060020a03600435166104a1565b604080519115158252519081900360200190f35b34801561014557600080fd5b5061010260043515156104f7565b34801561015f57600080fd5b50610102610550565b34801561017457600080fd5b5061012561064a565b34801561018957600080fd5b50610102600160a060020a0360043516610653565b3480156101aa57600080fd5b506101b66004356106b8565b604051808e600160a060020a0316600160a060020a031681526020018d81526020018c600160a060020a0316600160a060020a031681526020018b81526020018a600160a060020a0316600160a060020a031681526020018960001916600019168152602001806020018860001916600019168152602001806020018760001916600019168152602001866000191660001916815260200185600281111561025a57fe5b60ff16815260200184815260200183810383528a818151815260200191508051906020019080838360005b8381101561029d578181015183820152602001610285565b50505050905090810190601f1680156102ca5780820380516001836020036101000a031916815260200191505b5083810382528851815288516020918201918a019080838360005b838110156102fd5781810151838201526020016102e5565b50505050905090810190601f16801561032a5780820380516001836020036101000a031916815260200191505b509f5050505050505050505050505050505060405180910390f35b34801561035157600080fd5b50610102610858565b34801561036657600080fd5b5061037e600160a060020a036004351660243561092f565b604080519215158352600160a060020a0390911660208301528051918290030190f35b3480156103ad57600080fd5b50610125600160a060020a0360043516610947565b3480156103ce57600080fd5b506103d7610965565b60408051600160a060020a039092168252519081900360200190f35b3480156103ff57600080fd5b50610102600160a060020a0360043516610974565b34801561042057600080fd5b50610102600435600160a060020a03602435166109dc565b34801561044457600080fd5b5061044d6109ea565b60408051918252519081900360200190f35b34801561046b57600080fd5b506103d76109f0565b34801561048057600080fd5b50610102600160a060020a03600435166109fa565b61049e81610a93565b50565b60075460009060ff1615806104ce5750600160a060020a03821660009081526008602052604090205460ff165b806104f157506104dc610b06565b600160a060020a031682600160a060020a0316145b92915050565b6104ff610b06565b600160a060020a0316331461051357600080fd5b6007805460ff19168215159081179091556040517f6e1eb3fa845047cf9d5fd1deb1b7770b4e26163dd4d88cefb14fe7964a70059590600090a250565b610558610b2b565b600160a060020a0316331461056c57600080fd5b610574610b50565b156105e057604080517f08c379a000000000000000000000000000000000000000000000000000000000815260206004820152601d60248201527f636f6e74726163742073686f756c64206e6f7420626520706175736564000000604482015290519081900360640190fd5b6105e8610b2b565b600160a060020a03166105f9610b06565b600160a060020a03167f8be0079c531659141344cd1fd0a4f28419497f9722a3daafe3b4186f6b6457e060405160405180910390a361063e610639610b2b565b610b75565b6106486000610b99565b565b60075460ff1690565b61065b610b06565b600160a060020a0316331461066f57600080fd5b600160a060020a038116600081815260086020526040808220805460ff19169055517f5bf47f016603dfff957e6086bd9a350212686e8f1d9208b3db47c5a3107c78789190a250565b600c8054829081106106c657fe5b6000918252602091829020600d90910201805460018083015460028085015460038601546004870154600588015460068901805460408051601f6000199b841615610100029b909b01909216979097049889018c90048c0281018c01909652878652600160a060020a039889169b509599938816989297919091169590949193928301828280156107985780601f1061076d57610100808354040283529160200191610798565b820191906000526020600020905b81548152906001019060200180831161077b57829003601f168201915b50505050600783015460088401805460408051602060026001851615610100026000190190941693909304601f8101849004840282018401909252818152959693959394509083018282801561082f5780601f106108045761010080835404028352916020019161082f565b820191906000526020600020905b81548152906001019060200180831161081257829003601f168201915b5050506009840154600a850154600b860154600c909601549495919490935060ff90911691508d565b610860610b06565b600160a060020a0316331461087457600080fd5b61087c610b50565b156108e857604080517f08c379a000000000000000000000000000000000000000000000000000000000815260206004820152601d60248201527f636f6e74726163742073686f756c64206e6f7420626520706175736564000000604482015290519081900360640190fd5b6108f0610b06565b600160a060020a03167ff8df31144d9c2f0f6b59d69b8b98abd5459d07f2742c4df920b25aae33c6482060405160405180910390a26106486000610b75565b60008061093c8484610bbd565b915091509250929050565b600160a060020a031660009081526008602052604090205460ff1690565b600061096f610b06565b905090565b61097c610b06565b600160a060020a0316331461099057600080fd5b600160a060020a038116600081815260086020526040808220805460ff19166001179055517fff8ac5f0e9cdc8f7ffbbc29ab1301ee649cf01cf7a6a9265a2d90587612c41759190a250565b6109e68282610bf0565b5050565b600b5481565b600061096f610b2b565b610a02610b06565b600160a060020a03163314610a1657600080fd5b610a1e610b50565b15610a8a57604080517f08c379a000000000000000000000000000000000000000000000000000000000815260206004820152601d60248201527f636f6e74726163742073686f756c64206e6f7420626520706175736564000000604482015290519081900360640190fd5b61049e81610b99565b610a9c336104a1565b1515610aa757600080fd5b33600081815260208181526040808320858452909152808220805474ffffffffffffffffffffffffffffffffffffffffff19169055518392917fed9474c4702ee9da4d0d2085840fafed5912b8e13daf1d6ea341ebe98803aec291a350565b7f3ca57e4b51fc2e18497b219410298879868edada7e6fe5132c8feceb0a080d225490565b7fcfd0c6ea5352192d7d4c5d4e7a73c5da12c871730cb60ff57879cbe7b403bb525490565b7f9e7945c55c116aa3404b99fe56db7af9613d3b899554a437c2616a4749a94d8a5490565b7f3ca57e4b51fc2e18497b219410298879868edada7e6fe5132c8feceb0a080d2255565b7fcfd0c6ea5352192d7d4c5d4e7a73c5da12c871730cb60ff57879cbe7b403bb5255565b600160a060020a03918216600090815260208181526040808320938352929052205460ff81169261010090910490911690565b610bf9336104a1565b1515610c0457600080fd5b60408051808201825260018152600160a060020a03838116602080840191825233600081815280835286812089825290925285822094518554935160ff199094169015151774ffffffffffffffffffffffffffffffffffffffff001916610100939094169290920292909217909255915184927f8e7e6ab6c4613205e833e1faf5415d78dd10130a8828f729c08036e2a7a6277091a350505600a165627a7a72305820695e7f28559d04b3851957100287e337c1452d6f54cfbe155052fc72e6346d1d0029",
  "source": "pragma solidity ^0.4.24;\n\nimport \"./Storage.sol\";\n\ncontract AddressStorageLogic is Storage {\n    event AddressUpdated(address indexed factProvider, bytes32 indexed key);\n    event AddressDeleted(address indexed factProvider, bytes32 indexed key);\n\n    /// @param _key The key for the record\n    /// @param _value The value for the record\n    function setAddress(bytes32 _key, address _value) external {\n        _setAddress(_key, _value);\n    }\n\n    /// @param _key The key for the record\n    function deleteAddress(bytes32 _key) external {\n        _deleteAddress(_key);\n    }\n\n    /// @param _factProvider The fact provider\n    /// @param _key The key for the record\n    function getAddress(address _factProvider, bytes32 _key) external view returns (bool success, address value) {\n        return _getAddress(_factProvider, _key);\n    }\n\n    function _setAddress(bytes32 _key, address _value) allowedFactProvider internal {\n        addressStorage[msg.sender][_key] = AddressValue({\n            initialized : true,\n            value : _value\n            });\n        emit AddressUpdated(msg.sender, _key);\n    }\n\n    function _deleteAddress(bytes32 _key) allowedFactProvider internal {\n        delete addressStorage[msg.sender][_key];\n        emit AddressDeleted(msg.sender, _key);\n    }\n\n    function _getAddress(address _factProvider, bytes32 _key) internal view returns (bool success, address value) {\n        AddressValue storage initValue = addressStorage[_factProvider][_key];\n        return (initValue.initialized, initValue.value);\n    }\n}",
  "sourcePath": "C:\\src\\monetha\\reputation-js-sdk-example\\deployer\\tmp\\contracts\\storage\\AddressStorageLogic.sol",
  "compiler": {
    "name": "solc",
    "version": "0.4.24+commit.e67f0147.Emscripten.clang"
  },
  "schemaVersion": "2.0.1",
  "updatedAt": "2019-10-29T13:00:35.388Z"
}