{
  "contractName": "BoolStorageLogic",
  "abi": [
    {
      "constant": true,
      "inputs": [
        {
          "name": "_address",
          "type": "address"
        }
      ],
      "name": "isAllowedFactProvider",
      "outputs": [
        {
          "name": "",
          "type": "bool"
        }
      ],
      "payable": false,
      "stateMutability": "view",
      "type": "function"
    },
    {
      "constant": false,
      "inputs": [
        {
          "name": "_onlyWhitelist",
          "type": "bool"
        }
      ],
      "name": "setWhitelistOnlyPermission",
      "outputs": [],
      "payable": false,
      "stateMutability": "nonpayable",
      "type": "function"
    },
    {
      "constant": false,
      "inputs": [],
      "name": "claimOwnership",
      "outputs": [],
      "payable": false,
      "stateMutability": "nonpayable",
      "type": "function"
    },
    {
      "constant": true,
      "inputs": [],
      "name": "isWhitelistOnlyPermissionSet",
      "outputs": [
        {
          "name": "",
          "type": "bool"
        }
      ],
      "payable": false,
      "stateMutability": "view",
      "type": "function"
    },
    {
      "constant": false,
      "inputs": [
        {
          "name": "_address",
          "type": "address"
        }
      ],
      "name": "removeFactProviderFromWhitelist",
      "outputs": [],
      "payable": false,
      "stateMutability": "nonpayable",
      "type": "function"
    },
    {
      "constant": true,
      "inputs": [
        {
          "name": "",
          "type": "uint256"
        }
      ],
      "name": "privateDataExchanges",
      "outputs": [
        {
          "name": "dataRequester",
          "type": "address"
        },
        {
          "name": "dataRequesterValue",
          "type": "uint256"
        },
        {
          "name": "passportOwner",
          "type": "address"
        },
        {
          "name": "passportOwnerValue",
          "type": "uint256"
        },
        {
          "name": "factProvider",
          "type": "address"
        },
        {
          "name": "key",
          "type": "bytes32"
        },
        {
          "name": "dataIPFSHash",
          "type": "string"
        },
        {
          "name": "dataKeyHash",
          "type": "bytes32"
        },
        {
          "name": "encryptedExchangeKey",
          "type": "bytes"
        },
        {
          "name": "exchangeKeyHash",
          "type": "bytes32"
        },
        {
          "name": "encryptedDataKey",
          "type": "bytes32"
        },
        {
          "name": "state",
          "type": "uint8"
        },
        {
          "name": "stateExpired",
          "type": "uint256"
        }
      ],
      "payable": false,
      "stateMutability": "view",
      "type": "function"
    },
    {
      "constant": false,
      "inputs": [],
      "name": "renounceOwnership",
      "outputs": [],
      "payable": false,
      "stateMutability": "nonpayable",
      "type": "function"
    },
    {
      "constant": true,
      "inputs": [
        {
          "name": "_address",
          "type": "address"
        }
      ],
      "name": "isFactProviderInWhitelist",
      "outputs": [
        {
          "name": "",
          "type": "bool"
        }
      ],
      "payable": false,
      "stateMutability": "view",
      "type": "function"
    },
    {
      "constant": true,
      "inputs": [],
      "name": "owner",
      "outputs": [
        {
          "name": "",
          "type": "address"
        }
      ],
      "payable": false,
      "stateMutability": "view",
      "type": "function"
    },
    {
      "constant": false,
      "inputs": [
        {
          "name": "_address",
          "type": "address"
        }
      ],
      "name": "addFactProviderToWhitelist",
      "outputs": [],
      "payable": false,
      "stateMutability": "nonpayable",
      "type": "function"
    },
    {
      "constant": true,
      "inputs": [],
      "name": "openPrivateDataExchangesCount",
      "outputs": [
        {
          "name": "",
          "type": "uint256"
        }
      ],
      "payable": false,
      "stateMutability": "view",
      "type": "function"
    },
    {
      "constant": true,
      "inputs": [],
      "name": "pendingOwner",
      "outputs": [
        {
          "name": "",
          "type": "address"
        }
      ],
      "payable": false,
      "stateMutability": "view",
      "type": "function"
    },
    {
      "constant": false,
      "inputs": [
        {
          "name": "newOwner",
          "type": "address"
        }
      ],
      "name": "transferOwnership",
      "outputs": [],
      "payable": false,
      "stateMutability": "nonpayable",
      "type": "function"
    },
    {
      "anonymous": false,
      "inputs": [
        {
          "indexed": true,
          "name": "factProvider",
          "type": "address"
        },
        {
          "indexed": true,
          "name": "key",
          "type": "bytes32"
        }
      ],
      "name": "BoolUpdated",
      "type": "event"
    },
    {
      "anonymous": false,
      "inputs": [
        {
          "indexed": true,
          "name": "factProvider",
          "type": "address"
        },
        {
          "indexed": true,
          "name": "key",
          "type": "bytes32"
        }
      ],
      "name": "BoolDeleted",
      "type": "event"
    },
    {
      "anonymous": false,
      "inputs": [
        {
          "indexed": true,
          "name": "onlyWhitelist",
          "type": "bool"
        }
      ],
      "name": "WhitelistOnlyPermissionSet",
      "type": "event"
    },
    {
      "anonymous": false,
      "inputs": [
        {
          "indexed": true,
          "name": "factProvider",
          "type": "address"
        }
      ],
      "name": "WhitelistFactProviderAdded",
      "type": "event"
    },
    {
      "anonymous": false,
      "inputs": [
        {
          "indexed": true,
          "name": "factProvider",
          "type": "address"
        }
      ],
      "name": "WhitelistFactProviderRemoved",
      "type": "event"
    },
    {
      "anonymous": false,
      "inputs": [
        {
          "indexed": true,
          "name": "previousOwner",
          "type": "address"
        }
      ],
      "name": "OwnershipRenounced",
      "type": "event"
    },
    {
      "anonymous": false,
      "inputs": [
        {
          "indexed": true,
          "name": "previousOwner",
          "type": "address"
        },
        {
          "indexed": true,
          "name": "newOwner",
          "type": "address"
        }
      ],
      "name": "OwnershipTransferred",
      "type": "event"
    },
    {
      "constant": false,
      "inputs": [
        {
          "name": "_key",
          "type": "bytes32"
        },
        {
          "name": "_value",
          "type": "bool"
        }
      ],
      "name": "setBool",
      "outputs": [],
      "payable": false,
      "stateMutability": "nonpayable",
      "type": "function"
    },
    {
      "constant": false,
      "inputs": [
        {
          "name": "_key",
          "type": "bytes32"
        }
      ],
      "name": "deleteBool",
      "outputs": [],
      "payable": false,
      "stateMutability": "nonpayable",
      "type": "function"
    },
    {
      "constant": true,
      "inputs": [
        {
          "name": "_factProvider",
          "type": "address"
        },
        {
          "name": "_key",
          "type": "bytes32"
        }
      ],
      "name": "getBool",
      "outputs": [
        {
          "name": "success",
          "type": "bool"
        },
        {
          "name": "value",
          "type": "bool"
        }
      ],
      "payable": false,
      "stateMutability": "view",
      "type": "function"
    }
  ],
  "bytecode": "0x608060408190527f6f72672e6d6f6e657468612e70726f78792e6f776e6572000000000000000000905261003b3364010000000061009a810204565b604080517f6f72672e6d6f6e657468612e70726f78792e70656e64696e674f776e657200008152905190819003601e0190207fcfd0c6ea5352192d7d4c5d4e7a73c5da12c871730cb60ff57879cbe7b403bb521461009557fe5b6100be565b7f3ca57e4b51fc2e18497b219410298879868edada7e6fe5132c8feceb0a080d2255565b610c91806100cd6000396000f3006080604052600436106100e55763ffffffff7c01000000000000000000000000000000000000000000000000000000006000350416632088815881146100ea5780632b42a89a1461011f5780632c62ff2d1461013b5780634e71e0c81461015357806361a2d076146101685780636d4e78021461017d5780636f618f9a1461019e578063715018a6146103455780638ae44a081461035a5780638da5cb5b1461037b5780639d74b37d146103ac578063abfdcced146103eb578063ac0aeb1a14610408578063caa95f1b14610429578063e30c397814610450578063f2fde38b14610465575b600080fd5b3480156100f657600080fd5b5061010b600160a060020a0360043516610486565b604080519115158252519081900360200190f35b34801561012b57600080fd5b5061013960043515156104dc565b005b34801561014757600080fd5b50610139600435610535565b34801561015f57600080fd5b50610139610541565b34801561017457600080fd5b5061010b61063b565b34801561018957600080fd5b50610139600160a060020a0360043516610644565b3480156101aa57600080fd5b506101b66004356106a9565b604051808e600160a060020a0316600160a060020a031681526020018d81526020018c600160a060020a0316600160a060020a031681526020018b81526020018a600160a060020a0316600160a060020a031681526020018960001916600019168152602001806020018860001916600019168152602001806020018760001916600019168152602001866000191660001916815260200185600281111561025a57fe5b60ff16815260200184815260200183810383528a818151815260200191508051906020019080838360005b8381101561029d578181015183820152602001610285565b50505050905090810190601f1680156102ca5780820380516001836020036101000a031916815260200191505b5083810382528851815288516020918201918a019080838360005b838110156102fd5781810151838201526020016102e5565b50505050905090810190601f16801561032a5780820380516001836020036101000a031916815260200191505b509f5050505050505050505050505050505060405180910390f35b34801561035157600080fd5b50610139610849565b34801561036657600080fd5b5061010b600160a060020a0360043516610920565b34801561038757600080fd5b5061039061093e565b60408051600160a060020a039092168252519081900360200190f35b3480156103b857600080fd5b506103d0600160a060020a036004351660243561094d565b60408051921515835290151560208301528051918290030190f35b3480156103f757600080fd5b506101396004356024351515610965565b34801561041457600080fd5b50610139600160a060020a0360043516610973565b34801561043557600080fd5b5061043e6109db565b60408051918252519081900360200190f35b34801561045c57600080fd5b506103906109e1565b34801561047157600080fd5b50610139600160a060020a03600435166109eb565b60075460009060ff1615806104b35750600160a060020a03821660009081526008602052604090205460ff165b806104d657506104c1610a84565b600160a060020a031682600160a060020a0316145b92915050565b6104e4610a84565b600160a060020a031633146104f857600080fd5b6007805460ff19168215159081179091556040517f6e1eb3fa845047cf9d5fd1deb1b7770b4e26163dd4d88cefb14fe7964a70059590600090a250565b61053e81610aa9565b50565b610549610b0b565b600160a060020a0316331461055d57600080fd5b610565610b30565b156105d157604080517f08c379a000000000000000000000000000000000000000000000000000000000815260206004820152601d60248201527f636f6e74726163742073686f756c64206e6f7420626520706175736564000000604482015290519081900360640190fd5b6105d9610b0b565b600160a060020a03166105ea610a84565b600160a060020a03167f8be0079c531659141344cd1fd0a4f28419497f9722a3daafe3b4186f6b6457e060405160405180910390a361062f61062a610b0b565b610b55565b6106396000610b79565b565b60075460ff1690565b61064c610a84565b600160a060020a0316331461066057600080fd5b600160a060020a038116600081815260086020526040808220805460ff19169055517f5bf47f016603dfff957e6086bd9a350212686e8f1d9208b3db47c5a3107c78789190a250565b600c8054829081106106b757fe5b6000918252602091829020600d90910201805460018083015460028085015460038601546004870154600588015460068901805460408051601f6000199b841615610100029b909b01909216979097049889018c90048c0281018c01909652878652600160a060020a039889169b509599938816989297919091169590949193928301828280156107895780601f1061075e57610100808354040283529160200191610789565b820191906000526020600020905b81548152906001019060200180831161076c57829003601f168201915b50505050600783015460088401805460408051602060026001851615610100026000190190941693909304601f810184900484028201840190925281815295969395939450908301828280156108205780601f106107f557610100808354040283529160200191610820565b820191906000526020600020905b81548152906001019060200180831161080357829003601f168201915b5050506009840154600a850154600b860154600c909601549495919490935060ff90911691508d565b610851610a84565b600160a060020a0316331461086557600080fd5b61086d610b30565b156108d957604080517f08c379a000000000000000000000000000000000000000000000000000000000815260206004820152601d60248201527f636f6e74726163742073686f756c64206e6f7420626520706175736564000000604482015290519081900360640190fd5b6108e1610a84565b600160a060020a03167ff8df31144d9c2f0f6b59d69b8b98abd5459d07f2742c4df920b25aae33c6482060405160405180910390a26106396000610b55565b600160a060020a031660009081526008602052604090205460ff1690565b6000610948610a84565b905090565b60008061095a8484610b9d565b915091509250929050565b61096f8282610bd2565b5050565b61097b610a84565b600160a060020a0316331461098f57600080fd5b600160a060020a038116600081815260086020526040808220805460ff19166001179055517fff8ac5f0e9cdc8f7ffbbc29ab1301ee649cf01cf7a6a9265a2d90587612c41759190a250565b600b5481565b6000610948610b0b565b6109f3610a84565b600160a060020a03163314610a0757600080fd5b610a0f610b30565b15610a7b57604080517f08c379a000000000000000000000000000000000000000000000000000000000815260206004820152601d60248201527f636f6e74726163742073686f756c64206e6f7420626520706175736564000000604482015290519081900360640190fd5b61053e81610b79565b7f3ca57e4b51fc2e18497b219410298879868edada7e6fe5132c8feceb0a080d225490565b610ab233610486565b1515610abd57600080fd5b336000818152600360209081526040808320858452909152808220805461ffff19169055518392917f191bd7fc1f22ce6b74b7d7e42126f0ed225b109728607c99971de9e78b0db6eb91a350565b7fcfd0c6ea5352192d7d4c5d4e7a73c5da12c871730cb60ff57879cbe7b403bb525490565b7f9e7945c55c116aa3404b99fe56db7af9613d3b899554a437c2616a4749a94d8a5490565b7f3ca57e4b51fc2e18497b219410298879868edada7e6fe5132c8feceb0a080d2255565b7fcfd0c6ea5352192d7d4c5d4e7a73c5da12c871730cb60ff57879cbe7b403bb5255565b600160a060020a03919091166000908152600360209081526040808320938352929052205460ff808216926101009092041690565b610bdb33610486565b1515610be657600080fd5b6040805180820182526001815282151560208083019182523360008181526003835285812088825290925284822093518454935115156101000261ff001991151560ff1990951694909417169290921790925591518492917f68cc3496efaac4c1f2c0cd52da916138f6c5fc541992f05d97423a89b6914ae591a350505600a165627a7a723058205c1b8a2a068b40f8021fd2e406f49feaffcde4cf41a893e699296fd9411f767c0029",
  "source": "pragma solidity ^0.4.24;\n\nimport \"./Storage.sol\";\n\ncontract BoolStorageLogic is Storage {\n    event BoolUpdated(address indexed factProvider, bytes32 indexed key);\n    event BoolDeleted(address indexed factProvider, bytes32 indexed key);\n\n    /// @param _key The key for the record\n    /// @param _value The value for the record\n    function setBool(bytes32 _key, bool _value) external {\n        _setBool(_key, _value);\n    }\n\n    /// @param _key The key for the record\n    function deleteBool(bytes32 _key) external {\n        _deleteBool(_key);\n    }\n\n    /// @param _factProvider The fact provider\n    /// @param _key The key for the record\n    function getBool(address _factProvider, bytes32 _key) external view returns (bool success, bool value) {\n        return _getBool(_factProvider, _key);\n    }\n\n    function _setBool(bytes32 _key, bool _value) allowedFactProvider internal {\n        boolStorage[msg.sender][_key] = BoolValue({\n            initialized : true,\n            value : _value\n            });\n        emit BoolUpdated(msg.sender, _key);\n    }\n\n    function _deleteBool(bytes32 _key) allowedFactProvider internal {\n        delete boolStorage[msg.sender][_key];\n        emit BoolDeleted(msg.sender, _key);\n    }\n\n    function _getBool(address _factProvider, bytes32 _key) internal view returns (bool success, bool value) {\n        BoolValue storage initValue = boolStorage[_factProvider][_key];\n        return (initValue.initialized, initValue.value);\n    }\n}",
  "sourcePath": "C:\\src\\monetha\\reputation-js-sdk-example\\deployer\\tmp\\contracts\\storage\\BoolStorageLogic.sol",
  "compiler": {
    "name": "solc",
    "version": "0.4.24+commit.e67f0147.Emscripten.clang"
  },
  "schemaVersion": "2.0.1",
  "updatedAt": "2019-10-29T13:00:35.389Z"
}