{
  "contractName": "ClaimableProxy",
  "abi": [
    {
      "constant": false,
      "inputs": [],
      "name": "renounceOwnership",
      "outputs": [],
      "payable": false,
      "stateMutability": "nonpayable",
      "type": "function"
    },
    {
      "constant": true,
      "inputs": [],
      "name": "owner",
      "outputs": [
        {
          "name": "",
          "type": "address"
        }
      ],
      "payable": false,
      "stateMutability": "view",
      "type": "function"
    },
    {
      "inputs": [],
      "payable": false,
      "stateMutability": "nonpayable",
      "type": "constructor"
    },
    {
      "anonymous": false,
      "inputs": [
        {
          "indexed": true,
          "name": "previousOwner",
          "type": "address"
        }
      ],
      "name": "OwnershipRenounced",
      "type": "event"
    },
    {
      "anonymous": false,
      "inputs": [
        {
          "indexed": true,
          "name": "previousOwner",
          "type": "address"
        },
        {
          "indexed": true,
          "name": "newOwner",
          "type": "address"
        }
      ],
      "name": "OwnershipTransferred",
      "type": "event"
    },
    {
      "constant": true,
      "inputs": [],
      "name": "pendingOwner",
      "outputs": [
        {
          "name": "",
          "type": "address"
        }
      ],
      "payable": false,
      "stateMutability": "view",
      "type": "function"
    },
    {
      "constant": false,
      "inputs": [
        {
          "name": "newOwner",
          "type": "address"
        }
      ],
      "name": "transferOwnership",
      "outputs": [],
      "payable": false,
      "stateMutability": "nonpayable",
      "type": "function"
    },
    {
      "constant": false,
      "inputs": [],
      "name": "claimOwnership",
      "outputs": [],
      "payable": false,
      "stateMutability": "nonpayable",
      "type": "function"
    }
  ],
  "bytecode": "0x608060405234801561001057600080fd5b50604080517f6f72672e6d6f6e657468612e70726f78792e7061757365640000000000000000815290519081900360180190207f9e7945c55c116aa3404b99fe56db7af9613d3b899554a437c2616a4749a94d8a1461006b57fe5b604080517f6f72672e6d6f6e657468612e70726f78792e6f776e6572000000000000000000815290519081900360170190206000805160206105b2833981519152146100b357fe5b6100c533640100000000610124810204565b604080517f6f72672e6d6f6e657468612e70726f78792e70656e64696e674f776e657200008152905190819003601e0190207fcfd0c6ea5352192d7d4c5d4e7a73c5da12c871730cb60ff57879cbe7b403bb521461011f57fe5b610136565b6000805160206105b283398151915255565b61046d806101456000396000f30060806040526004361061006c5763ffffffff7c01000000000000000000000000000000000000000000000000000000006000350416634e71e0c88114610071578063715018a6146100885780638da5cb5b1461009d578063e30c3978146100ce578063f2fde38b146100e3575b600080fd5b34801561007d57600080fd5b50610086610104565b005b34801561009457600080fd5b506100866101fe565b3480156100a957600080fd5b506100b26102d5565b60408051600160a060020a039092168252519081900360200190f35b3480156100da57600080fd5b506100b26102e4565b3480156100ef57600080fd5b50610086600160a060020a03600435166102ee565b61010c61038a565b600160a060020a0316331461012057600080fd5b6101286103af565b1561019457604080517f08c379a000000000000000000000000000000000000000000000000000000000815260206004820152601d60248201527f636f6e74726163742073686f756c64206e6f7420626520706175736564000000604482015290519081900360640190fd5b61019c61038a565b600160a060020a03166101ad6103d4565b600160a060020a03167f8be0079c531659141344cd1fd0a4f28419497f9722a3daafe3b4186f6b6457e060405160405180910390a36101f26101ed61038a565b6103f9565b6101fc600061041d565b565b6102066103d4565b600160a060020a0316331461021a57600080fd5b6102226103af565b1561028e57604080517f08c379a000000000000000000000000000000000000000000000000000000000815260206004820152601d60248201527f636f6e74726163742073686f756c64206e6f7420626520706175736564000000604482015290519081900360640190fd5b6102966103d4565b600160a060020a03167ff8df31144d9c2f0f6b59d69b8b98abd5459d07f2742c4df920b25aae33c6482060405160405180910390a26101fc60006103f9565b60006102df6103d4565b905090565b60006102df61038a565b6102f66103d4565b600160a060020a0316331461030a57600080fd5b6103126103af565b1561037e57604080517f08c379a000000000000000000000000000000000000000000000000000000000815260206004820152601d60248201527f636f6e74726163742073686f756c64206e6f7420626520706175736564000000604482015290519081900360640190fd5b6103878161041d565b50565b7fcfd0c6ea5352192d7d4c5d4e7a73c5da12c871730cb60ff57879cbe7b403bb525490565b7f9e7945c55c116aa3404b99fe56db7af9613d3b899554a437c2616a4749a94d8a5490565b7f3ca57e4b51fc2e18497b219410298879868edada7e6fe5132c8feceb0a080d225490565b7f3ca57e4b51fc2e18497b219410298879868edada7e6fe5132c8feceb0a080d2255565b7fcfd0c6ea5352192d7d4c5d4e7a73c5da12c871730cb60ff57879cbe7b403bb52555600a165627a7a72305820d2d7d8632bea142d6a8fdf9a893f11b50d2dde00e56b24725b60b707f25cdb3200293ca57e4b51fc2e18497b219410298879868edada7e6fe5132c8feceb0a080d22",
  "source": "pragma solidity ^0.4.24;\n\nimport \"./OwnableProxy.sol\";\n\n/**\n * @title ClaimableProxy\n * @dev Extension for the OwnableProxy contract, where the ownership needs to be claimed.\n * This allows the new owner to accept the transfer.\n */\ncontract ClaimableProxy is OwnableProxy {\n    /**\n     * @dev Storage slot with the pending owner of the contract.\n     * This is the keccak-256 hash of \"org.monetha.proxy.pendingOwner\", and is\n     * validated in the constructor.\n     */\n    bytes32 private constant PENDING_OWNER_SLOT = 0xcfd0c6ea5352192d7d4c5d4e7a73c5da12c871730cb60ff57879cbe7b403bb52;\n\n    /**\n     * @dev The ClaimableProxy constructor validates PENDING_OWNER_SLOT constant.\n     */\n    constructor() public {\n        assert(PENDING_OWNER_SLOT == keccak256(\"org.monetha.proxy.pendingOwner\"));\n    }\n\n    function pendingOwner() public view returns (address) {\n        return _getPendingOwner();\n    }\n\n    /**\n     * @dev Modifier throws if called by any account other than the pendingOwner.\n     */\n    modifier onlyPendingOwner() {\n        require(msg.sender == _getPendingOwner());\n        _;\n    }\n\n    /**\n     * @dev Allows the current owner to set the pendingOwner address.\n     * @param newOwner The address to transfer ownership to.\n     */\n    function transferOwnership(address newOwner) public onlyOwner whenNotPaused {\n        _setPendingOwner(newOwner);\n    }\n\n    /**\n     * @dev Allows the pendingOwner address to finalize the transfer.\n     */\n    function claimOwnership() public onlyPendingOwner whenNotPaused {\n        emit OwnershipTransferred(_getOwner(), _getPendingOwner());\n        _setOwner(_getPendingOwner());\n        _setPendingOwner(address(0));\n    }\n\n    /**\n     * @return The pending owner address.\n     */\n    function _getPendingOwner() internal view returns (address penOwn) {\n        bytes32 slot = PENDING_OWNER_SLOT;\n        assembly {\n            penOwn := sload(slot)\n        }\n    }\n\n    /**\n     * @dev Sets the address of the pending owner.\n     * @param _newPendingOwner Address of the new pending owner.\n     */\n    function _setPendingOwner(address _newPendingOwner) internal {\n        bytes32 slot = PENDING_OWNER_SLOT;\n\n        assembly {\n            sstore(slot, _newPendingOwner)\n        }\n    }\n}",
  "sourcePath": "C:\\src\\monetha\\reputation-js-sdk-example\\deployer\\tmp\\contracts\\ownership\\ClaimableProxy.sol",
  "compiler": {
    "name": "solc",
    "version": "0.4.24+commit.e67f0147.Emscripten.clang"
  },
  "schemaVersion": "2.0.1",
  "updatedAt": "2019-10-29T13:00:35.386Z"
}