{
  "contractName": "DestructibleProxy",
  "abi": [
    {
      "constant": false,
      "inputs": [],
      "name": "renounceOwnership",
      "outputs": [],
      "payable": false,
      "stateMutability": "nonpayable",
      "type": "function"
    },
    {
      "constant": true,
      "inputs": [],
      "name": "owner",
      "outputs": [
        {
          "name": "",
          "type": "address"
        }
      ],
      "payable": false,
      "stateMutability": "view",
      "type": "function"
    },
    {
      "constant": false,
      "inputs": [
        {
          "name": "_newOwner",
          "type": "address"
        }
      ],
      "name": "transferOwnership",
      "outputs": [],
      "payable": false,
      "stateMutability": "nonpayable",
      "type": "function"
    },
    {
      "anonymous": false,
      "inputs": [
        {
          "indexed": true,
          "name": "previousOwner",
          "type": "address"
        }
      ],
      "name": "OwnershipRenounced",
      "type": "event"
    },
    {
      "anonymous": false,
      "inputs": [
        {
          "indexed": true,
          "name": "previousOwner",
          "type": "address"
        },
        {
          "indexed": true,
          "name": "newOwner",
          "type": "address"
        }
      ],
      "name": "OwnershipTransferred",
      "type": "event"
    },
    {
      "constant": false,
      "inputs": [],
      "name": "destroy",
      "outputs": [],
      "payable": false,
      "stateMutability": "nonpayable",
      "type": "function"
    },
    {
      "constant": false,
      "inputs": [
        {
          "name": "_recipient",
          "type": "address"
        }
      ],
      "name": "destroyAndSend",
      "outputs": [],
      "payable": false,
      "stateMutability": "nonpayable",
      "type": "function"
    }
  ],
  "bytecode": "0x608060408190527f6f72672e6d6f6e657468612e70726f78792e6f776e6572000000000000000000905261003b33640100000000610040810204565b610064565b7f3ca57e4b51fc2e18497b219410298879868edada7e6fe5132c8feceb0a080d2255565b61044e806100736000396000f30060806040526004361061006c5763ffffffff7c0100000000000000000000000000000000000000000000000000000000600035041663715018a6811461007157806383197ef0146100885780638da5cb5b1461009d578063f2fde38b146100ce578063f5074f41146100ef575b600080fd5b34801561007d57600080fd5b50610086610110565b005b34801561009457600080fd5b506100866101c0565b3480156100a957600080fd5b506100b261023a565b60408051600160a060020a039092168252519081900360200190f35b3480156100da57600080fd5b50610086600160a060020a0360043516610249565b3480156100fb57600080fd5b50610086600160a060020a03600435166102bc565b61011861032f565b600160a060020a0316331461012c57600080fd5b610134610354565b15610177576040805160e560020a62461bcd02815260206004820152601d6024820152600080516020610403833981519152604482015290519081900360640190fd5b61017f61032f565b600160a060020a03167ff8df31144d9c2f0f6b59d69b8b98abd5459d07f2742c4df920b25aae33c6482060405160405180910390a26101be6000610379565b565b6101c861032f565b600160a060020a031633146101dc57600080fd5b6101e4610354565b15610227576040805160e560020a62461bcd02815260206004820152601d6024820152600080516020610403833981519152604482015290519081900360640190fd5b61022f61032f565b600160a060020a0316ff5b600061024461032f565b905090565b61025161032f565b600160a060020a0316331461026557600080fd5b61026d610354565b156102b0576040805160e560020a62461bcd02815260206004820152601d6024820152600080516020610403833981519152604482015290519081900360640190fd5b6102b98161039d565b50565b6102c461032f565b600160a060020a031633146102d857600080fd5b6102e0610354565b15610323576040805160e560020a62461bcd02815260206004820152601d6024820152600080516020610403833981519152604482015290519081900360640190fd5b80600160a060020a0316ff5b7f3ca57e4b51fc2e18497b219410298879868edada7e6fe5132c8feceb0a080d225490565b7f9e7945c55c116aa3404b99fe56db7af9613d3b899554a437c2616a4749a94d8a5490565b7f3ca57e4b51fc2e18497b219410298879868edada7e6fe5132c8feceb0a080d2255565b600160a060020a03811615156103b257600080fd5b80600160a060020a03166103c461032f565b600160a060020a03167f8be0079c531659141344cd1fd0a4f28419497f9722a3daafe3b4186f6b6457e060405160405180910390a36102b9816103795600636f6e74726163742073686f756c64206e6f7420626520706175736564000000a165627a7a72305820e19283e1914c54448e7a936477840d8dd8344437290c48c7cbe738d6d296dc0b0029",
  "source": "pragma solidity ^0.4.24;\n\nimport \"../ownership/OwnableProxy.sol\";\n\n/**\n * @title Destructible\n * @dev Base contract that can be destroyed by owner. All funds in contract will be sent to the owner.\n */\ncontract DestructibleProxy is OwnableProxy {\n    /**\n     * @dev Transfers the current balance to the owner and terminates the contract.\n     */\n    function destroy() public onlyOwner whenNotPaused {\n        selfdestruct(_getOwner());\n    }\n\n    function destroyAndSend(address _recipient) public onlyOwner whenNotPaused {\n        selfdestruct(_recipient);\n    }\n}\n",
  "sourcePath": "C:\\src\\monetha\\reputation-js-sdk-example\\deployer\\tmp\\contracts\\lifecycle\\DestructibleProxy.sol",
  "compiler": {
    "name": "solc",
    "version": "0.4.24+commit.e67f0147.Emscripten.clang"
  },
  "schemaVersion": "2.0.1",
  "updatedAt": "2019-10-29T13:00:35.384Z"
}