{
  "contractName": "DestructibleProxyMock",
  "abi": [
    {
      "constant": false,
      "inputs": [],
      "name": "renounceOwnership",
      "outputs": [],
      "payable": false,
      "stateMutability": "nonpayable",
      "type": "function"
    },
    {
      "constant": false,
      "inputs": [],
      "name": "destroy",
      "outputs": [],
      "payable": false,
      "stateMutability": "nonpayable",
      "type": "function"
    },
    {
      "constant": true,
      "inputs": [],
      "name": "owner",
      "outputs": [
        {
          "name": "",
          "type": "address"
        }
      ],
      "payable": false,
      "stateMutability": "view",
      "type": "function"
    },
    {
      "constant": false,
      "inputs": [
        {
          "name": "_newOwner",
          "type": "address"
        }
      ],
      "name": "transferOwnership",
      "outputs": [],
      "payable": false,
      "stateMutability": "nonpayable",
      "type": "function"
    },
    {
      "constant": false,
      "inputs": [
        {
          "name": "_recipient",
          "type": "address"
        }
      ],
      "name": "destroyAndSend",
      "outputs": [],
      "payable": false,
      "stateMutability": "nonpayable",
      "type": "function"
    },
    {
      "payable": true,
      "stateMutability": "payable",
      "type": "fallback"
    },
    {
      "anonymous": false,
      "inputs": [
        {
          "indexed": true,
          "name": "previousOwner",
          "type": "address"
        }
      ],
      "name": "OwnershipRenounced",
      "type": "event"
    },
    {
      "anonymous": false,
      "inputs": [
        {
          "indexed": true,
          "name": "previousOwner",
          "type": "address"
        },
        {
          "indexed": true,
          "name": "newOwner",
          "type": "address"
        }
      ],
      "name": "OwnershipTransferred",
      "type": "event"
    },
    {
      "constant": false,
      "inputs": [],
      "name": "pause",
      "outputs": [],
      "payable": false,
      "stateMutability": "nonpayable",
      "type": "function"
    },
    {
      "constant": false,
      "inputs": [],
      "name": "unpause",
      "outputs": [],
      "payable": false,
      "stateMutability": "nonpayable",
      "type": "function"
    }
  ],
  "bytecode": "0x608060408190527f6f72672e6d6f6e657468612e70726f78792e6f776e6572000000000000000000905261003b33640100000000610040810204565b610064565b7f3ca57e4b51fc2e18497b219410298879868edada7e6fe5132c8feceb0a080d2255565b6104c1806100736000396000f3006080604052600436106100825763ffffffff7c01000000000000000000000000000000000000000000000000000000006000350416633f4ba83a8114610084578063715018a61461009957806383197ef0146100ae5780638456cb59146100c35780638da5cb5b146100d8578063f2fde38b14610109578063f5074f411461012a575b005b34801561009057600080fd5b5061008261014b565b3480156100a557600080fd5b50610082610157565b3480156100ba57600080fd5b50610082610205565b3480156100cf57600080fd5b5061008261027f565b3480156100e457600080fd5b506100ed610289565b60408051600160a060020a039092168252519081900360200190f35b34801561011557600080fd5b50610082600160a060020a0360043516610298565b34801561013657600080fd5b50610082600160a060020a036004351661030b565b610155600061037e565b565b61015f6103a2565b600160a060020a0316331461017357600080fd5b61017b6103c7565b156101be576040805160e560020a62461bcd02815260206004820152601d6024820152600080516020610476833981519152604482015290519081900360640190fd5b6101c66103a2565b600160a060020a03167ff8df31144d9c2f0f6b59d69b8b98abd5459d07f2742c4df920b25aae33c6482060405160405180910390a261015560006103ec565b61020d6103a2565b600160a060020a0316331461022157600080fd5b6102296103c7565b1561026c576040805160e560020a62461bcd02815260206004820152601d6024820152600080516020610476833981519152604482015290519081900360640190fd5b6102746103a2565b600160a060020a0316ff5b610155600161037e565b60006102936103a2565b905090565b6102a06103a2565b600160a060020a031633146102b457600080fd5b6102bc6103c7565b156102ff576040805160e560020a62461bcd02815260206004820152601d6024820152600080516020610476833981519152604482015290519081900360640190fd5b61030881610410565b50565b6103136103a2565b600160a060020a0316331461032757600080fd5b61032f6103c7565b15610372576040805160e560020a62461bcd02815260206004820152601d6024820152600080516020610476833981519152604482015290519081900360640190fd5b80600160a060020a0316ff5b7f9e7945c55c116aa3404b99fe56db7af9613d3b899554a437c2616a4749a94d8a55565b7f3ca57e4b51fc2e18497b219410298879868edada7e6fe5132c8feceb0a080d225490565b7f9e7945c55c116aa3404b99fe56db7af9613d3b899554a437c2616a4749a94d8a5490565b7f3ca57e4b51fc2e18497b219410298879868edada7e6fe5132c8feceb0a080d2255565b600160a060020a038116151561042557600080fd5b80600160a060020a03166104376103a2565b600160a060020a03167f8be0079c531659141344cd1fd0a4f28419497f9722a3daafe3b4186f6b6457e060405160405180910390a3610308816103ec5600636f6e74726163742073686f756c64206e6f7420626520706175736564000000a165627a7a723058206ac1151e01427f78999de1a5da8568851362a30b9e96de3c03cbb68a1ec6d59f0029",
  "source": "pragma solidity ^0.4.24;\n\nimport \"../lifecycle/DestructibleProxy.sol\";\n\ncontract DestructibleProxyMock is DestructibleProxy {\n    function() payable public {}\n\n    function pause() public {\n        _setPaused(true);\n    }\n\n    function unpause() public {\n        _setPaused(false);\n    }\n}",
  "sourcePath": "C:\\src\\monetha\\reputation-js-sdk-example\\deployer\\tmp\\contracts\\mocks\\DestructibleProxyMock.sol",
  "compiler": {
    "name": "solc",
    "version": "0.4.24+commit.e67f0147.Emscripten.clang"
  },
  "schemaVersion": "2.0.1",
  "updatedAt": "2019-10-29T13:00:35.385Z"
}