{
  "contractName": "FactProviderRegistry",
  "abi": [
    {
      "constant": false,
      "inputs": [
        {
          "name": "_token",
          "type": "address"
        }
      ],
      "name": "reclaimToken",
      "outputs": [],
      "payable": false,
      "stateMutability": "nonpayable",
      "type": "function"
    },
    {
      "constant": true,
      "inputs": [
        {
          "name": "",
          "type": "address"
        }
      ],
      "name": "factProviders",
      "outputs": [
        {
          "name": "initialized",
          "type": "bool"
        },
        {
          "name": "name",
          "type": "string"
        },
        {
          "name": "reputation_passport",
          "type": "address"
        },
        {
          "name": "website",
          "type": "string"
        }
      ],
      "payable": false,
      "stateMutability": "view",
      "type": "function"
    },
    {
      "constant": false,
      "inputs": [],
      "name": "renounceOwnership",
      "outputs": [],
      "payable": false,
      "stateMutability": "nonpayable",
      "type": "function"
    },
    {
      "constant": true,
      "inputs": [],
      "name": "owner",
      "outputs": [
        {
          "name": "",
          "type": "address"
        }
      ],
      "payable": false,
      "stateMutability": "view",
      "type": "function"
    },
    {
      "constant": false,
      "inputs": [],
      "name": "reclaimEther",
      "outputs": [],
      "payable": false,
      "stateMutability": "nonpayable",
      "type": "function"
    },
    {
      "constant": true,
      "inputs": [
        {
          "name": "_from",
          "type": "address"
        },
        {
          "name": "_value",
          "type": "uint256"
        },
        {
          "name": "_data",
          "type": "bytes"
        }
      ],
      "name": "tokenFallback",
      "outputs": [],
      "payable": false,
      "stateMutability": "pure",
      "type": "function"
    },
    {
      "constant": false,
      "inputs": [
        {
          "name": "_newOwner",
          "type": "address"
        }
      ],
      "name": "transferOwnership",
      "outputs": [],
      "payable": false,
      "stateMutability": "nonpayable",
      "type": "function"
    },
    {
      "payable": false,
      "stateMutability": "nonpayable",
      "type": "fallback"
    },
    {
      "anonymous": false,
      "inputs": [
        {
          "indexed": true,
          "name": "factProvider",
          "type": "address"
        }
      ],
      "name": "FactProviderAdded",
      "type": "event"
    },
    {
      "anonymous": false,
      "inputs": [
        {
          "indexed": true,
          "name": "factProvider",
          "type": "address"
        }
      ],
      "name": "FactProviderUpdated",
      "type": "event"
    },
    {
      "anonymous": false,
      "inputs": [
        {
          "indexed": true,
          "name": "factProvider",
          "type": "address"
        }
      ],
      "name": "FactProviderDeleted",
      "type": "event"
    },
    {
      "anonymous": false,
      "inputs": [
        {
          "indexed": true,
          "name": "previousOwner",
          "type": "address"
        }
      ],
      "name": "OwnershipRenounced",
      "type": "event"
    },
    {
      "anonymous": false,
      "inputs": [
        {
          "indexed": true,
          "name": "previousOwner",
          "type": "address"
        },
        {
          "indexed": true,
          "name": "newOwner",
          "type": "address"
        }
      ],
      "name": "OwnershipTransferred",
      "type": "event"
    },
    {
      "constant": false,
      "inputs": [
        {
          "name": "_factProvider",
          "type": "address"
        },
        {
          "name": "_factProviderName",
          "type": "string"
        },
        {
          "name": "_factProviderReputationPassport",
          "type": "address"
        },
        {
          "name": "_factProviderWebsite",
          "type": "string"
        }
      ],
      "name": "setFactProviderInfo",
      "outputs": [],
      "payable": false,
      "stateMutability": "nonpayable",
      "type": "function"
    },
    {
      "constant": false,
      "inputs": [
        {
          "name": "_factProvider",
          "type": "address"
        }
      ],
      "name": "deleteFactProviderInfo",
      "outputs": [],
      "payable": false,
      "stateMutability": "nonpayable",
      "type": "function"
    }
  ],
  "bytecode": "0x608060405260008054600160a060020a03191633179055341561002157600080fd5b610ae3806100306000396000f3006080604052600436106100985763ffffffff7c010000000000000000000000000000000000000000000000000000000060003504166317ffc32081146100a75780631df84d87146100ca57806353cb9293146100eb578063715018a61461020e57806385301a01146102235780638da5cb5b146102625780639f727c2714610293578063c0ee0b8a146102a8578063f2fde38b146102d9575b3480156100a457600080fd5b50005b3480156100b357600080fd5b506100c8600160a060020a03600435166102fa565b005b3480156100d657600080fd5b506100c8600160a060020a03600435166103c6565b3480156100f757600080fd5b5061010c600160a060020a0360043516610495565b60405180851515151581526020018060200184600160a060020a0316600160a060020a0316815260200180602001838103835286818151815260200191508051906020019080838360005b8381101561016f578181015183820152602001610157565b50505050905090810190601f16801561019c5780820380516001836020036101000a031916815260200191505b50838103825284518152845160209182019186019080838360005b838110156101cf5781810151838201526020016101b7565b50505050905090810190601f1680156101fc5780820380516001836020036101000a031916815260200191505b50965050505050505060405180910390f35b34801561021a57600080fd5b506100c86105e4565b34801561022f57600080fd5b506100c8600160a060020a0360048035821691602480358082019390810135926044351691606435908101910135610650565b34801561026e57600080fd5b5061027761081d565b60408051600160a060020a039092168252519081900360200190f35b34801561029f57600080fd5b506100c861082c565b3480156102b457600080fd5b506100c860048035600160a060020a031690602480359160443591820191013561087e565b3480156102e557600080fd5b506100c8600160a060020a0360043516610883565b60008054600160a060020a0316331461031257600080fd5b604080517f70a082310000000000000000000000000000000000000000000000000000000081523060048201529051600160a060020a038416916370a082319160248083019260209291908290030181600087803b15801561037357600080fd5b505af1158015610387573d6000803e3d6000fd5b505050506040513d602081101561039d57600080fd5b50516000549091506103c290600160a060020a0384811691168363ffffffff6108a316565b5050565b600054600160a060020a031633146103dd57600080fd5b600160a060020a03811660009081526001602052604090205460ff161561049257600160a060020a03811660009081526001602081905260408220805460ff19168155919061042e908301826109d8565b60028201805473ffffffffffffffffffffffffffffffffffffffff1916905561045b6003830160006109d8565b5050604051600160a060020a038216907fffcf9fb4992cc4ee4022ab3c2c5fa4914c18a25a2dc1614fc52c3ba8bbebf0aa90600090a25b50565b600160208181526000928352604092839020805481840180548651600261010097831615979097026000190190911695909504601f810185900485028601850190965285855260ff909116949193929091908301828280156105385780601f1061050d57610100808354040283529160200191610538565b820191906000526020600020905b81548152906001019060200180831161051b57829003601f168201915b505050506002838101546003850180546040805160206101006001851615026000190190931695909504601f81018390048302860183019091528085529596600160a060020a03909316959294509091908301828280156105da5780601f106105af576101008083540402835291602001916105da565b820191906000526020600020905b8154815290600101906020018083116105bd57829003601f168201915b5050505050905084565b600054600160a060020a031633146105fb57600080fd5b60008054604051600160a060020a03909116917ff8df31144d9c2f0f6b59d69b8b98abd5459d07f2742c4df920b25aae33c6482091a26000805473ffffffffffffffffffffffffffffffffffffffff19169055565b60008054600160a060020a0316331461066857600080fd5b50600160a060020a0386166000908152600160208181526040928390205483516080810185529283528351601f890183900483028101830190945287845260ff1692828201918990899081908401838280828437820191505050505050815260200185600160a060020a0316815260200184848080601f01602080910402602001604051908101604052809392919081815260200183838082843750505092909352505050600160a060020a03881660009081526001602081815260409092208351815460ff1916901515178155838301518051919361074d93850192910190610a1c565b50604082015160028201805473ffffffffffffffffffffffffffffffffffffffff1916600160a060020a039092169190911790556060820151805161079c916003840191602090910190610a1c565b5090505080156107df57604051600160a060020a038816907ff5373d11a64f7dfd39311b28060d0cc68d73cde4dbb253a9cfd6b00f871932a490600090a2610814565b604051600160a060020a038816907f49fe72d660cc80a367041ae43bb1e4956396956549f81c0e6a0adfbc4a8698f790600090a25b50505050505050565b600054600160a060020a031681565b600054600160a060020a0316331461084357600080fd5b60008054604051600160a060020a0390911691303180156108fc02929091818181858888f19350505050158015610492573d6000803e3d6000fd5b600080fd5b600054600160a060020a0316331461089a57600080fd5b6104928161095b565b82600160a060020a031663a9059cbb83836040518363ffffffff167c01000000000000000000000000000000000000000000000000000000000281526004018083600160a060020a0316600160a060020a0316815260200182815260200192505050602060405180830381600087803b15801561091f57600080fd5b505af1158015610933573d6000803e3d6000fd5b505050506040513d602081101561094957600080fd5b5051151561095657600080fd5b505050565b600160a060020a038116151561097057600080fd5b60008054604051600160a060020a03808516939216917f8be0079c531659141344cd1fd0a4f28419497f9722a3daafe3b4186f6b6457e091a36000805473ffffffffffffffffffffffffffffffffffffffff1916600160a060020a0392909216919091179055565b50805460018160011615610100020316600290046000825580601f106109fe5750610492565b601f0160209004906000526020600020908101906104929190610a9a565b828054600181600116156101000203166002900490600052602060002090601f016020900481019282601f10610a5d57805160ff1916838001178555610a8a565b82800160010185558215610a8a579182015b82811115610a8a578251825591602001919060010190610a6f565b50610a96929150610a9a565b5090565b610ab491905b80821115610a965760008155600101610aa0565b905600a165627a7a723058208478f4c376b5717f1210b5592d195b4f4ce6cc795eeec599825956e36a079d1d0029",
  "source": "pragma solidity ^0.4.24;\n\nimport \"openzeppelin-solidity/contracts/ownership/Ownable.sol\";\nimport \"openzeppelin-solidity/contracts/ownership/HasNoEther.sol\";\nimport \"openzeppelin-solidity/contracts/ownership/HasNoTokens.sol\";\n\n/**\n * @title FactProviderRegistry\n * @dev This contract works as a registry of known fact providers that are using Monetha reputation platform.\n */\ncontract FactProviderRegistry is Ownable, HasNoEther, HasNoTokens {\n    /**\n     * @dev This event will be emitted every time a new fact provider is registered\n     */\n    event FactProviderAdded(address indexed factProvider);\n\n    /**\n     * @dev This event will be emitted every time the info of a fact provider is updated\n     */\n    event FactProviderUpdated(address indexed factProvider);\n\n    /**\n     * @dev This event will be emitted every time the fact provider is removed from the registry\n     */\n    event FactProviderDeleted(address indexed factProvider);\n\n    struct FactProviderInfo {\n        bool initialized;\n        string name;\n        address reputation_passport;\n        string website;\n    }\n\n    mapping(address => FactProviderInfo) public factProviders;\n\n    /**\n     * @dev Registers or updates a fact provider.\n     * @param _factProvider representing the address of fact provider, which is used to provide facts\n     * @param _factProviderName representing user friendly name of fact provider, e.g. Monetha Wallet\n     * @param _factProviderReputationPassport representing reputation passport address of fact provider (if exists)\n     * @param _factProviderWebsite representing website of fact provider\n     */\n    function setFactProviderInfo(\n        address _factProvider,\n        string _factProviderName,\n        address _factProviderReputationPassport,\n        string _factProviderWebsite\n    ) external onlyOwner {\n        bool initializedFactProvider;\n        initializedFactProvider = factProviders[_factProvider].initialized;\n\n        factProviders[_factProvider] = FactProviderInfo({\n            initialized : true,\n            name : _factProviderName,\n            reputation_passport : _factProviderReputationPassport,\n            website : _factProviderWebsite\n            });\n\n        if (initializedFactProvider) {\n            emit FactProviderUpdated(_factProvider);\n        } else {\n            emit FactProviderAdded(_factProvider);\n        }\n    }\n\n    /**\n     * @dev Removes a fact provider from the registry.\n     * @param _factProvider representing the address of fact provider\n     */\n    function deleteFactProviderInfo(address _factProvider) external onlyOwner {\n        if (factProviders[_factProvider].initialized) {\n            delete factProviders[_factProvider];\n\n            emit FactProviderDeleted(_factProvider);\n        }\n    }\n}",
  "sourcePath": "C:\\src\\monetha\\reputation-js-sdk-example\\deployer\\tmp\\contracts\\FactProviderRegistry.sol",
  "compiler": {
    "name": "solc",
    "version": "0.4.24+commit.e67f0147.Emscripten.clang"
  },
  "schemaVersion": "2.0.1",
  "updatedAt": "2019-10-29T13:00:35.378Z"
}