{
  "contractName": "IntStorageLogic",
  "abi": [
    {
      "constant": true,
      "inputs": [
        {
          "name": "_address",
          "type": "address"
        }
      ],
      "name": "isAllowedFactProvider",
      "outputs": [
        {
          "name": "",
          "type": "bool"
        }
      ],
      "payable": false,
      "stateMutability": "view",
      "type": "function"
    },
    {
      "constant": false,
      "inputs": [
        {
          "name": "_onlyWhitelist",
          "type": "bool"
        }
      ],
      "name": "setWhitelistOnlyPermission",
      "outputs": [],
      "payable": false,
      "stateMutability": "nonpayable",
      "type": "function"
    },
    {
      "constant": false,
      "inputs": [],
      "name": "claimOwnership",
      "outputs": [],
      "payable": false,
      "stateMutability": "nonpayable",
      "type": "function"
    },
    {
      "constant": true,
      "inputs": [],
      "name": "isWhitelistOnlyPermissionSet",
      "outputs": [
        {
          "name": "",
          "type": "bool"
        }
      ],
      "payable": false,
      "stateMutability": "view",
      "type": "function"
    },
    {
      "constant": false,
      "inputs": [
        {
          "name": "_address",
          "type": "address"
        }
      ],
      "name": "removeFactProviderFromWhitelist",
      "outputs": [],
      "payable": false,
      "stateMutability": "nonpayable",
      "type": "function"
    },
    {
      "constant": true,
      "inputs": [
        {
          "name": "",
          "type": "uint256"
        }
      ],
      "name": "privateDataExchanges",
      "outputs": [
        {
          "name": "dataRequester",
          "type": "address"
        },
        {
          "name": "dataRequesterValue",
          "type": "uint256"
        },
        {
          "name": "passportOwner",
          "type": "address"
        },
        {
          "name": "passportOwnerValue",
          "type": "uint256"
        },
        {
          "name": "factProvider",
          "type": "address"
        },
        {
          "name": "key",
          "type": "bytes32"
        },
        {
          "name": "dataIPFSHash",
          "type": "string"
        },
        {
          "name": "dataKeyHash",
          "type": "bytes32"
        },
        {
          "name": "encryptedExchangeKey",
          "type": "bytes"
        },
        {
          "name": "exchangeKeyHash",
          "type": "bytes32"
        },
        {
          "name": "encryptedDataKey",
          "type": "bytes32"
        },
        {
          "name": "state",
          "type": "uint8"
        },
        {
          "name": "stateExpired",
          "type": "uint256"
        }
      ],
      "payable": false,
      "stateMutability": "view",
      "type": "function"
    },
    {
      "constant": false,
      "inputs": [],
      "name": "renounceOwnership",
      "outputs": [],
      "payable": false,
      "stateMutability": "nonpayable",
      "type": "function"
    },
    {
      "constant": true,
      "inputs": [
        {
          "name": "_address",
          "type": "address"
        }
      ],
      "name": "isFactProviderInWhitelist",
      "outputs": [
        {
          "name": "",
          "type": "bool"
        }
      ],
      "payable": false,
      "stateMutability": "view",
      "type": "function"
    },
    {
      "constant": true,
      "inputs": [],
      "name": "owner",
      "outputs": [
        {
          "name": "",
          "type": "address"
        }
      ],
      "payable": false,
      "stateMutability": "view",
      "type": "function"
    },
    {
      "constant": false,
      "inputs": [
        {
          "name": "_address",
          "type": "address"
        }
      ],
      "name": "addFactProviderToWhitelist",
      "outputs": [],
      "payable": false,
      "stateMutability": "nonpayable",
      "type": "function"
    },
    {
      "constant": true,
      "inputs": [],
      "name": "openPrivateDataExchangesCount",
      "outputs": [
        {
          "name": "",
          "type": "uint256"
        }
      ],
      "payable": false,
      "stateMutability": "view",
      "type": "function"
    },
    {
      "constant": true,
      "inputs": [],
      "name": "pendingOwner",
      "outputs": [
        {
          "name": "",
          "type": "address"
        }
      ],
      "payable": false,
      "stateMutability": "view",
      "type": "function"
    },
    {
      "constant": false,
      "inputs": [
        {
          "name": "newOwner",
          "type": "address"
        }
      ],
      "name": "transferOwnership",
      "outputs": [],
      "payable": false,
      "stateMutability": "nonpayable",
      "type": "function"
    },
    {
      "anonymous": false,
      "inputs": [
        {
          "indexed": true,
          "name": "factProvider",
          "type": "address"
        },
        {
          "indexed": true,
          "name": "key",
          "type": "bytes32"
        }
      ],
      "name": "IntUpdated",
      "type": "event"
    },
    {
      "anonymous": false,
      "inputs": [
        {
          "indexed": true,
          "name": "factProvider",
          "type": "address"
        },
        {
          "indexed": true,
          "name": "key",
          "type": "bytes32"
        }
      ],
      "name": "IntDeleted",
      "type": "event"
    },
    {
      "anonymous": false,
      "inputs": [
        {
          "indexed": true,
          "name": "onlyWhitelist",
          "type": "bool"
        }
      ],
      "name": "WhitelistOnlyPermissionSet",
      "type": "event"
    },
    {
      "anonymous": false,
      "inputs": [
        {
          "indexed": true,
          "name": "factProvider",
          "type": "address"
        }
      ],
      "name": "WhitelistFactProviderAdded",
      "type": "event"
    },
    {
      "anonymous": false,
      "inputs": [
        {
          "indexed": true,
          "name": "factProvider",
          "type": "address"
        }
      ],
      "name": "WhitelistFactProviderRemoved",
      "type": "event"
    },
    {
      "anonymous": false,
      "inputs": [
        {
          "indexed": true,
          "name": "previousOwner",
          "type": "address"
        }
      ],
      "name": "OwnershipRenounced",
      "type": "event"
    },
    {
      "anonymous": false,
      "inputs": [
        {
          "indexed": true,
          "name": "previousOwner",
          "type": "address"
        },
        {
          "indexed": true,
          "name": "newOwner",
          "type": "address"
        }
      ],
      "name": "OwnershipTransferred",
      "type": "event"
    },
    {
      "constant": false,
      "inputs": [
        {
          "name": "_key",
          "type": "bytes32"
        },
        {
          "name": "_value",
          "type": "int256"
        }
      ],
      "name": "setInt",
      "outputs": [],
      "payable": false,
      "stateMutability": "nonpayable",
      "type": "function"
    },
    {
      "constant": false,
      "inputs": [
        {
          "name": "_key",
          "type": "bytes32"
        }
      ],
      "name": "deleteInt",
      "outputs": [],
      "payable": false,
      "stateMutability": "nonpayable",
      "type": "function"
    },
    {
      "constant": true,
      "inputs": [
        {
          "name": "_factProvider",
          "type": "address"
        },
        {
          "name": "_key",
          "type": "bytes32"
        }
      ],
      "name": "getInt",
      "outputs": [
        {
          "name": "success",
          "type": "bool"
        },
        {
          "name": "value",
          "type": "int256"
        }
      ],
      "payable": false,
      "stateMutability": "view",
      "type": "function"
    }
  ],
  "bytecode": "0x608060408190527f6f72672e6d6f6e657468612e70726f78792e6f776e6572000000000000000000905261003b3364010000000061009a810204565b604080517f6f72672e6d6f6e657468612e70726f78792e70656e64696e674f776e657200008152905190819003601e0190207fcfd0c6ea5352192d7d4c5d4e7a73c5da12c871730cb60ff57879cbe7b403bb521461009557fe5b6100be565b7f3ca57e4b51fc2e18497b219410298879868edada7e6fe5132c8feceb0a080d2255565b610c84806100cd6000396000f3006080604052600436106100e55763ffffffff7c01000000000000000000000000000000000000000000000000000000006000350416632088815881146100ea5780632b42a89a1461011f5780633e49bed01461013b5780634e71e0c81461015657806361a2d0761461016b5780636d4e7802146101805780636f618f9a146101a1578063715018a6146103485780638ae44a081461035d5780638c1600951461037e5780638da5cb5b1461039657806395ee8bae146103c7578063ac0aeb1a14610406578063caa95f1b14610427578063e30c39781461044e578063f2fde38b14610463575b600080fd5b3480156100f657600080fd5b5061010b600160a060020a0360043516610484565b604080519115158252519081900360200190f35b34801561012b57600080fd5b5061013960043515156104da565b005b34801561014757600080fd5b50610139600435602435610533565b34801561016257600080fd5b50610139610541565b34801561017757600080fd5b5061010b61063b565b34801561018c57600080fd5b50610139600160a060020a0360043516610644565b3480156101ad57600080fd5b506101b96004356106a9565b604051808e600160a060020a0316600160a060020a031681526020018d81526020018c600160a060020a0316600160a060020a031681526020018b81526020018a600160a060020a0316600160a060020a031681526020018960001916600019168152602001806020018860001916600019168152602001806020018760001916600019168152602001866000191660001916815260200185600281111561025d57fe5b60ff16815260200184815260200183810383528a818151815260200191508051906020019080838360005b838110156102a0578181015183820152602001610288565b50505050905090810190601f1680156102cd5780820380516001836020036101000a031916815260200191505b5083810382528851815288516020918201918a019080838360005b838110156103005781810151838201526020016102e8565b50505050905090810190601f16801561032d5780820380516001836020036101000a031916815260200191505b509f5050505050505050505050505050505060405180910390f35b34801561035457600080fd5b50610139610849565b34801561036957600080fd5b5061010b600160a060020a0360043516610920565b34801561038a57600080fd5b5061013960043561093e565b3480156103a257600080fd5b506103ab61094a565b60408051600160a060020a039092168252519081900360200190f35b3480156103d357600080fd5b506103eb600160a060020a0360043516602435610959565b60408051921515835260208301919091528051918290030190f35b34801561041257600080fd5b50610139600160a060020a0360043516610971565b34801561043357600080fd5b5061043c6109d9565b60408051918252519081900360200190f35b34801561045a57600080fd5b506103ab6109df565b34801561046f57600080fd5b50610139600160a060020a03600435166109e9565b60075460009060ff1615806104b15750600160a060020a03821660009081526008602052604090205460ff165b806104d457506104bf610a82565b600160a060020a031682600160a060020a0316145b92915050565b6104e2610a82565b600160a060020a031633146104f657600080fd5b6007805460ff19168215159081179091556040517f6e1eb3fa845047cf9d5fd1deb1b7770b4e26163dd4d88cefb14fe7964a70059590600090a250565b61053d8282610aa7565b5050565b610549610b2b565b600160a060020a0316331461055d57600080fd5b610565610b50565b156105d157604080517f08c379a000000000000000000000000000000000000000000000000000000000815260206004820152601d60248201527f636f6e74726163742073686f756c64206e6f7420626520706175736564000000604482015290519081900360640190fd5b6105d9610b2b565b600160a060020a03166105ea610a82565b600160a060020a03167f8be0079c531659141344cd1fd0a4f28419497f9722a3daafe3b4186f6b6457e060405160405180910390a361062f61062a610b2b565b610b75565b6106396000610b99565b565b60075460ff1690565b61064c610a82565b600160a060020a0316331461066057600080fd5b600160a060020a038116600081815260086020526040808220805460ff19169055517f5bf47f016603dfff957e6086bd9a350212686e8f1d9208b3db47c5a3107c78789190a250565b600c8054829081106106b757fe5b6000918252602091829020600d90910201805460018083015460028085015460038601546004870154600588015460068901805460408051601f6000199b841615610100029b909b01909216979097049889018c90048c0281018c01909652878652600160a060020a039889169b509599938816989297919091169590949193928301828280156107895780601f1061075e57610100808354040283529160200191610789565b820191906000526020600020905b81548152906001019060200180831161076c57829003601f168201915b50505050600783015460088401805460408051602060026001851615610100026000190190941693909304601f810184900484028201840190925281815295969395939450908301828280156108205780601f106107f557610100808354040283529160200191610820565b820191906000526020600020905b81548152906001019060200180831161080357829003601f168201915b5050506009840154600a850154600b860154600c909601549495919490935060ff90911691508d565b610851610a82565b600160a060020a0316331461086557600080fd5b61086d610b50565b156108d957604080517f08c379a000000000000000000000000000000000000000000000000000000000815260206004820152601d60248201527f636f6e74726163742073686f756c64206e6f7420626520706175736564000000604482015290519081900360640190fd5b6108e1610a82565b600160a060020a03167ff8df31144d9c2f0f6b59d69b8b98abd5459d07f2742c4df920b25aae33c6482060405160405180910390a26106396000610b75565b600160a060020a031660009081526008602052604090205460ff1690565b61094781610bbd565b50565b6000610954610a82565b905090565b6000806109668484610c24565b915091509250929050565b610979610a82565b600160a060020a0316331461098d57600080fd5b600160a060020a038116600081815260086020526040808220805460ff19166001179055517fff8ac5f0e9cdc8f7ffbbc29ab1301ee649cf01cf7a6a9265a2d90587612c41759190a250565b600b5481565b6000610954610b2b565b6109f1610a82565b600160a060020a03163314610a0557600080fd5b610a0d610b50565b15610a7957604080517f08c379a000000000000000000000000000000000000000000000000000000000815260206004820152601d60248201527f636f6e74726163742073686f756c64206e6f7420626520706175736564000000604482015290519081900360640190fd5b61094781610b99565b7f3ca57e4b51fc2e18497b219410298879868edada7e6fe5132c8feceb0a080d225490565b610ab033610484565b1515610abb57600080fd5b60408051808201825260018082526020808301858152336000818152600284528681208982529093528583209451855460ff19169015151785559051939092019290925591518492917fdb4ad6a3ed2bdacbae02da45a5bb54192cdb7d72648674d13e08d2fc4c45ac6691a35050565b7fcfd0c6ea5352192d7d4c5d4e7a73c5da12c871730cb60ff57879cbe7b403bb525490565b7f9e7945c55c116aa3404b99fe56db7af9613d3b899554a437c2616a4749a94d8a5490565b7f3ca57e4b51fc2e18497b219410298879868edada7e6fe5132c8feceb0a080d2255565b7fcfd0c6ea5352192d7d4c5d4e7a73c5da12c871730cb60ff57879cbe7b403bb5255565b610bc633610484565b1515610bd157600080fd5b336000818152600260209081526040808320858452909152808220805460ff19168155600101829055518392917f3c3ff48e02e407eb1e78310d11b5e3f9e735263a9cafc2bcf4aa981b8ecb32a591a350565b600160a060020a0391909116600090815260026020908152604080832093835292905220805460019091015460ff909116915600a165627a7a723058202e299536c8d019e39bb253635f7d15643846e2cd5a57d57ca3a12da26541faf70029",
  "source": "pragma solidity ^0.4.24;\n\nimport \"./Storage.sol\";\n\ncontract IntStorageLogic is Storage {\n    event IntUpdated(address indexed factProvider, bytes32 indexed key);\n    event IntDeleted(address indexed factProvider, bytes32 indexed key);\n\n    /// @param _key The key for the record\n    /// @param _value The value for the record\n    function setInt(bytes32 _key, int _value) external {\n        _setInt(_key, _value);\n    }\n\n    /// @param _key The key for the record\n    function deleteInt(bytes32 _key) external {\n        _deleteInt(_key);\n    }\n\n    /// @param _factProvider The fact provider\n    /// @param _key The key for the record\n    function getInt(address _factProvider, bytes32 _key) external view returns (bool success, int value) {\n        return _getInt(_factProvider, _key);\n    }\n\n    function _setInt(bytes32 _key, int _value) allowedFactProvider internal {\n        intStorage[msg.sender][_key] = IntValue({\n            initialized : true,\n            value : _value\n            });\n        emit IntUpdated(msg.sender, _key);\n    }\n\n    function _deleteInt(bytes32 _key) allowedFactProvider internal {\n        delete intStorage[msg.sender][_key];\n        emit IntDeleted(msg.sender, _key);\n    }\n\n    function _getInt(address _factProvider, bytes32 _key) internal view returns (bool success, int value) {\n        IntValue storage initValue = intStorage[_factProvider][_key];\n        return (initValue.initialized, initValue.value);\n    }\n}",
  "sourcePath": "C:\\src\\monetha\\reputation-js-sdk-example\\deployer\\tmp\\contracts\\storage\\IntStorageLogic.sol",
  "compiler": {
    "name": "solc",
    "version": "0.4.24+commit.e67f0147.Emscripten.clang"
  },
  "schemaVersion": "2.0.1",
  "updatedAt": "2019-10-29T13:00:35.393Z"
}