{
  "contractName": "IPFSStorageLogic",
  "abi": [
    {
      "constant": true,
      "inputs": [
        {
          "name": "_address",
          "type": "address"
        }
      ],
      "name": "isAllowedFactProvider",
      "outputs": [
        {
          "name": "",
          "type": "bool"
        }
      ],
      "payable": false,
      "stateMutability": "view",
      "type": "function"
    },
    {
      "constant": false,
      "inputs": [
        {
          "name": "_onlyWhitelist",
          "type": "bool"
        }
      ],
      "name": "setWhitelistOnlyPermission",
      "outputs": [],
      "payable": false,
      "stateMutability": "nonpayable",
      "type": "function"
    },
    {
      "constant": false,
      "inputs": [],
      "name": "claimOwnership",
      "outputs": [],
      "payable": false,
      "stateMutability": "nonpayable",
      "type": "function"
    },
    {
      "constant": true,
      "inputs": [],
      "name": "isWhitelistOnlyPermissionSet",
      "outputs": [
        {
          "name": "",
          "type": "bool"
        }
      ],
      "payable": false,
      "stateMutability": "view",
      "type": "function"
    },
    {
      "constant": false,
      "inputs": [
        {
          "name": "_address",
          "type": "address"
        }
      ],
      "name": "removeFactProviderFromWhitelist",
      "outputs": [],
      "payable": false,
      "stateMutability": "nonpayable",
      "type": "function"
    },
    {
      "constant": true,
      "inputs": [
        {
          "name": "",
          "type": "uint256"
        }
      ],
      "name": "privateDataExchanges",
      "outputs": [
        {
          "name": "dataRequester",
          "type": "address"
        },
        {
          "name": "dataRequesterValue",
          "type": "uint256"
        },
        {
          "name": "passportOwner",
          "type": "address"
        },
        {
          "name": "passportOwnerValue",
          "type": "uint256"
        },
        {
          "name": "factProvider",
          "type": "address"
        },
        {
          "name": "key",
          "type": "bytes32"
        },
        {
          "name": "dataIPFSHash",
          "type": "string"
        },
        {
          "name": "dataKeyHash",
          "type": "bytes32"
        },
        {
          "name": "encryptedExchangeKey",
          "type": "bytes"
        },
        {
          "name": "exchangeKeyHash",
          "type": "bytes32"
        },
        {
          "name": "encryptedDataKey",
          "type": "bytes32"
        },
        {
          "name": "state",
          "type": "uint8"
        },
        {
          "name": "stateExpired",
          "type": "uint256"
        }
      ],
      "payable": false,
      "stateMutability": "view",
      "type": "function"
    },
    {
      "constant": false,
      "inputs": [],
      "name": "renounceOwnership",
      "outputs": [],
      "payable": false,
      "stateMutability": "nonpayable",
      "type": "function"
    },
    {
      "constant": true,
      "inputs": [
        {
          "name": "_address",
          "type": "address"
        }
      ],
      "name": "isFactProviderInWhitelist",
      "outputs": [
        {
          "name": "",
          "type": "bool"
        }
      ],
      "payable": false,
      "stateMutability": "view",
      "type": "function"
    },
    {
      "constant": true,
      "inputs": [],
      "name": "owner",
      "outputs": [
        {
          "name": "",
          "type": "address"
        }
      ],
      "payable": false,
      "stateMutability": "view",
      "type": "function"
    },
    {
      "constant": false,
      "inputs": [
        {
          "name": "_address",
          "type": "address"
        }
      ],
      "name": "addFactProviderToWhitelist",
      "outputs": [],
      "payable": false,
      "stateMutability": "nonpayable",
      "type": "function"
    },
    {
      "constant": true,
      "inputs": [],
      "name": "openPrivateDataExchangesCount",
      "outputs": [
        {
          "name": "",
          "type": "uint256"
        }
      ],
      "payable": false,
      "stateMutability": "view",
      "type": "function"
    },
    {
      "constant": true,
      "inputs": [],
      "name": "pendingOwner",
      "outputs": [
        {
          "name": "",
          "type": "address"
        }
      ],
      "payable": false,
      "stateMutability": "view",
      "type": "function"
    },
    {
      "constant": false,
      "inputs": [
        {
          "name": "newOwner",
          "type": "address"
        }
      ],
      "name": "transferOwnership",
      "outputs": [],
      "payable": false,
      "stateMutability": "nonpayable",
      "type": "function"
    },
    {
      "anonymous": false,
      "inputs": [
        {
          "indexed": true,
          "name": "factProvider",
          "type": "address"
        },
        {
          "indexed": true,
          "name": "key",
          "type": "bytes32"
        }
      ],
      "name": "IPFSHashUpdated",
      "type": "event"
    },
    {
      "anonymous": false,
      "inputs": [
        {
          "indexed": true,
          "name": "factProvider",
          "type": "address"
        },
        {
          "indexed": true,
          "name": "key",
          "type": "bytes32"
        }
      ],
      "name": "IPFSHashDeleted",
      "type": "event"
    },
    {
      "anonymous": false,
      "inputs": [
        {
          "indexed": true,
          "name": "onlyWhitelist",
          "type": "bool"
        }
      ],
      "name": "WhitelistOnlyPermissionSet",
      "type": "event"
    },
    {
      "anonymous": false,
      "inputs": [
        {
          "indexed": true,
          "name": "factProvider",
          "type": "address"
        }
      ],
      "name": "WhitelistFactProviderAdded",
      "type": "event"
    },
    {
      "anonymous": false,
      "inputs": [
        {
          "indexed": true,
          "name": "factProvider",
          "type": "address"
        }
      ],
      "name": "WhitelistFactProviderRemoved",
      "type": "event"
    },
    {
      "anonymous": false,
      "inputs": [
        {
          "indexed": true,
          "name": "previousOwner",
          "type": "address"
        }
      ],
      "name": "OwnershipRenounced",
      "type": "event"
    },
    {
      "anonymous": false,
      "inputs": [
        {
          "indexed": true,
          "name": "previousOwner",
          "type": "address"
        },
        {
          "indexed": true,
          "name": "newOwner",
          "type": "address"
        }
      ],
      "name": "OwnershipTransferred",
      "type": "event"
    },
    {
      "constant": false,
      "inputs": [
        {
          "name": "_key",
          "type": "bytes32"
        },
        {
          "name": "_value",
          "type": "string"
        }
      ],
      "name": "setIPFSHash",
      "outputs": [],
      "payable": false,
      "stateMutability": "nonpayable",
      "type": "function"
    },
    {
      "constant": false,
      "inputs": [
        {
          "name": "_key",
          "type": "bytes32"
        }
      ],
      "name": "deleteIPFSHash",
      "outputs": [],
      "payable": false,
      "stateMutability": "nonpayable",
      "type": "function"
    },
    {
      "constant": true,
      "inputs": [
        {
          "name": "_factProvider",
          "type": "address"
        },
        {
          "name": "_key",
          "type": "bytes32"
        }
      ],
      "name": "getIPFSHash",
      "outputs": [
        {
          "name": "success",
          "type": "bool"
        },
        {
          "name": "value",
          "type": "string"
        }
      ],
      "payable": false,
      "stateMutability": "view",
      "type": "function"
    }
  ],
  "bytecode": "0x608060408190527f6f72672e6d6f6e657468612e70726f78792e6f776e6572000000000000000000905261003b3364010000000061009a810204565b604080517f6f72672e6d6f6e657468612e70726f78792e70656e64696e674f776e657200008152905190819003601e0190207fcfd0c6ea5352192d7d4c5d4e7a73c5da12c871730cb60ff57879cbe7b403bb521461009557fe5b6100be565b7f3ca57e4b51fc2e18497b219410298879868edada7e6fe5132c8feceb0a080d2255565b610ebf806100cd6000396000f3006080604052600436106100e55763ffffffff7c01000000000000000000000000000000000000000000000000000000006000350416632088815881146100ea57806322b96b631461011f578063257781e7146101c65780632b42a89a146101e05780634e71e0c8146101fa57806361a2d0761461020f5780636bfc8bb5146102245780636d4e7802146102485780636f618f9a14610269578063715018a6146104105780638ae44a08146104255780638da5cb5b14610446578063ac0aeb1a14610477578063caa95f1b14610498578063e30c3978146104bf578063f2fde38b146104d4575b600080fd5b3480156100f657600080fd5b5061010b600160a060020a03600435166104f5565b604080519115158252519081900360200190f35b34801561012b57600080fd5b50610143600160a060020a036004351660243561054b565b604051808315151515815260200180602001828103825283818151815260200191508051906020019080838360005b8381101561018a578181015183820152602001610172565b50505050905090810190601f1680156101b75780820380516001836020036101000a031916815260200191505b50935050505060405180910390f35b3480156101d257600080fd5b506101de600435610564565b005b3480156101ec57600080fd5b506101de6004351515610570565b34801561020657600080fd5b506101de6105c9565b34801561021b57600080fd5b5061010b6106c3565b34801561023057600080fd5b506101de6004803590602480359081019101356106cd565b34801561025457600080fd5b506101de600160a060020a036004351661070c565b34801561027557600080fd5b50610281600435610771565b604051808e600160a060020a0316600160a060020a031681526020018d81526020018c600160a060020a0316600160a060020a031681526020018b81526020018a600160a060020a0316600160a060020a031681526020018960001916600019168152602001806020018860001916600019168152602001806020018760001916600019168152602001866000191660001916815260200185600281111561032557fe5b60ff16815260200184815260200183810383528a818151815260200191508051906020019080838360005b83811015610368578181015183820152602001610350565b50505050905090810190601f1680156103955780820380516001836020036101000a031916815260200191505b5083810382528851815288516020918201918a019080838360005b838110156103c85781810151838201526020016103b0565b50505050905090810190601f1680156103f55780820380516001836020036101000a031916815260200191505b509f5050505050505050505050505050505060405180910390f35b34801561041c57600080fd5b506101de610911565b34801561043157600080fd5b5061010b600160a060020a03600435166109e8565b34801561045257600080fd5b5061045b610a06565b60408051600160a060020a039092168252519081900360200190f35b34801561048357600080fd5b506101de600160a060020a0360043516610a15565b3480156104a457600080fd5b506104ad610a7d565b60408051918252519081900360200190f35b3480156104cb57600080fd5b5061045b610a83565b3480156104e057600080fd5b506101de600160a060020a0360043516610a8d565b60075460009060ff1615806105225750600160a060020a03821660009081526008602052604090205460ff165b806105455750610530610b26565b600160a060020a031682600160a060020a0316145b92915050565b600060606105598484610b4b565b915091509250929050565b61056d81610c15565b50565b610578610b26565b600160a060020a0316331461058c57600080fd5b6007805460ff19168215159081179091556040517f6e1eb3fa845047cf9d5fd1deb1b7770b4e26163dd4d88cefb14fe7964a70059590600090a250565b6105d1610c8b565b600160a060020a031633146105e557600080fd5b6105ed610cb0565b1561065957604080517f08c379a000000000000000000000000000000000000000000000000000000000815260206004820152601d60248201527f636f6e74726163742073686f756c64206e6f7420626520706175736564000000604482015290519081900360640190fd5b610661610c8b565b600160a060020a0316610672610b26565b600160a060020a03167f8be0079c531659141344cd1fd0a4f28419497f9722a3daafe3b4186f6b6457e060405160405180910390a36106b76106b2610c8b565b610cd5565b6106c16000610cf9565b565b60075460ff165b90565b6107078383838080601f01602080910402602001604051908101604052809392919081815260200183838082843750610d1d945050505050565b505050565b610714610b26565b600160a060020a0316331461072857600080fd5b600160a060020a038116600081815260086020526040808220805460ff19169055517f5bf47f016603dfff957e6086bd9a350212686e8f1d9208b3db47c5a3107c78789190a250565b600c80548290811061077f57fe5b6000918252602091829020600d90910201805460018083015460028085015460038601546004870154600588015460068901805460408051601f6000199b841615610100029b909b01909216979097049889018c90048c0281018c01909652878652600160a060020a039889169b509599938816989297919091169590949193928301828280156108515780601f1061082657610100808354040283529160200191610851565b820191906000526020600020905b81548152906001019060200180831161083457829003601f168201915b50505050600783015460088401805460408051602060026001851615610100026000190190941693909304601f810184900484028201840190925281815295969395939450908301828280156108e85780601f106108bd576101008083540402835291602001916108e8565b820191906000526020600020905b8154815290600101906020018083116108cb57829003601f168201915b5050506009840154600a850154600b860154600c909601549495919490935060ff90911691508d565b610919610b26565b600160a060020a0316331461092d57600080fd5b610935610cb0565b156109a157604080517f08c379a000000000000000000000000000000000000000000000000000000000815260206004820152601d60248201527f636f6e74726163742073686f756c64206e6f7420626520706175736564000000604482015290519081900360640190fd5b6109a9610b26565b600160a060020a03167ff8df31144d9c2f0f6b59d69b8b98abd5459d07f2742c4df920b25aae33c6482060405160405180910390a26106c16000610cd5565b600160a060020a031660009081526008602052604090205460ff1690565b6000610a10610b26565b905090565b610a1d610b26565b600160a060020a03163314610a3157600080fd5b600160a060020a038116600081815260086020526040808220805460ff19166001179055517fff8ac5f0e9cdc8f7ffbbc29ab1301ee649cf01cf7a6a9265a2d90587612c41759190a250565b600b5481565b6000610a10610c8b565b610a95610b26565b600160a060020a03163314610aa957600080fd5b610ab1610cb0565b15610b1d57604080517f08c379a000000000000000000000000000000000000000000000000000000000815260206004820152601d60248201527f636f6e74726163742073686f756c64206e6f7420626520706175736564000000604482015290519081900360640190fd5b61056d81610cf9565b7f3ca57e4b51fc2e18497b219410298879868edada7e6fe5132c8feceb0a080d225490565b600160a060020a038216600090815260096020908152604080832084845282528083208054600180830180548551601f600294831615610100026000190190921693909304908101879004870283018701909552848252606095939460ff9093169390928391830182828015610c025780601f10610bd757610100808354040283529160200191610c02565b820191906000526020600020905b815481529060010190602001808311610be557829003601f168201915b5050505050905092509250509250929050565b610c1e336104f5565b1515610c2957600080fd5b3360009081526009602090815260408083208484529091528120805460ff1916815590610c596001830182610db7565b5050604051819033907f140278d2322b9671bf293aea878e7717c46d5b7cd955e3e426ee67e01b90165490600090a350565b7fcfd0c6ea5352192d7d4c5d4e7a73c5da12c871730cb60ff57879cbe7b403bb525490565b7f9e7945c55c116aa3404b99fe56db7af9613d3b899554a437c2616a4749a94d8a5490565b7f3ca57e4b51fc2e18497b219410298879868edada7e6fe5132c8feceb0a080d2255565b7fcfd0c6ea5352192d7d4c5d4e7a73c5da12c871730cb60ff57879cbe7b403bb5255565b610d26336104f5565b1515610d3157600080fd5b60408051808201825260018082526020808301858152336000908152600983528581208882528352949094208351815460ff191690151517815593518051939493610d83938501929190910190610dfb565b505060405183915033907fdb23beee028623a85d5af1d247423ca471d20e499b131cd5e5c76277eaa2ad5b90600090a35050565b50805460018160011615610100020316600290046000825580601f10610ddd575061056d565b601f01602090049060005260206000209081019061056d9190610e79565b828054600181600116156101000203166002900490600052602060002090601f016020900481019282601f10610e3c57805160ff1916838001178555610e69565b82800160010185558215610e69579182015b82811115610e69578251825591602001919060010190610e4e565b50610e75929150610e79565b5090565b6106ca91905b80821115610e755760008155600101610e7f5600a165627a7a723058203f8559c5a19e18d6c5d8421d853f7a582aa99fab4274dd9afee99b12e61fef3b0029",
  "source": "pragma solidity ^0.4.24;\n\nimport \"./Storage.sol\";\n\ncontract IPFSStorageLogic is Storage {\n    event IPFSHashUpdated(address indexed factProvider, bytes32 indexed key);\n    event IPFSHashDeleted(address indexed factProvider, bytes32 indexed key);\n\n    /// @param _key The key for the record\n    /// @param _value The value for the record\n    function setIPFSHash(bytes32 _key, string _value) external {\n        _setIPFSHash(_key, _value);\n    }\n\n    /// @param _key The key for the record\n    function deleteIPFSHash(bytes32 _key) external {\n        _deleteIPFSHash(_key);\n    }\n\n    /// @param _factProvider The fact provider\n    /// @param _key The key for the record\n    function getIPFSHash(address _factProvider, bytes32 _key) external view returns (bool success, string value) {\n        return _getIPFSHash(_factProvider, _key);\n    }\n\n    function _setIPFSHash(bytes32 _key, string _value) allowedFactProvider internal {\n        ipfsHashStorage[msg.sender][_key] = IPFSHashValue({\n            initialized : true,\n            value : _value\n            });\n        emit IPFSHashUpdated(msg.sender, _key);\n    }\n\n    function _deleteIPFSHash(bytes32 _key) allowedFactProvider internal {\n        delete ipfsHashStorage[msg.sender][_key];\n        emit IPFSHashDeleted(msg.sender, _key);\n    }\n\n    function _getIPFSHash(address _factProvider, bytes32 _key) internal view returns (bool success, string value) {\n        IPFSHashValue storage initValue = ipfsHashStorage[_factProvider][_key];\n        return (initValue.initialized, initValue.value);\n    }\n}",
  "sourcePath": "C:\\src\\monetha\\reputation-js-sdk-example\\deployer\\tmp\\contracts\\storage\\IPFSStorageLogic.sol",
  "compiler": {
    "name": "solc",
    "version": "0.4.24+commit.e67f0147.Emscripten.clang"
  },
  "schemaVersion": "2.0.1",
  "updatedAt": "2019-10-29T13:00:35.392Z"
}