{
  "contractName": "Passport",
  "abi": [
    {
      "constant": false,
      "inputs": [],
      "name": "claimOwnership",
      "outputs": [],
      "payable": false,
      "stateMutability": "nonpayable",
      "type": "function"
    },
    {
      "constant": false,
      "inputs": [],
      "name": "renounceOwnership",
      "outputs": [],
      "payable": false,
      "stateMutability": "nonpayable",
      "type": "function"
    },
    {
      "constant": false,
      "inputs": [],
      "name": "destroy",
      "outputs": [],
      "payable": false,
      "stateMutability": "nonpayable",
      "type": "function"
    },
    {
      "constant": true,
      "inputs": [],
      "name": "owner",
      "outputs": [
        {
          "name": "",
          "type": "address"
        }
      ],
      "payable": false,
      "stateMutability": "view",
      "type": "function"
    },
    {
      "constant": true,
      "inputs": [],
      "name": "pendingOwner",
      "outputs": [
        {
          "name": "",
          "type": "address"
        }
      ],
      "payable": false,
      "stateMutability": "view",
      "type": "function"
    },
    {
      "constant": false,
      "inputs": [
        {
          "name": "newOwner",
          "type": "address"
        }
      ],
      "name": "transferOwnership",
      "outputs": [],
      "payable": false,
      "stateMutability": "nonpayable",
      "type": "function"
    },
    {
      "constant": false,
      "inputs": [
        {
          "name": "_recipient",
          "type": "address"
        }
      ],
      "name": "destroyAndSend",
      "outputs": [],
      "payable": false,
      "stateMutability": "nonpayable",
      "type": "function"
    },
    {
      "inputs": [
        {
          "name": "_registry",
          "type": "address"
        }
      ],
      "payable": false,
      "stateMutability": "nonpayable",
      "type": "constructor"
    },
    {
      "payable": true,
      "stateMutability": "payable",
      "type": "fallback"
    },
    {
      "anonymous": false,
      "inputs": [
        {
          "indexed": true,
          "name": "previousRegistry",
          "type": "address"
        },
        {
          "indexed": true,
          "name": "newRegistry",
          "type": "address"
        }
      ],
      "name": "PassportLogicRegistryChanged",
      "type": "event"
    },
    {
      "anonymous": false,
      "inputs": [
        {
          "indexed": true,
          "name": "previousOwner",
          "type": "address"
        }
      ],
      "name": "OwnershipRenounced",
      "type": "event"
    },
    {
      "anonymous": false,
      "inputs": [
        {
          "indexed": true,
          "name": "previousOwner",
          "type": "address"
        },
        {
          "indexed": true,
          "name": "newOwner",
          "type": "address"
        }
      ],
      "name": "OwnershipTransferred",
      "type": "event"
    },
    {
      "constant": true,
      "inputs": [],
      "name": "getPassportLogicRegistry",
      "outputs": [
        {
          "name": "",
          "type": "address"
        }
      ],
      "payable": false,
      "stateMutability": "view",
      "type": "function"
    }
  ],
  "bytecode": "0x608060405234801561001057600080fd5b5060405160208061092283398101604081815291517f6f72672e6d6f6e657468612e70726f78792e7061757365640000000000000000825291519081900360180190207f9e7945c55c116aa3404b99fe56db7af9613d3b899554a437c2616a4749a94d8a1461007b57fe5b604080517f6f72672e6d6f6e657468612e70726f78792e6f776e6572000000000000000000815290519081900360170190206000805160206108e2833981519152146100c357fe5b6100d5336401000000006101b5810204565b604080517f6f72672e6d6f6e657468612e70726f78792e70656e64696e674f776e657200008152905190819003601e0190207fcfd0c6ea5352192d7d4c5d4e7a73c5da12c871730cb60ff57879cbe7b403bb521461012f57fe5b604080517f6f72672e6d6f6e657468612e70617373706f72742e70726f78792e726567697381527f7472790000000000000000000000000000000000000000000000000000000000602082015290519081900360230190206000805160206109028339815191521461019d57fe5b6101af816401000000006101c7810204565b50610279565b6000805160206108e283398151915255565b6000600160a060020a038216151561026657604080517f08c379a000000000000000000000000000000000000000000000000000000000815260206004820152602560248201527f43616e6e6f742073657420726567697374727920746f2061207a65726f20616460448201527f6472657373000000000000000000000000000000000000000000000000000000606482015290519081900360840190fd5b5060008051602061090283398151915255565b61065a806102886000396000f30060806040526004361061008d5763ffffffff7c01000000000000000000000000000000000000000000000000000000006000350416634e71e0c8811461009f578063715018a6146100b457806383197ef0146100c957806386d5c5f9146100de5780638da5cb5b1461010f578063e30c397814610124578063f2fde38b14610139578063f5074f411461015a575b61009d61009861017b565b61020c565b005b3480156100ab57600080fd5b5061009d610230565b3480156100c057600080fd5b5061009d610301565b3480156100d557600080fd5b5061009d6103af565b3480156100ea57600080fd5b506100f3610429565b60408051600160a060020a039092168252519081900360200190f35b34801561011b57600080fd5b506100f3610438565b34801561013057600080fd5b506100f3610442565b34801561014557600080fd5b5061009d600160a060020a036004351661044c565b34801561016657600080fd5b5061009d600160a060020a03600435166104bf565b6000610185610532565b600160a060020a031663609725ef6040518163ffffffff167c0100000000000000000000000000000000000000000000000000000000028152600401602060405180830381600087803b1580156101db57600080fd5b505af11580156101ef573d6000803e3d6000fd5b505050506040513d602081101561020557600080fd5b5051905090565b3660008037600080366000845af43d6000803e80801561022b573d6000f35b3d6000fd5b610238610557565b600160a060020a0316331461024c57600080fd5b61025461057c565b15610297576040805160e560020a62461bcd02815260206004820152601d602482015260008051602061060f833981519152604482015290519081900360640190fd5b61029f610557565b600160a060020a03166102b06105a1565b600160a060020a03167f8be0079c531659141344cd1fd0a4f28419497f9722a3daafe3b4186f6b6457e060405160405180910390a36102f56102f0610557565b6105c6565b6102ff60006105ea565b565b6103096105a1565b600160a060020a0316331461031d57600080fd5b61032561057c565b15610368576040805160e560020a62461bcd02815260206004820152601d602482015260008051602061060f833981519152604482015290519081900360640190fd5b6103706105a1565b600160a060020a03167ff8df31144d9c2f0f6b59d69b8b98abd5459d07f2742c4df920b25aae33c6482060405160405180910390a26102ff60006105c6565b6103b76105a1565b600160a060020a031633146103cb57600080fd5b6103d361057c565b15610416576040805160e560020a62461bcd02815260206004820152601d602482015260008051602061060f833981519152604482015290519081900360640190fd5b61041e6105a1565b600160a060020a0316ff5b6000610433610532565b905090565b60006104336105a1565b6000610433610557565b6104546105a1565b600160a060020a0316331461046857600080fd5b61047061057c565b156104b3576040805160e560020a62461bcd02815260206004820152601d602482015260008051602061060f833981519152604482015290519081900360640190fd5b6104bc816105ea565b50565b6104c76105a1565b600160a060020a031633146104db57600080fd5b6104e361057c565b15610526576040805160e560020a62461bcd02815260206004820152601d602482015260008051602061060f833981519152604482015290519081900360640190fd5b80600160a060020a0316ff5b7fa04bab69e45aeb4c94a78ba5bc1be67ef28977c4fdf815a30b829a794eb67a4a5490565b7fcfd0c6ea5352192d7d4c5d4e7a73c5da12c871730cb60ff57879cbe7b403bb525490565b7f9e7945c55c116aa3404b99fe56db7af9613d3b899554a437c2616a4749a94d8a5490565b7f3ca57e4b51fc2e18497b219410298879868edada7e6fe5132c8feceb0a080d225490565b7f3ca57e4b51fc2e18497b219410298879868edada7e6fe5132c8feceb0a080d2255565b7fcfd0c6ea5352192d7d4c5d4e7a73c5da12c871730cb60ff57879cbe7b403bb52555600636f6e74726163742073686f756c64206e6f7420626520706175736564000000a165627a7a723058205e30f642df8a1bf73a79f280f1eb2c6e93efe1a65cdaf51480704059d3bea1a900293ca57e4b51fc2e18497b219410298879868edada7e6fe5132c8feceb0a080d22a04bab69e45aeb4c94a78ba5bc1be67ef28977c4fdf815a30b829a794eb67a4a",
  "source": "pragma solidity ^0.4.24;\n\nimport \"./ownership/ClaimableProxy.sol\";\nimport \"./lifecycle/DestructibleProxy.sol\";\nimport \"./IPassportLogicRegistry.sol\";\nimport \"./upgradeability/Proxy.sol\";\n\n/**\n * @title Passport\n */\ncontract Passport is Proxy, ClaimableProxy, DestructibleProxy {\n\n    event PassportLogicRegistryChanged(\n        address indexed previousRegistry,\n        address indexed newRegistry\n    );\n\n    /**\n     * @dev Storage slot with the address of the current registry of the passport implementations.\n     * This is the keccak-256 hash of \"org.monetha.passport.proxy.registry\", and is\n     * validated in the constructor.\n     */\n    bytes32 private constant REGISTRY_SLOT = 0xa04bab69e45aeb4c94a78ba5bc1be67ef28977c4fdf815a30b829a794eb67a4a;\n\n    /**\n     * @dev Contract constructor.\n     * @param _registry Address of the passport implementations registry.\n     */\n    constructor(IPassportLogicRegistry _registry) public {\n        assert(REGISTRY_SLOT == keccak256(\"org.monetha.passport.proxy.registry\"));\n\n        _setRegistry(_registry);\n    }\n\n    /**\n     * @return the address of passport logic registry.\n     */\n    function getPassportLogicRegistry() public view returns (address) {\n        return _getRegistry();\n    }\n\n    /**\n     * @dev Returns the current passport logic implementation (used in Proxy fallback function to delegate call\n     * to passport logic implementation).\n     * @return Address of the current passport implementation\n     */\n    function _implementation() internal view returns (address) {\n        return _getRegistry().getCurrentPassportLogic();\n    }\n\n    /**\n     * @dev Returns the current passport implementations registry.\n     * @return Address of the current implementation\n     */\n    function _getRegistry() internal view returns (IPassportLogicRegistry reg) {\n        bytes32 slot = REGISTRY_SLOT;\n        assembly {\n            reg := sload(slot)\n        }\n    }\n\n    function _setRegistry(IPassportLogicRegistry _registry) internal {\n        require(address(_registry) != 0x0, \"Cannot set registry to a zero address\");\n\n        bytes32 slot = REGISTRY_SLOT;\n        assembly {\n            sstore(slot, _registry)\n        }\n    }\n}",
  "sourcePath": "C:\\src\\monetha\\reputation-js-sdk-example\\deployer\\tmp\\contracts\\Passport.sol",
  "compiler": {
    "name": "solc",
    "version": "0.4.24+commit.e67f0147.Emscripten.clang"
  },
  "schemaVersion": "2.0.1",
  "updatedAt": "2019-10-29T13:00:35.380Z"
}