{
  "contractName": "PassportLogic",
  "abi": [
    {
      "constant": false,
      "inputs": [
        {
          "name": "_exchangeIdx",
          "type": "uint256"
        }
      ],
      "name": "finishPrivateDataExchange",
      "outputs": [],
      "payable": false,
      "stateMutability": "nonpayable",
      "type": "function"
    },
    {
      "constant": false,
      "inputs": [
        {
          "name": "_exchangeIdx",
          "type": "uint256"
        }
      ],
      "name": "timeoutPrivateDataExchange",
      "outputs": [],
      "payable": false,
      "stateMutability": "nonpayable",
      "type": "function"
    },
    {
      "constant": true,
      "inputs": [],
      "name": "privateDataExchangeAcceptTimeout",
      "outputs": [
        {
          "name": "",
          "type": "uint256"
        }
      ],
      "payable": false,
      "stateMutability": "view",
      "type": "function"
    },
    {
      "constant": false,
      "inputs": [
        {
          "name": "_key",
          "type": "bytes32"
        }
      ],
      "name": "deleteAddress",
      "outputs": [],
      "payable": false,
      "stateMutability": "nonpayable",
      "type": "function"
    },
    {
      "constant": true,
      "inputs": [
        {
          "name": "_factProvider",
          "type": "address"
        },
        {
          "name": "_key",
          "type": "bytes32"
        }
      ],
      "name": "getTxDataBlockNumber",
      "outputs": [
        {
          "name": "success",
          "type": "bool"
        },
        {
          "name": "blockNumber",
          "type": "uint256"
        }
      ],
      "payable": false,
      "stateMutability": "view",
      "type": "function"
    },
    {
      "constant": true,
      "inputs": [
        {
          "name": "_address",
          "type": "address"
        }
      ],
      "name": "isAllowedFactProvider",
      "outputs": [
        {
          "name": "",
          "type": "bool"
        }
      ],
      "payable": false,
      "stateMutability": "view",
      "type": "function"
    },
    {
      "constant": true,
      "inputs": [
        {
          "name": "_factProvider",
          "type": "address"
        },
        {
          "name": "_key",
          "type": "bytes32"
        }
      ],
      "name": "getIPFSHash",
      "outputs": [
        {
          "name": "success",
          "type": "bool"
        },
        {
          "name": "value",
          "type": "string"
        }
      ],
      "payable": false,
      "stateMutability": "view",
      "type": "function"
    },
    {
      "constant": false,
      "inputs": [
        {
          "name": "_key",
          "type": "bytes32"
        }
      ],
      "name": "deleteIPFSHash",
      "outputs": [],
      "payable": false,
      "stateMutability": "nonpayable",
      "type": "function"
    },
    {
      "constant": false,
      "inputs": [
        {
          "name": "_onlyWhitelist",
          "type": "bool"
        }
      ],
      "name": "setWhitelistOnlyPermission",
      "outputs": [],
      "payable": false,
      "stateMutability": "nonpayable",
      "type": "function"
    },
    {
      "constant": false,
      "inputs": [
        {
          "name": "_key",
          "type": "bytes32"
        }
      ],
      "name": "deleteBool",
      "outputs": [],
      "payable": false,
      "stateMutability": "nonpayable",
      "type": "function"
    },
    {
      "constant": true,
      "inputs": [
        {
          "name": "_factProvider",
          "type": "address"
        },
        {
          "name": "_key",
          "type": "bytes32"
        }
      ],
      "name": "getPrivateDataHashes",
      "outputs": [
        {
          "name": "success",
          "type": "bool"
        },
        {
          "name": "dataIPFSHash",
          "type": "string"
        },
        {
          "name": "dataKeyHash",
          "type": "bytes32"
        }
      ],
      "payable": false,
      "stateMutability": "view",
      "type": "function"
    },
    {
      "constant": false,
      "inputs": [
        {
          "name": "_key",
          "type": "bytes32"
        },
        {
          "name": "_value",
          "type": "bytes"
        }
      ],
      "name": "setBytes",
      "outputs": [],
      "payable": false,
      "stateMutability": "nonpayable",
      "type": "function"
    },
    {
      "constant": false,
      "inputs": [
        {
          "name": "_key",
          "type": "bytes32"
        },
        {
          "name": "_value",
          "type": "int256"
        }
      ],
      "name": "setInt",
      "outputs": [],
      "payable": false,
      "stateMutability": "nonpayable",
      "type": "function"
    },
    {
      "constant": false,
      "inputs": [],
      "name": "claimOwnership",
      "outputs": [],
      "payable": false,
      "stateMutability": "nonpayable",
      "type": "function"
    },
    {
      "constant": false,
      "inputs": [
        {
          "name": "_key",
          "type": "bytes32"
        },
        {
          "name": "_data",
          "type": "bytes"
        }
      ],
      "name": "setTxDataBlockNumber",
      "outputs": [],
      "payable": false,
      "stateMutability": "nonpayable",
      "type": "function"
    },
    {
      "constant": false,
      "inputs": [
        {
          "name": "_key",
          "type": "bytes32"
        }
      ],
      "name": "deleteBytes",
      "outputs": [],
      "payable": false,
      "stateMutability": "nonpayable",
      "type": "function"
    },
    {
      "constant": true,
      "inputs": [],
      "name": "isWhitelistOnlyPermissionSet",
      "outputs": [
        {
          "name": "",
          "type": "bool"
        }
      ],
      "payable": false,
      "stateMutability": "view",
      "type": "function"
    },
    {
      "constant": false,
      "inputs": [
        {
          "name": "_key",
          "type": "bytes32"
        }
      ],
      "name": "deletePrivateDataHashes",
      "outputs": [],
      "payable": false,
      "stateMutability": "nonpayable",
      "type": "function"
    },
    {
      "constant": true,
      "inputs": [
        {
          "name": "_factProvider",
          "type": "address"
        },
        {
          "name": "_key",
          "type": "bytes32"
        }
      ],
      "name": "getBytes",
      "outputs": [
        {
          "name": "success",
          "type": "bool"
        },
        {
          "name": "value",
          "type": "bytes"
        }
      ],
      "payable": false,
      "stateMutability": "view",
      "type": "function"
    },
    {
      "constant": false,
      "inputs": [
        {
          "name": "_key",
          "type": "bytes32"
        },
        {
          "name": "_value",
          "type": "string"
        }
      ],
      "name": "setIPFSHash",
      "outputs": [],
      "payable": false,
      "stateMutability": "nonpayable",
      "type": "function"
    },
    {
      "constant": false,
      "inputs": [
        {
          "name": "_address",
          "type": "address"
        }
      ],
      "name": "removeFactProviderFromWhitelist",
      "outputs": [],
      "payable": false,
      "stateMutability": "nonpayable",
      "type": "function"
    },
    {
      "constant": false,
      "inputs": [
        {
          "name": "_key",
          "type": "bytes32"
        },
        {
          "name": "_value",
          "type": "string"
        }
      ],
      "name": "setString",
      "outputs": [],
      "payable": false,
      "stateMutability": "nonpayable",
      "type": "function"
    },
    {
      "constant": true,
      "inputs": [
        {
          "name": "",
          "type": "uint256"
        }
      ],
      "name": "privateDataExchanges",
      "outputs": [
        {
          "name": "dataRequester",
          "type": "address"
        },
        {
          "name": "dataRequesterValue",
          "type": "uint256"
        },
        {
          "name": "passportOwner",
          "type": "address"
        },
        {
          "name": "passportOwnerValue",
          "type": "uint256"
        },
        {
          "name": "factProvider",
          "type": "address"
        },
        {
          "name": "key",
          "type": "bytes32"
        },
        {
          "name": "dataIPFSHash",
          "type": "string"
        },
        {
          "name": "dataKeyHash",
          "type": "bytes32"
        },
        {
          "name": "encryptedExchangeKey",
          "type": "bytes"
        },
        {
          "name": "exchangeKeyHash",
          "type": "bytes32"
        },
        {
          "name": "encryptedDataKey",
          "type": "bytes32"
        },
        {
          "name": "state",
          "type": "uint8"
        },
        {
          "name": "stateExpired",
          "type": "uint256"
        }
      ],
      "payable": false,
      "stateMutability": "view",
      "type": "function"
    },
    {
      "constant": false,
      "inputs": [],
      "name": "renounceOwnership",
      "outputs": [],
      "payable": false,
      "stateMutability": "nonpayable",
      "type": "function"
    },
    {
      "constant": true,
      "inputs": [
        {
          "name": "_factProvider",
          "type": "address"
        },
        {
          "name": "_key",
          "type": "bytes32"
        }
      ],
      "name": "getUint",
      "outputs": [
        {
          "name": "success",
          "type": "bool"
        },
        {
          "name": "value",
          "type": "uint256"
        }
      ],
      "payable": false,
      "stateMutability": "view",
      "type": "function"
    },
    {
      "constant": true,
      "inputs": [
        {
          "name": "_factProvider",
          "type": "address"
        },
        {
          "name": "_key",
          "type": "bytes32"
        }
      ],
      "name": "getAddress",
      "outputs": [
        {
          "name": "success",
          "type": "bool"
        },
        {
          "name": "value",
          "type": "address"
        }
      ],
      "payable": false,
      "stateMutability": "view",
      "type": "function"
    },
    {
      "constant": true,
      "inputs": [],
      "name": "getPrivateDataExchangesCount",
      "outputs": [
        {
          "name": "count",
          "type": "uint256"
        }
      ],
      "payable": false,
      "stateMutability": "view",
      "type": "function"
    },
    {
      "constant": false,
      "inputs": [
        {
          "name": "_exchangeIdx",
          "type": "uint256"
        },
        {
          "name": "_encryptedDataKey",
          "type": "bytes32"
        }
      ],
      "name": "acceptPrivateDataExchange",
      "outputs": [],
      "payable": true,
      "stateMutability": "payable",
      "type": "function"
    },
    {
      "constant": true,
      "inputs": [
        {
          "name": "_address",
          "type": "address"
        }
      ],
      "name": "isFactProviderInWhitelist",
      "outputs": [
        {
          "name": "",
          "type": "bool"
        }
      ],
      "payable": false,
      "stateMutability": "view",
      "type": "function"
    },
    {
      "constant": false,
      "inputs": [
        {
          "name": "_key",
          "type": "bytes32"
        }
      ],
      "name": "deleteInt",
      "outputs": [],
      "payable": false,
      "stateMutability": "nonpayable",
      "type": "function"
    },
    {
      "constant": true,
      "inputs": [],
      "name": "owner",
      "outputs": [
        {
          "name": "",
          "type": "address"
        }
      ],
      "payable": false,
      "stateMutability": "view",
      "type": "function"
    },
    {
      "constant": true,
      "inputs": [
        {
          "name": "_factProvider",
          "type": "address"
        },
        {
          "name": "_key",
          "type": "bytes32"
        }
      ],
      "name": "getInt",
      "outputs": [
        {
          "name": "success",
          "type": "bool"
        },
        {
          "name": "value",
          "type": "int256"
        }
      ],
      "payable": false,
      "stateMutability": "view",
      "type": "function"
    },
    {
      "constant": true,
      "inputs": [
        {
          "name": "_factProvider",
          "type": "address"
        },
        {
          "name": "_key",
          "type": "bytes32"
        }
      ],
      "name": "getBool",
      "outputs": [
        {
          "name": "success",
          "type": "bool"
        },
        {
          "name": "value",
          "type": "bool"
        }
      ],
      "payable": false,
      "stateMutability": "view",
      "type": "function"
    },
    {
      "constant": false,
      "inputs": [
        {
          "name": "_key",
          "type": "bytes32"
        }
      ],
      "name": "deleteTxDataBlockNumber",
      "outputs": [],
      "payable": false,
      "stateMutability": "nonpayable",
      "type": "function"
    },
    {
      "constant": true,
      "inputs": [],
      "name": "privateDataExchangeProposeTimeout",
      "outputs": [
        {
          "name": "",
          "type": "uint256"
        }
      ],
      "payable": false,
      "stateMutability": "view",
      "type": "function"
    },
    {
      "constant": false,
      "inputs": [
        {
          "name": "_key",
          "type": "bytes32"
        },
        {
          "name": "_value",
          "type": "bool"
        }
      ],
      "name": "setBool",
      "outputs": [],
      "payable": false,
      "stateMutability": "nonpayable",
      "type": "function"
    },
    {
      "constant": false,
      "inputs": [
        {
          "name": "_address",
          "type": "address"
        }
      ],
      "name": "addFactProviderToWhitelist",
      "outputs": [],
      "payable": false,
      "stateMutability": "nonpayable",
      "type": "function"
    },
    {
      "constant": false,
      "inputs": [
        {
          "name": "_key",
          "type": "bytes32"
        },
        {
          "name": "_value",
          "type": "address"
        }
      ],
      "name": "setAddress",
      "outputs": [],
      "payable": false,
      "stateMutability": "nonpayable",
      "type": "function"
    },
    {
      "constant": true,
      "inputs": [],
      "name": "openPrivateDataExchangesCount",
      "outputs": [
        {
          "name": "",
          "type": "uint256"
        }
      ],
      "payable": false,
      "stateMutability": "view",
      "type": "function"
    },
    {
      "constant": false,
      "inputs": [
        {
          "name": "_factProvider",
          "type": "address"
        },
        {
          "name": "_key",
          "type": "bytes32"
        },
        {
          "name": "_encryptedExchangeKey",
          "type": "bytes"
        },
        {
          "name": "_exchangeKeyHash",
          "type": "bytes32"
        }
      ],
      "name": "proposePrivateDataExchange",
      "outputs": [],
      "payable": true,
      "stateMutability": "payable",
      "type": "function"
    },
    {
      "constant": false,
      "inputs": [
        {
          "name": "_key",
          "type": "bytes32"
        },
        {
          "name": "_value",
          "type": "uint256"
        }
      ],
      "name": "setUint",
      "outputs": [],
      "payable": false,
      "stateMutability": "nonpayable",
      "type": "function"
    },
    {
      "constant": false,
      "inputs": [
        {
          "name": "_key",
          "type": "bytes32"
        }
      ],
      "name": "deleteUint",
      "outputs": [],
      "payable": false,
      "stateMutability": "nonpayable",
      "type": "function"
    },
    {
      "constant": true,
      "inputs": [],
      "name": "pendingOwner",
      "outputs": [
        {
          "name": "",
          "type": "address"
        }
      ],
      "payable": false,
      "stateMutability": "view",
      "type": "function"
    },
    {
      "constant": true,
      "inputs": [
        {
          "name": "_factProvider",
          "type": "address"
        },
        {
          "name": "_key",
          "type": "bytes32"
        }
      ],
      "name": "getString",
      "outputs": [
        {
          "name": "success",
          "type": "bool"
        },
        {
          "name": "value",
          "type": "string"
        }
      ],
      "payable": false,
      "stateMutability": "view",
      "type": "function"
    },
    {
      "constant": false,
      "inputs": [
        {
          "name": "_key",
          "type": "bytes32"
        },
        {
          "name": "_dataIPFSHash",
          "type": "string"
        },
        {
          "name": "_dataKeyHash",
          "type": "bytes32"
        }
      ],
      "name": "setPrivateDataHashes",
      "outputs": [],
      "payable": false,
      "stateMutability": "nonpayable",
      "type": "function"
    },
    {
      "constant": false,
      "inputs": [
        {
          "name": "newOwner",
          "type": "address"
        }
      ],
      "name": "transferOwnership",
      "outputs": [],
      "payable": false,
      "stateMutability": "nonpayable",
      "type": "function"
    },
    {
      "constant": false,
      "inputs": [
        {
          "name": "_key",
          "type": "bytes32"
        }
      ],
      "name": "deleteString",
      "outputs": [],
      "payable": false,
      "stateMutability": "nonpayable",
      "type": "function"
    },
    {
      "constant": false,
      "inputs": [
        {
          "name": "_exchangeIdx",
          "type": "uint256"
        },
        {
          "name": "_exchangeKey",
          "type": "bytes32"
        }
      ],
      "name": "disputePrivateDataExchange",
      "outputs": [],
      "payable": false,
      "stateMutability": "nonpayable",
      "type": "function"
    },
    {
      "anonymous": false,
      "inputs": [
        {
          "indexed": true,
          "name": "factProvider",
          "type": "address"
        },
        {
          "indexed": true,
          "name": "key",
          "type": "bytes32"
        }
      ],
      "name": "PrivateDataHashesUpdated",
      "type": "event"
    },
    {
      "anonymous": false,
      "inputs": [
        {
          "indexed": true,
          "name": "factProvider",
          "type": "address"
        },
        {
          "indexed": true,
          "name": "key",
          "type": "bytes32"
        }
      ],
      "name": "PrivateDataHashesDeleted",
      "type": "event"
    },
    {
      "anonymous": false,
      "inputs": [
        {
          "indexed": true,
          "name": "exchangeIdx",
          "type": "uint256"
        },
        {
          "indexed": true,
          "name": "dataRequester",
          "type": "address"
        },
        {
          "indexed": true,
          "name": "passportOwner",
          "type": "address"
        }
      ],
      "name": "PrivateDataExchangeProposed",
      "type": "event"
    },
    {
      "anonymous": false,
      "inputs": [
        {
          "indexed": true,
          "name": "exchangeIdx",
          "type": "uint256"
        },
        {
          "indexed": true,
          "name": "dataRequester",
          "type": "address"
        },
        {
          "indexed": true,
          "name": "passportOwner",
          "type": "address"
        }
      ],
      "name": "PrivateDataExchangeAccepted",
      "type": "event"
    },
    {
      "anonymous": false,
      "inputs": [
        {
          "indexed": true,
          "name": "exchangeIdx",
          "type": "uint256"
        }
      ],
      "name": "PrivateDataExchangeClosed",
      "type": "event"
    },
    {
      "anonymous": false,
      "inputs": [
        {
          "indexed": true,
          "name": "exchangeIdx",
          "type": "uint256"
        },
        {
          "indexed": true,
          "name": "successful",
          "type": "bool"
        },
        {
          "indexed": true,
          "name": "cheater",
          "type": "address"
        }
      ],
      "name": "PrivateDataExchangeDisputed",
      "type": "event"
    },
    {
      "anonymous": false,
      "inputs": [
        {
          "indexed": true,
          "name": "factProvider",
          "type": "address"
        },
        {
          "indexed": true,
          "name": "key",
          "type": "bytes32"
        }
      ],
      "name": "IPFSHashUpdated",
      "type": "event"
    },
    {
      "anonymous": false,
      "inputs": [
        {
          "indexed": true,
          "name": "factProvider",
          "type": "address"
        },
        {
          "indexed": true,
          "name": "key",
          "type": "bytes32"
        }
      ],
      "name": "IPFSHashDeleted",
      "type": "event"
    },
    {
      "anonymous": false,
      "inputs": [
        {
          "indexed": true,
          "name": "factProvider",
          "type": "address"
        },
        {
          "indexed": true,
          "name": "key",
          "type": "bytes32"
        }
      ],
      "name": "TxDataUpdated",
      "type": "event"
    },
    {
      "anonymous": false,
      "inputs": [
        {
          "indexed": true,
          "name": "factProvider",
          "type": "address"
        },
        {
          "indexed": true,
          "name": "key",
          "type": "bytes32"
        }
      ],
      "name": "TxDataDeleted",
      "type": "event"
    },
    {
      "anonymous": false,
      "inputs": [
        {
          "indexed": true,
          "name": "factProvider",
          "type": "address"
        },
        {
          "indexed": true,
          "name": "key",
          "type": "bytes32"
        }
      ],
      "name": "BytesUpdated",
      "type": "event"
    },
    {
      "anonymous": false,
      "inputs": [
        {
          "indexed": true,
          "name": "factProvider",
          "type": "address"
        },
        {
          "indexed": true,
          "name": "key",
          "type": "bytes32"
        }
      ],
      "name": "BytesDeleted",
      "type": "event"
    },
    {
      "anonymous": false,
      "inputs": [
        {
          "indexed": true,
          "name": "factProvider",
          "type": "address"
        },
        {
          "indexed": true,
          "name": "key",
          "type": "bytes32"
        }
      ],
      "name": "StringUpdated",
      "type": "event"
    },
    {
      "anonymous": false,
      "inputs": [
        {
          "indexed": true,
          "name": "factProvider",
          "type": "address"
        },
        {
          "indexed": true,
          "name": "key",
          "type": "bytes32"
        }
      ],
      "name": "StringDeleted",
      "type": "event"
    },
    {
      "anonymous": false,
      "inputs": [
        {
          "indexed": true,
          "name": "factProvider",
          "type": "address"
        },
        {
          "indexed": true,
          "name": "key",
          "type": "bytes32"
        }
      ],
      "name": "BoolUpdated",
      "type": "event"
    },
    {
      "anonymous": false,
      "inputs": [
        {
          "indexed": true,
          "name": "factProvider",
          "type": "address"
        },
        {
          "indexed": true,
          "name": "key",
          "type": "bytes32"
        }
      ],
      "name": "BoolDeleted",
      "type": "event"
    },
    {
      "anonymous": false,
      "inputs": [
        {
          "indexed": true,
          "name": "factProvider",
          "type": "address"
        },
        {
          "indexed": true,
          "name": "key",
          "type": "bytes32"
        }
      ],
      "name": "IntUpdated",
      "type": "event"
    },
    {
      "anonymous": false,
      "inputs": [
        {
          "indexed": true,
          "name": "factProvider",
          "type": "address"
        },
        {
          "indexed": true,
          "name": "key",
          "type": "bytes32"
        }
      ],
      "name": "IntDeleted",
      "type": "event"
    },
    {
      "anonymous": false,
      "inputs": [
        {
          "indexed": true,
          "name": "factProvider",
          "type": "address"
        },
        {
          "indexed": true,
          "name": "key",
          "type": "bytes32"
        }
      ],
      "name": "UintUpdated",
      "type": "event"
    },
    {
      "anonymous": false,
      "inputs": [
        {
          "indexed": true,
          "name": "factProvider",
          "type": "address"
        },
        {
          "indexed": true,
          "name": "key",
          "type": "bytes32"
        }
      ],
      "name": "UintDeleted",
      "type": "event"
    },
    {
      "anonymous": false,
      "inputs": [
        {
          "indexed": true,
          "name": "factProvider",
          "type": "address"
        },
        {
          "indexed": true,
          "name": "key",
          "type": "bytes32"
        }
      ],
      "name": "AddressUpdated",
      "type": "event"
    },
    {
      "anonymous": false,
      "inputs": [
        {
          "indexed": true,
          "name": "factProvider",
          "type": "address"
        },
        {
          "indexed": true,
          "name": "key",
          "type": "bytes32"
        }
      ],
      "name": "AddressDeleted",
      "type": "event"
    },
    {
      "anonymous": false,
      "inputs": [
        {
          "indexed": true,
          "name": "onlyWhitelist",
          "type": "bool"
        }
      ],
      "name": "WhitelistOnlyPermissionSet",
      "type": "event"
    },
    {
      "anonymous": false,
      "inputs": [
        {
          "indexed": true,
          "name": "factProvider",
          "type": "address"
        }
      ],
      "name": "WhitelistFactProviderAdded",
      "type": "event"
    },
    {
      "anonymous": false,
      "inputs": [
        {
          "indexed": true,
          "name": "factProvider",
          "type": "address"
        }
      ],
      "name": "WhitelistFactProviderRemoved",
      "type": "event"
    },
    {
      "anonymous": false,
      "inputs": [
        {
          "indexed": true,
          "name": "previousOwner",
          "type": "address"
        }
      ],
      "name": "OwnershipRenounced",
      "type": "event"
    },
    {
      "anonymous": false,
      "inputs": [
        {
          "indexed": true,
          "name": "previousOwner",
          "type": "address"
        },
        {
          "indexed": true,
          "name": "newOwner",
          "type": "address"
        }
      ],
      "name": "OwnershipTransferred",
      "type": "event"
    }
  ],
  "bytecode": "0x608060408190527f6f72672e6d6f6e657468612e70726f78792e6f776e6572000000000000000000905261003b3364010000000061009a810204565b604080517f6f72672e6d6f6e657468612e70726f78792e70656e64696e674f776e657200008152905190819003601e0190207fcfd0c6ea5352192d7d4c5d4e7a73c5da12c871730cb60ff57879cbe7b403bb521461009557fe5b6100be565b7f3ca57e4b51fc2e18497b219410298879868edada7e6fe5132c8feceb0a080d2255565b6130e480620000ce6000396000f3006080604052600436106102455763ffffffff7c010000000000000000000000000000000000000000000000000000000060003504166306427a88811461024a57806308c50498146102645780630a2565251461027c5780630e14a376146102a3578063174a6277146102bb57806320888158146102fa57806322b96b631461032f578063257781e7146103d65780632b42a89a146103ee5780632c62ff2d146104085780632db27bd2146104205780632e28d084146104cb5780633e49bed0146104ef5780634e71e0c81461050a5780635b2a372d1461051f578063616b59f61461054357806361a2d0761461055b57806363019d1d146105705780636556f767146105885780636bfc8bb5146105ac5780636d4e7802146105d05780636e899550146105f15780636f618f9a14610615578063715018a6146107bc57806371658552146107d15780637ac4ed64146107f55780637dd291e41461083c57806386ca9a7c146108515780638ae44a081461085f5780638c160095146108805780638da5cb5b1461089857806395ee8bae146108c95780639d74b37d146108ed578063a2b6cbe11461092c578063ab338e361461027c578063abfdcced14610944578063ac0aeb1a14610961578063ca446dd914610982578063caa95f1b146109a6578063cea332cc146109bb578063e2a4853a146109e2578063e2b202bf146109fd578063e30c397814610a15578063e318de7314610a2a578063e75a836a14610a4e578063f2fde38b14610a75578063f6bb3cc414610a96578063fc2d058414610aae575b600080fd5b34801561025657600080fd5b50610262600435610ac9565b005b34801561027057600080fd5b50610262600435610d01565b34801561028857600080fd5b50610291610f21565b60408051918252519081900360200190f35b3480156102af57600080fd5b50610262600435610f28565b3480156102c757600080fd5b506102df600160a060020a0360043516602435610f34565b60408051921515835260208301919091528051918290030190f35b34801561030657600080fd5b5061031b600160a060020a0360043516610f4c565b604080519115158252519081900360200190f35b34801561033b57600080fd5b50610353600160a060020a0360043516602435610fa2565b604051808315151515815260200180602001828103825283818151815260200191508051906020019080838360005b8381101561039a578181015183820152602001610382565b50505050905090810190601f1680156103c75780820380516001836020036101000a031916815260200191505b50935050505060405180910390f35b3480156103e257600080fd5b50610262600435610fb0565b3480156103fa57600080fd5b506102626004351515610fb9565b34801561041457600080fd5b50610262600435611012565b34801561042c57600080fd5b50610444600160a060020a036004351660243561101b565b604080518415158152908101829052606060208083018281528551928401929092528451608084019186019080838360005b8381101561048e578181015183820152602001610476565b50505050905090810190601f1680156104bb5780820380516001836020036101000a031916815260200191505b5094505050505060405180910390f35b3480156104d757600080fd5b50610262600480359060248035908101910135611038565b3480156104fb57600080fd5b50610262600435602435611077565b34801561051657600080fd5b50610262611085565b34801561052b57600080fd5b50610262600480359060248035908101910135611168565b34801561054f57600080fd5b506102626004356111ed565b34801561056757600080fd5b5061031b6111f6565b34801561057c57600080fd5b50610262600435611200565b34801561059457600080fd5b50610353600160a060020a0360043516602435611209565b3480156105b857600080fd5b50610262600480359060248035908101910135611217565b3480156105dc57600080fd5b50610262600160a060020a0360043516611251565b3480156105fd57600080fd5b506102626004803590602480359081019101356112b6565b34801561062157600080fd5b5061062d6004356112f0565b604051808e600160a060020a0316600160a060020a031681526020018d81526020018c600160a060020a0316600160a060020a031681526020018b81526020018a600160a060020a0316600160a060020a03168152602001896000191660001916815260200180602001886000191660001916815260200180602001876000191660001916815260200186600019166000191681526020018560028111156106d157fe5b60ff16815260200184815260200183810383528a818151815260200191508051906020019080838360005b838110156107145781810151838201526020016106fc565b50505050905090810190601f1680156107415780820380516001836020036101000a031916815260200191505b5083810382528851815288516020918201918a019080838360005b8381101561077457818101518382015260200161075c565b50505050905090810190601f1680156107a15780820380516001836020036101000a031916815260200191505b509f5050505050505050505050505050505060405180910390f35b3480156107c857600080fd5b50610262611490565b3480156107dd57600080fd5b506102df600160a060020a0360043516602435611550565b34801561080157600080fd5b50610819600160a060020a036004351660243561155d565b604080519215158352600160a060020a0390911660208301528051918290030190f35b34801561084857600080fd5b5061029161156a565b610262600435602435611570565b34801561086b57600080fd5b5061031b600160a060020a0360043516611807565b34801561088c57600080fd5b50610262600435611825565b3480156108a457600080fd5b506108ad61182e565b60408051600160a060020a039092168252519081900360200190f35b3480156108d557600080fd5b506102df600160a060020a036004351660243561183d565b3480156108f957600080fd5b50610911600160a060020a036004351660243561184a565b60408051921515835290151560208301528051918290030190f35b34801561093857600080fd5b50610262600435611857565b34801561095057600080fd5b5061026260043560243515156118be565b34801561096d57600080fd5b50610262600160a060020a03600435166118c8565b34801561098e57600080fd5b50610262600435600160a060020a0360243516611930565b3480156109b257600080fd5b5061029161193a565b61026260048035600160a060020a0316906024803591604435918201910135606435611940565b3480156109ee57600080fd5b50610262600435602435611cd2565b348015610a0957600080fd5b50610262600435611cdc565b348015610a2157600080fd5b506108ad611ce5565b348015610a3657600080fd5b50610353600160a060020a0360043516602435611cef565b348015610a5a57600080fd5b50610262600480359060248035908101910135604435611cfd565b348015610a8157600080fd5b50610262600160a060020a0360043516611d3f565b348015610aa257600080fd5b50610262600435611dc1565b348015610aba57600080fd5b50610262600435602435611dca565b600c5460009081908310610b15576040805160e560020a62461bcd0281526020600482015260166024820152600080516020613099833981519152604482015290519081900360640190fd5b600c805484908110610b2357fe5b60009182526020909120600d90910201600b81015490925060ff166002811115610b4957fe5b600214610bae576040805160e560020a62461bcd02815260206004820152602260248201527f65786368616e6765206d75737420626520696e20616363657074656420737461604482015260f060020a61746502606482015290519081900360840190fd5b81600c0154610bbb612205565b1180610bd057508154600160a060020a031633145b1515610c73576040805160e560020a62461bcd028152602060048201526044602482018190527f65786368616e6765206d75737420626520656974686572206578706972656420908201527f6f722062652066696e697368656420627920746865206461746120726571756560648201527f7374657200000000000000000000000000000000000000000000000000000000608482015290519081900360a40190fd5b600b8201805460ff1916905560038201546001830154610c9291612228565b6002830154604051919250600160a060020a03169082156108fc029083906000818181858888f193505050501515610cc957600080fd5b610cd1612235565b60405183907f5d1a7ae2ffda31cae15ed5129d32260ef2a270a21325f536f7954ed297e52c8e90600090a2505050565b600c546000908210610d4b576040805160e560020a62461bcd0281526020600482015260166024820152600080516020613099833981519152604482015290519081900360640190fd5b600c805483908110610d5957fe5b60009182526020909120600d90910201600b81015490915060ff166002811115610d7f57fe5b600114610de4576040805160e560020a62461bcd02815260206004820152602260248201527f65786368616e6765206d75737420626520696e2070726f706f73656420737461604482015260f060020a61746502606482015290519081900360840190fd5b8054600160a060020a03163314610e45576040805160e560020a62461bcd02815260206004820152601b60248201527f6f6e6c7920646174612072657175657374657220616c6c6f7765640000000000604482015290519081900360640190fd5b80600c0154610e52612205565b11610ea7576040805160e560020a62461bcd02815260206004820152601860248201527f65786368616e6765206d75737420626520657870697265640000000000000000604482015290519081900360640190fd5b600b8101805460ff1916905580546001820154604051600160a060020a03909216916108fc82150291906000818181858888f193505050501515610eea57600080fd5b610ef2612235565b60405182907f5d1a7ae2ffda31cae15ed5129d32260ef2a270a21325f536f7954ed297e52c8e90600090a25050565b6201518081565b610f3181612251565b50565b600080610f4184846122c4565b915091509250929050565b60075460009060ff161580610f795750600160a060020a03821660009081526008602052604090205460ff165b80610f9c5750610f876122f8565b600160a060020a031682600160a060020a0316145b92915050565b60006060610f41848461231d565b610f31816123e7565b610fc16122f8565b600160a060020a03163314610fd557600080fd5b6007805460ff19168215159081179091556040517f6e1eb3fa845047cf9d5fd1deb1b7770b4e26163dd4d88cefb14fe7964a70059590600090a250565b610f318161245d565b60006060600061102b85856124bf565b9250925092509250925092565b6110728383838080601f0160208091040260200160405190810160405280939291908181526020018383808284375061258f945050505050565b505050565b6110818282612629565b5050565b61108d6126ad565b600160a060020a031633146110a157600080fd5b6110a96126d2565b156110fe576040805160e560020a62461bcd02815260206004820152601d60248201527f636f6e74726163742073686f756c64206e6f7420626520706175736564000000604482015290519081900360640190fd5b6111066126ad565b600160a060020a03166111176122f8565b600160a060020a03167f8be0079c531659141344cd1fd0a4f28419497f9722a3daafe3b4186f6b6457e060405160405180910390a361115c6111576126ad565b6126f7565b611166600061271b565b565b61117133610f4c565b151561117c57600080fd5b6040805180820182526001808252436020808401918252336000818152600683528681208a82529092528582209451855460ff191690151517855591519390920192909255915185927fcbde9cd310365ff3de3ad9cb44ed688d8880c7b1d15df733a73880fb84d032de91a3505050565b610f318161273f565b60075460ff165b90565b610f31816127b5565b60006060610f418484612837565b6110728383838080601f016020809104026020016040519081016040528093929190818152602001838380828437506128c3945050505050565b6112596122f8565b600160a060020a0316331461126d57600080fd5b600160a060020a038116600081815260086020526040808220805460ff19169055517f5bf47f016603dfff957e6086bd9a350212686e8f1d9208b3db47c5a3107c78789190a250565b6110728383838080601f0160208091040260200160405190810160405280939291908181526020018383808284375061295d945050505050565b600c8054829081106112fe57fe5b6000918252602091829020600d90910201805460018083015460028085015460038601546004870154600588015460068901805460408051601f6000199b841615610100029b909b01909216979097049889018c90048c0281018c01909652878652600160a060020a039889169b509599938816989297919091169590949193928301828280156113d05780601f106113a5576101008083540402835291602001916113d0565b820191906000526020600020905b8154815290600101906020018083116113b357829003601f168201915b50505050600783015460088401805460408051602060026001851615610100026000190190941693909304601f810184900484028201840190925281815295969395939450908301828280156114675780601f1061143c57610100808354040283529160200191611467565b820191906000526020600020905b81548152906001019060200180831161144a57829003601f168201915b5050506009840154600a850154600b860154600c909601549495919490935060ff90911691508d565b6114986122f8565b600160a060020a031633146114ac57600080fd5b6114b46126d2565b15611509576040805160e560020a62461bcd02815260206004820152601d60248201527f636f6e74726163742073686f756c64206e6f7420626520706175736564000000604482015290519081900360640190fd5b6115116122f8565b600160a060020a03167ff8df31144d9c2f0f6b59d69b8b98abd5459d07f2742c4df920b25aae33c6482060405160405180910390a261116660006126f7565b600080610f4184846129f7565b600080610f418484612a2a565b600c5490565b600c5460009083106115ba576040805160e560020a62461bcd0281526020600482015260166024820152600080516020613099833981519152604482015290519081900360640190fd5b600c8054849081106115c857fe5b60009182526020909120600d909102016002810154909150600160a060020a0316331461163f576040805160e560020a62461bcd02815260206004820152601b60248201527f6f6e6c792070617373706f7274206f776e657220616c6c6f7765640000000000604482015290519081900360640190fd5b600b81015460ff16600281111561165257fe5b6001146116b7576040805160e560020a62461bcd02815260206004820152602260248201527f65786368616e6765206d75737420626520696e2070726f706f73656420737461604482015260f060020a61746502606482015290519081900360840190fd5b6001810154341015611739576040805160e560020a62461bcd02815260206004820152602c60248201527f6e65656420746f207374616b65206174206c656173742064617461207265717560448201527f657374657220616d6f756e740000000000000000000000000000000000000000606482015290519081900360840190fd5b80600c0154611746612205565b1061179b576040805160e560020a62461bcd02815260206004820152601660248201527f65786368616e6765207374617465206578706972656400000000000000000000604482015290519081900360640190fd5b346003820155600a8101829055600b8101805460ff19166002179055620151806117c3612205565b01600c82015580546040513391600160a060020a03169085907f843dda373d0d243dce80a6cd203b9cbba8576d036c7eb937f9de36ebe6e8b02390600090a4505050565b600160a060020a031660009081526008602052604090205460ff1690565b610f3181612a5d565b60006118386122f8565b905090565b600080610f418484612ac4565b600080610f418484612af8565b61186033610f4c565b151561186b57600080fd5b336000818152600660209081526040808320858452909152808220805460ff19168155600101829055518392917f9b9532c8ba5879554dee7c3e9374bd26dbfb2f79cf7f247bcf90648fc81fc16491a350565b6110818282612b2d565b6118d06122f8565b600160a060020a031633146118e457600080fd5b600160a060020a038116600081815260086020526040808220805460ff19166001179055517fff8ac5f0e9cdc8f7ffbbc29ab1301ee649cf01cf7a6a9265a2d90587612c41759190a250565b6110818282612bc0565b600b5481565b600060606000806000611951612f59565b600061195d8c8c6124bf565b9650965096508615156119ba576040805160e560020a62461bcd02815260206004820152601760248201527f707269766174652064617461206d757374206578697374000000000000000000604482015290519081900360640190fd5b6119c26122f8565b93506101a06040519081016040528033600160a060020a0316815260200134815260200185600160a060020a03168152602001600081526020018d600160a060020a031681526020018c600019168152602001878152602001866000191681526020018b8b8080601f016020809104026020016040519081016040528093929190818152602001838380828437505050928452505050602081018a9052604081018590526060016001815260200162015180611a7c612205565b019052600c8054600181018083556000929092528251600d9091027fdf6966c971051c3d54ec59162606531493a51404a002842f56009d7e5cf4a8c781018054600160a060020a0393841673ffffffffffffffffffffffffffffffffffffffff199182161782556020808701517fdf6966c971051c3d54ec59162606531493a51404a002842f56009d7e5cf4a8c885015560408701517fdf6966c971051c3d54ec59162606531493a51404a002842f56009d7e5cf4a8c98501805491871691841691909117905560608701517fdf6966c971051c3d54ec59162606531493a51404a002842f56009d7e5cf4a8ca85015560808701517fdf6966c971051c3d54ec59162606531493a51404a002842f56009d7e5cf4a8cb850180549190961692169190911790935560a08501517fdf6966c971051c3d54ec59162606531493a51404a002842f56009d7e5cf4a8cc83015560c08501518051959750939487949193611c0a937fdf6966c971051c3d54ec59162606531493a51404a002842f56009d7e5cf4a8cd01920190612fc4565b5060e082015160078201556101008201518051611c31916008840191602090910190612fc4565b506101208201516009820155610140820151600a820155610160820151600b8201805460ff19166001836002811115611c6657fe5b021790555061018082015181600c0155505050611c81612c6e565b50600c5460405160001990910190600160a060020a03851690339083907fabe53237e9ea366da7fa5507ac62db22bd446d6b66bcff4a6d6c1b11e9af198390600090a4505050505050505050505050565b6110818282612c8b565b610f3181612d0e565b60006118386126ad565b60006060610f418484612d75565b611d398484848080601f01602080910402602001604051908101604052809392919081815260200183838082843750889450612e019350505050565b50505050565b611d476122f8565b600160a060020a03163314611d5b57600080fd5b611d636126d2565b15611db8576040805160e560020a62461bcd02815260206004820152601d60248201527f636f6e74726163742073686f756c64206e6f7420626520706175736564000000604482015290519081900360640190fd5b610f318161271b565b610f3181612ebf565b6000806000806000600c8054905087101515611e1e576040805160e560020a62461bcd0281526020600482015260166024820152600080516020613099833981519152604482015290519081900360640190fd5b600c805488908110611e2c57fe5b60009182526020909120600d90910201600b81015490955060ff166002811115611e5257fe5b600214611eb7576040805160e560020a62461bcd02815260206004820152602260248201527f65786368616e6765206d75737420626520696e20616363657074656420737461604482015260f060020a61746502606482015290519081900360840190fd5b8454600160a060020a03163314611f18576040805160e560020a62461bcd02815260206004820152601b60248201527f6f6e6c7920646174612072657175657374657220616c6c6f7765640000000000604482015290519081900360640190fd5b84600c0154611f25612205565b10611f7a576040805160e560020a62461bcd02815260206004820152601c60248201527f65786368616e6765206d757374206e6f74206265206578706972656400000000604482015290519081900360640190fd5b60098501546040805160208082018a905282518083038201815291830192839052815191929182918401908083835b60208310611fc85780518252601f199092019160209182019101611fa9565b6001836020036101000a038019825116818451168082178552505050505050905001915050604051809103902060001916141515612050576040805160e560020a62461bcd02815260206004820152601c60248201527f65786368616e6765206b65792068617368206d757374206d6174636800000000604482015290519081900360640190fd5b600a85015460078601546040805192891860208085018290528251808603820181529483019283905284519198509293928291908401908083835b602083106120aa5780518252601f19909201916020918201910161208b565b5181516020939093036101000a60001901801990911692169190911790526040519201829003909120600b8a01805460ff1916905560038a015460018b01549590911497506120fe94935091506122289050565b9150821561214d576002850154604051600160a060020a039091169083156108fc029084906000818181858888f19350505050151561213c57600080fd5b508354600160a060020a0316612190565b8454604051600160a060020a039091169083156108fc029084906000818181858888f19350505050151561218057600080fd5b506002840154600160a060020a03165b612198612235565b60405187907f5d1a7ae2ffda31cae15ed5129d32260ef2a270a21325f536f7954ed297e52c8e90600090a2604051600160a060020a0382169084159089907f540941e0fc2370abde0bfa6ddbb49188469597e518416fa24327f39469c9b2ec90600090a450505050505050565b600042670214e8348c4f000081111561222057633b9aca0090045b8091505b5090565b81810182811015610f9c57fe5b600b805460001901908190551515611166576111666000612f35565b61225a33610f4c565b151561226557600080fd5b33600081815260208181526040808320858452909152808220805474ffffffffffffffffffffffffffffffffffffffffff19169055518392917fed9474c4702ee9da4d0d2085840fafed5912b8e13daf1d6ea341ebe98803aec291a350565b600160a060020a0391909116600090815260066020908152604080832093835292905220805460019091015460ff90911691565b7f3ca57e4b51fc2e18497b219410298879868edada7e6fe5132c8feceb0a080d225490565b600160a060020a038216600090815260096020908152604080832084845282528083208054600180830180548551601f600294831615610100026000190190921693909304908101879004870283018701909552848252606095939460ff90931693909283918301828280156123d45780601f106123a9576101008083540402835291602001916123d4565b820191906000526020600020905b8154815290600101906020018083116123b757829003601f168201915b5050505050905092509250509250929050565b6123f033610f4c565b15156123fb57600080fd5b3360009081526009602090815260408083208484529091528120805460ff191681559061242b600183018261303e565b5050604051819033907f140278d2322b9671bf293aea878e7717c46d5b7cd955e3e426ee67e01b90165490600090a350565b61246633610f4c565b151561247157600080fd5b336000818152600360209081526040808320858452909152808220805461ffff19169055518392917f191bd7fc1f22ce6b74b7d7e42126f0ed225b109728607c99971de9e78b0db6eb91a350565b600160a060020a0382166000908152600a6020908152604080832084845282528083208054600280830154600180850180548751601f93821615610100026000190190911694909404918201889004880284018801909652808352606096889660ff909516949391849183018282801561257a5780601f1061254f5761010080835404028352916020019161257a565b820191906000526020600020905b81548152906001019060200180831161255d57829003601f168201915b50505050509150935093509350509250925092565b61259833610f4c565b15156125a357600080fd5b60408051808201825260018082526020808301858152336000908152600583528581208882528352949094208351815460ff1916901515178155935180519394936125f5938501929190910190612fc4565b505060405183915033907fee56af66250a5cbba377132a356dc403d520776e30969594927024c44af8440b90600090a35050565b61263233610f4c565b151561263d57600080fd5b60408051808201825260018082526020808301858152336000818152600284528681208982529093528583209451855460ff19169015151785559051939092019290925591518492917fdb4ad6a3ed2bdacbae02da45a5bb54192cdb7d72648674d13e08d2fc4c45ac6691a35050565b7fcfd0c6ea5352192d7d4c5d4e7a73c5da12c871730cb60ff57879cbe7b403bb525490565b7f9e7945c55c116aa3404b99fe56db7af9613d3b899554a437c2616a4749a94d8a5490565b7f3ca57e4b51fc2e18497b219410298879868edada7e6fe5132c8feceb0a080d2255565b7fcfd0c6ea5352192d7d4c5d4e7a73c5da12c871730cb60ff57879cbe7b403bb5255565b61274833610f4c565b151561275357600080fd5b3360009081526005602090815260408083208484529091528120805460ff1916815590612783600183018261303e565b5050604051819033907f0eaf95ab41777ff88e28181b1c43418524616bcef6d37c3b216015b5548cb10890600090a350565b6127be33610f4c565b15156127c957600080fd5b336000908152600a602090815260408083208484529091528120805460ff191681559060018201816127fb828261303e565b5060006001919091018190556040518493503392507f9cad6db22e9f7e2a3441e18ef08567fa48da09796f593ded4222f0a315f986019190a350565b600160a060020a038216600090815260056020908152604080832084845282528083208054600180830180548551601f600294831615610100026000190190921693909304908101879004870283018701909552848252606095939460ff90931693909283918301828280156123d45780601f106123a9576101008083540402835291602001916123d4565b6128cc33610f4c565b15156128d757600080fd5b60408051808201825260018082526020808301858152336000908152600983528581208882528352949094208351815460ff191690151517815593518051939493612929938501929190910190612fc4565b505060405183915033907fdb23beee028623a85d5af1d247423ca471d20e499b131cd5e5c76277eaa2ad5b90600090a35050565b61296633610f4c565b151561297157600080fd5b60408051808201825260018082526020808301858152336000908152600483528581208882528352949094208351815460ff1916901515178155935180519394936129c3938501929190910190612fc4565b505060405183915033907f43e6b7e3323b4598401023341c086c07c3ff5577f594b5aab9c065f2c3c9d59090600090a35050565b600160a060020a03919091166000908152600160208181526040808420948452939052919020805491015460ff90911691565b600160a060020a03918216600090815260208181526040808320938352929052205460ff81169261010090910490911690565b612a6633610f4c565b1515612a7157600080fd5b336000818152600260209081526040808320858452909152808220805460ff19168155600101829055518392917f3c3ff48e02e407eb1e78310d11b5e3f9e735263a9cafc2bcf4aa981b8ecb32a591a350565b600160a060020a0391909116600090815260026020908152604080832093835292905220805460019091015460ff90911691565b600160a060020a03919091166000908152600360209081526040808320938352929052205460ff808216926101009092041690565b612b3633610f4c565b1515612b4157600080fd5b6040805180820182526001815282151560208083019182523360008181526003835285812088825290925284822093518454935115156101000261ff001991151560ff1990951694909417169290921790925591518492917f68cc3496efaac4c1f2c0cd52da916138f6c5fc541992f05d97423a89b6914ae591a35050565b612bc933610f4c565b1515612bd457600080fd5b60408051808201825260018152600160a060020a03838116602080840191825233600081815280835286812089825290925285822094518554935160ff199094169015151774ffffffffffffffffffffffffffffffffffffffff001916610100939094169290920292909217909255915184927f8e7e6ab6c4613205e833e1faf5415d78dd10130a8828f729c08036e2a7a6277091a35050565b600b80546001908101918290551415611166576111666001612f35565b612c9433610f4c565b1515612c9f57600080fd5b604080518082018252600180825260208083018581523360008181528484528681208982529093528583209451855460ff19169015151785559051939092019290925591518492917fff76cb7634629f8d05011ab2a58380dfc0743157a70ba4173f866e113eca75c091a35050565b612d1733610f4c565b1515612d2257600080fd5b336000818152600160208181526040808420868552909152808320805460ff19168155909101829055518392917fd5f853f7aaba549b5a46be1de24cac4c20e716b4c603d24b2b0b7b5d97ca1c4d91a350565b600160a060020a038216600090815260046020908152604080832084845282528083208054600180830180548551601f600294831615610100026000190190921693909304908101879004870283018701909552848252606095939460ff90931693909283918301828280156123d45780601f106123a9576101008083540402835291602001916123d4565b612e0a33610f4c565b1515612e1557600080fd5b6040805180820182526001808252825180840184528581526020808201869052808401918252336000908152600a82528581208982528252949094208351815460ff1916901515178155905180518051949592949193850192612e7d92849290910190612fc4565b50602091909101516001909101555050604051839033907f0ed4013fbc8174781b18a7aa1cce7d589bc1fc3509941835787881ed2ab8b48e90600090a3505050565b612ec833610f4c565b1515612ed357600080fd5b3360009081526004602090815260408083208484529091528120805460ff1916815590612f03600183018261303e565b5050604051819033907f491a0e0281af9fc88ff024cffc24db22eddd4f826cb30d84936592967dc9237c90600090a350565b7f9e7945c55c116aa3404b99fe56db7af9613d3b899554a437c2616a4749a94d8a55565b604080516101a08101825260008082526020820181905291810182905260608082018390526080820183905260a0820183905260c0820181905260e0820183905261010082015261012081018290526101408101829052906101608201908152602001600081525090565b828054600181600116156101000203166002900490600052602060002090601f016020900481019282601f1061300557805160ff1916838001178555613032565b82800160010185558215613032579182015b82811115613032578251825591602001919060010190613017565b5061222492915061307e565b50805460018160011615610100020316600290046000825580601f106130645750610f31565b601f016020900490600052602060002090810190610f3191905b6111fd91905b8082111561222457600081556001016130845600696e76616c69642065786368616e676520696e64657800000000000000000000a165627a7a723058207e08da08ca6c8562f5c4727756fd99bfdf5c1dc30d2f60ca4053a3672b3f5d360029",
  "source": "pragma solidity ^0.4.24;\n\nimport \"./ownership/ClaimableProxy.sol\";\nimport \"./IPassportLogic.sol\";\nimport \"./storage/AddressStorageLogic.sol\";\nimport \"./storage/UintStorageLogic.sol\";\nimport \"./storage/IntStorageLogic.sol\";\nimport \"./storage/BoolStorageLogic.sol\";\nimport \"./storage/StringStorageLogic.sol\";\nimport \"./storage/BytesStorageLogic.sol\";\nimport \"./storage/TxDataStorageLogic.sol\";\nimport \"./storage/IPFSStorageLogic.sol\";\nimport \"./storage/PrivateDataStorageLogic.sol\";\n\ncontract PassportLogic\nis IPassportLogic\n, ClaimableProxy\n, AddressStorageLogic\n, UintStorageLogic\n, IntStorageLogic\n, BoolStorageLogic\n, StringStorageLogic\n, BytesStorageLogic\n, TxDataStorageLogic\n, IPFSStorageLogic\n, PrivateDataStorageLogic\n{}",
  "sourcePath": "C:\\src\\monetha\\reputation-js-sdk-example\\deployer\\tmp\\contracts\\PassportLogic.sol",
  "compiler": {
    "name": "solc",
    "version": "0.4.24+commit.e67f0147.Emscripten.clang"
  },
  "schemaVersion": "3.0.19",
  "updatedAt": "2019-12-05T14:14:58.368Z",
  "networkType": "ethereum"
}