{
  "contractName": "PassportFactory",
  "abi": [
    {
      "constant": false,
      "inputs": [
        {
          "name": "_token",
          "type": "address"
        }
      ],
      "name": "reclaimToken",
      "outputs": [],
      "payable": false,
      "stateMutability": "nonpayable",
      "type": "function"
    },
    {
      "constant": false,
      "inputs": [],
      "name": "renounceOwnership",
      "outputs": [],
      "payable": false,
      "stateMutability": "nonpayable",
      "type": "function"
    },
    {
      "constant": true,
      "inputs": [],
      "name": "owner",
      "outputs": [
        {
          "name": "",
          "type": "address"
        }
      ],
      "payable": false,
      "stateMutability": "view",
      "type": "function"
    },
    {
      "constant": false,
      "inputs": [],
      "name": "reclaimEther",
      "outputs": [],
      "payable": false,
      "stateMutability": "nonpayable",
      "type": "function"
    },
    {
      "constant": true,
      "inputs": [
        {
          "name": "_from",
          "type": "address"
        },
        {
          "name": "_value",
          "type": "uint256"
        },
        {
          "name": "_data",
          "type": "bytes"
        }
      ],
      "name": "tokenFallback",
      "outputs": [],
      "payable": false,
      "stateMutability": "pure",
      "type": "function"
    },
    {
      "constant": false,
      "inputs": [
        {
          "name": "_newOwner",
          "type": "address"
        }
      ],
      "name": "transferOwnership",
      "outputs": [],
      "payable": false,
      "stateMutability": "nonpayable",
      "type": "function"
    },
    {
      "inputs": [
        {
          "name": "_registry",
          "type": "address"
        }
      ],
      "payable": false,
      "stateMutability": "nonpayable",
      "type": "constructor"
    },
    {
      "payable": false,
      "stateMutability": "nonpayable",
      "type": "fallback"
    },
    {
      "anonymous": false,
      "inputs": [
        {
          "indexed": true,
          "name": "passport",
          "type": "address"
        },
        {
          "indexed": true,
          "name": "owner",
          "type": "address"
        }
      ],
      "name": "PassportCreated",
      "type": "event"
    },
    {
      "anonymous": false,
      "inputs": [
        {
          "indexed": true,
          "name": "oldRegistry",
          "type": "address"
        },
        {
          "indexed": true,
          "name": "newRegistry",
          "type": "address"
        }
      ],
      "name": "PassportLogicRegistryChanged",
      "type": "event"
    },
    {
      "anonymous": false,
      "inputs": [
        {
          "indexed": true,
          "name": "previousOwner",
          "type": "address"
        }
      ],
      "name": "OwnershipRenounced",
      "type": "event"
    },
    {
      "anonymous": false,
      "inputs": [
        {
          "indexed": true,
          "name": "previousOwner",
          "type": "address"
        },
        {
          "indexed": true,
          "name": "newOwner",
          "type": "address"
        }
      ],
      "name": "OwnershipTransferred",
      "type": "event"
    },
    {
      "constant": false,
      "inputs": [
        {
          "name": "_registry",
          "type": "address"
        }
      ],
      "name": "setRegistry",
      "outputs": [],
      "payable": false,
      "stateMutability": "nonpayable",
      "type": "function"
    },
    {
      "constant": true,
      "inputs": [],
      "name": "getRegistry",
      "outputs": [
        {
          "name": "",
          "type": "address"
        }
      ],
      "payable": false,
      "stateMutability": "view",
      "type": "function"
    },
    {
      "constant": false,
      "inputs": [],
      "name": "createPassport",
      "outputs": [
        {
          "name": "",
          "type": "address"
        }
      ],
      "payable": false,
      "stateMutability": "nonpayable",
      "type": "function"
    }
  ],
  "bytecode": "0x608060405234801561001057600080fd5b5060405160208061105e833981016040525160008054600160a060020a03191633179055341561003f57600080fd5b61005181640100000000610057810204565b5061008e565b600160a060020a038116151561006c57600080fd5b60018054600160a060020a031916600160a060020a0392909216919091179055565b610fc18061009d6000396000f3006080604052600436106100985763ffffffff7c010000000000000000000000000000000000000000000000000000000060003504166317ffc32081146100a75780632ec0faad146100ca5780635ab1bd53146100fb578063715018a6146101105780638da5cb5b146101255780639f727c271461013a578063a91ee0dc1461014f578063c0ee0b8a14610170578063f2fde38b146101a1575b3480156100a457600080fd5b50005b3480156100b357600080fd5b506100c8600160a060020a03600435166101c2565b005b3480156100d657600080fd5b506100df61028e565b60408051600160a060020a039092168252519081900360200190f35b34801561010757600080fd5b506100df61038c565b34801561011c57600080fd5b506100c861039b565b34801561013157600080fd5b506100df610407565b34801561014657600080fd5b506100c8610416565b34801561015b57600080fd5b506100c8600160a060020a036004351661046b565b34801561017c57600080fd5b506100c860048035600160a060020a03169060248035916044359182019101356104c5565b3480156101ad57600080fd5b506100c8600160a060020a03600435166104ca565b60008054600160a060020a031633146101da57600080fd5b604080517f70a082310000000000000000000000000000000000000000000000000000000081523060048201529051600160a060020a038416916370a082319160248083019260209291908290030181600087803b15801561023b57600080fd5b505af115801561024f573d6000803e3d6000fd5b505050506040513d602081101561026557600080fd5b505160005490915061028a90600160a060020a0384811691168363ffffffff6104ea16565b5050565b6001546000908190600160a060020a03166102a7610663565b600160a060020a03909116815260405190819003602001906000f0801580156102d4573d6000803e3d6000fd5b50604080517ff2fde38b0000000000000000000000000000000000000000000000000000000081523360048201529051919250600160a060020a0383169163f2fde38b9160248082019260009290919082900301818387803b15801561033957600080fd5b505af115801561034d573d6000803e3d6000fd5b5050604051339250600160a060020a03841691507f03f096f07a4d27c54645fa682640d44179c821150e16c48b27130ca928fa937c90600090a3919050565b600154600160a060020a031690565b600054600160a060020a031633146103b257600080fd5b60008054604051600160a060020a03909116917ff8df31144d9c2f0f6b59d69b8b98abd5459d07f2742c4df920b25aae33c6482091a26000805473ffffffffffffffffffffffffffffffffffffffff19169055565b600054600160a060020a031681565b600054600160a060020a0316331461042d57600080fd5b60008054604051600160a060020a0390911691303180156108fc02929091818181858888f19350505050158015610468573d6000803e3d6000fd5b50565b600054600160a060020a0316331461048257600080fd5b600154604051600160a060020a038084169216907f5c2abfd67230c0e47d6de28402bfe206c7a57283cba891416ed657fd70a714c290600090a3610468816105a2565b600080fd5b600054600160a060020a031633146104e157600080fd5b610468816105e6565b82600160a060020a031663a9059cbb83836040518363ffffffff167c01000000000000000000000000000000000000000000000000000000000281526004018083600160a060020a0316600160a060020a0316815260200182815260200192505050602060405180830381600087803b15801561056657600080fd5b505af115801561057a573d6000803e3d6000fd5b505050506040513d602081101561059057600080fd5b5051151561059d57600080fd5b505050565b600160a060020a03811615156105b757600080fd5b6001805473ffffffffffffffffffffffffffffffffffffffff1916600160a060020a0392909216919091179055565b600160a060020a03811615156105fb57600080fd5b60008054604051600160a060020a03808516939216917f8be0079c531659141344cd1fd0a4f28419497f9722a3daafe3b4186f6b6457e091a36000805473ffffffffffffffffffffffffffffffffffffffff1916600160a060020a0392909216919091179055565b60405161092280610674833901905600608060405234801561001057600080fd5b5060405160208061092283398101604081815291517f6f72672e6d6f6e657468612e70726f78792e7061757365640000000000000000825291519081900360180190207f9e7945c55c116aa3404b99fe56db7af9613d3b899554a437c2616a4749a94d8a1461007b57fe5b604080517f6f72672e6d6f6e657468612e70726f78792e6f776e6572000000000000000000815290519081900360170190206000805160206108e2833981519152146100c357fe5b6100d5336401000000006101b5810204565b604080517f6f72672e6d6f6e657468612e70726f78792e70656e64696e674f776e657200008152905190819003601e0190207fcfd0c6ea5352192d7d4c5d4e7a73c5da12c871730cb60ff57879cbe7b403bb521461012f57fe5b604080517f6f72672e6d6f6e657468612e70617373706f72742e70726f78792e726567697381527f7472790000000000000000000000000000000000000000000000000000000000602082015290519081900360230190206000805160206109028339815191521461019d57fe5b6101af816401000000006101c7810204565b50610279565b6000805160206108e283398151915255565b6000600160a060020a038216151561026657604080517f08c379a000000000000000000000000000000000000000000000000000000000815260206004820152602560248201527f43616e6e6f742073657420726567697374727920746f2061207a65726f20616460448201527f6472657373000000000000000000000000000000000000000000000000000000606482015290519081900360840190fd5b5060008051602061090283398151915255565b61065a806102886000396000f30060806040526004361061008d5763ffffffff7c01000000000000000000000000000000000000000000000000000000006000350416634e71e0c8811461009f578063715018a6146100b457806383197ef0146100c957806386d5c5f9146100de5780638da5cb5b1461010f578063e30c397814610124578063f2fde38b14610139578063f5074f411461015a575b61009d61009861017b565b61020c565b005b3480156100ab57600080fd5b5061009d610230565b3480156100c057600080fd5b5061009d610301565b3480156100d557600080fd5b5061009d6103af565b3480156100ea57600080fd5b506100f3610429565b60408051600160a060020a039092168252519081900360200190f35b34801561011b57600080fd5b506100f3610438565b34801561013057600080fd5b506100f3610442565b34801561014557600080fd5b5061009d600160a060020a036004351661044c565b34801561016657600080fd5b5061009d600160a060020a03600435166104bf565b6000610185610532565b600160a060020a031663609725ef6040518163ffffffff167c0100000000000000000000000000000000000000000000000000000000028152600401602060405180830381600087803b1580156101db57600080fd5b505af11580156101ef573d6000803e3d6000fd5b505050506040513d602081101561020557600080fd5b5051905090565b3660008037600080366000845af43d6000803e80801561022b573d6000f35b3d6000fd5b610238610557565b600160a060020a0316331461024c57600080fd5b61025461057c565b15610297576040805160e560020a62461bcd02815260206004820152601d602482015260008051602061060f833981519152604482015290519081900360640190fd5b61029f610557565b600160a060020a03166102b06105a1565b600160a060020a03167f8be0079c531659141344cd1fd0a4f28419497f9722a3daafe3b4186f6b6457e060405160405180910390a36102f56102f0610557565b6105c6565b6102ff60006105ea565b565b6103096105a1565b600160a060020a0316331461031d57600080fd5b61032561057c565b15610368576040805160e560020a62461bcd02815260206004820152601d602482015260008051602061060f833981519152604482015290519081900360640190fd5b6103706105a1565b600160a060020a03167ff8df31144d9c2f0f6b59d69b8b98abd5459d07f2742c4df920b25aae33c6482060405160405180910390a26102ff60006105c6565b6103b76105a1565b600160a060020a031633146103cb57600080fd5b6103d361057c565b15610416576040805160e560020a62461bcd02815260206004820152601d602482015260008051602061060f833981519152604482015290519081900360640190fd5b61041e6105a1565b600160a060020a0316ff5b6000610433610532565b905090565b60006104336105a1565b6000610433610557565b6104546105a1565b600160a060020a0316331461046857600080fd5b61047061057c565b156104b3576040805160e560020a62461bcd02815260206004820152601d602482015260008051602061060f833981519152604482015290519081900360640190fd5b6104bc816105ea565b50565b6104c76105a1565b600160a060020a031633146104db57600080fd5b6104e361057c565b15610526576040805160e560020a62461bcd02815260206004820152601d602482015260008051602061060f833981519152604482015290519081900360640190fd5b80600160a060020a0316ff5b7fa04bab69e45aeb4c94a78ba5bc1be67ef28977c4fdf815a30b829a794eb67a4a5490565b7fcfd0c6ea5352192d7d4c5d4e7a73c5da12c871730cb60ff57879cbe7b403bb525490565b7f9e7945c55c116aa3404b99fe56db7af9613d3b899554a437c2616a4749a94d8a5490565b7f3ca57e4b51fc2e18497b219410298879868edada7e6fe5132c8feceb0a080d225490565b7f3ca57e4b51fc2e18497b219410298879868edada7e6fe5132c8feceb0a080d2255565b7fcfd0c6ea5352192d7d4c5d4e7a73c5da12c871730cb60ff57879cbe7b403bb52555600636f6e74726163742073686f756c64206e6f7420626520706175736564000000a165627a7a723058205e30f642df8a1bf73a79f280f1eb2c6e93efe1a65cdaf51480704059d3bea1a900293ca57e4b51fc2e18497b219410298879868edada7e6fe5132c8feceb0a080d22a04bab69e45aeb4c94a78ba5bc1be67ef28977c4fdf815a30b829a794eb67a4aa165627a7a72305820a536da051a25b94e8ce6ba007cea0fcca10c0a6c90af6b673aeebd17bfa85cc60029",
  "source": "pragma solidity ^0.4.24;\n\nimport \"openzeppelin-solidity/contracts/ownership/Ownable.sol\";\nimport \"openzeppelin-solidity/contracts/ownership/HasNoEther.sol\";\nimport \"openzeppelin-solidity/contracts/ownership/HasNoTokens.sol\";\nimport \"./Passport.sol\";\n\n/**\n * @title PassportFactory\n * @dev This contract works as a passport factory.\n */\ncontract PassportFactory is Ownable, HasNoEther, HasNoTokens {\n    IPassportLogicRegistry private registry;\n\n    /**\n    * @dev This event will be emitted every time a new passport is created\n    * @param passport representing the address of the passport created\n    * @param owner representing the address of the passport owner\n    */\n    event PassportCreated(address indexed passport, address indexed owner);\n\n    /**\n    * @dev This event will be emitted every time a passport logic registry is changed\n    * @param oldRegistry representing the address of the old passport logic registry\n    * @param newRegistry representing the address of the new passport logic registry\n    */\n    event PassportLogicRegistryChanged(address indexed oldRegistry, address indexed newRegistry);\n\n    constructor(IPassportLogicRegistry _registry) public {\n        _setRegistry(_registry);\n    }\n\n    function setRegistry(IPassportLogicRegistry _registry) public onlyOwner {\n        emit PassportLogicRegistryChanged(registry, _registry);\n        _setRegistry(_registry);\n    }\n\n    function getRegistry() external view returns (address) {\n        return registry;\n    }\n\n    /**\n    * @dev Creates new passport. The method should be called by the owner of the created passport.\n    * After the passport is created, the owner must call the claimOwnership() passport method to become a full owner.\n    * @return address of the created passport\n    */\n    function createPassport() public returns (Passport) {\n        Passport pass = new Passport(registry);\n        pass.transferOwnership(msg.sender); // owner needs to call claimOwnership()\n        emit PassportCreated(pass, msg.sender);\n        return pass;\n    }\n\n    function _setRegistry(IPassportLogicRegistry _registry) internal {\n        require(address(_registry) != 0x0);\n        registry = _registry;\n    }\n}",
  "sourcePath": "C:\\src\\monetha\\reputation-js-sdk-example\\deployer\\tmp\\contracts\\PassportFactory.sol",
  "compiler": {
    "name": "solc",
    "version": "0.4.24+commit.e67f0147.Emscripten.clang"
  },
  "schemaVersion": "3.0.19",
  "updatedAt": "2019-12-05T14:14:58.380Z",
  "networkType": "ethereum"
}