{
  "contractName": "PausableProxyMock",
  "abi": [
    {
      "constant": true,
      "inputs": [],
      "name": "count",
      "outputs": [
        {
          "name": "",
          "type": "int256"
        }
      ],
      "payable": false,
      "stateMutability": "view",
      "type": "function"
    },
    {
      "payable": true,
      "stateMutability": "payable",
      "type": "fallback"
    },
    {
      "constant": false,
      "inputs": [],
      "name": "pause",
      "outputs": [],
      "payable": false,
      "stateMutability": "nonpayable",
      "type": "function"
    },
    {
      "constant": false,
      "inputs": [],
      "name": "unpause",
      "outputs": [],
      "payable": false,
      "stateMutability": "nonpayable",
      "type": "function"
    },
    {
      "constant": false,
      "inputs": [],
      "name": "callableWhenNotPaused",
      "outputs": [],
      "payable": false,
      "stateMutability": "nonpayable",
      "type": "function"
    },
    {
      "constant": false,
      "inputs": [],
      "name": "callableWhenPaused",
      "outputs": [],
      "payable": false,
      "stateMutability": "nonpayable",
      "type": "function"
    }
  ],
  "bytecode": "0x608060408190527f6f72672e6d6f6e657468612e70726f78792e7061757365640000000000000000905261027a806100386000396000f30060806040526004361061006c5763ffffffff7c010000000000000000000000000000000000000000000000000000000060003504166306661abd811461006e5780633f4ba83a146100955780638456cb59146100aa57806389c7d598146100bf578063d846a5b1146100d4575b005b34801561007a57600080fd5b506100836100e9565b60408051918252519081900360200190f35b3480156100a157600080fd5b5061006c6100ef565b3480156100b657600080fd5b5061006c6100fb565b3480156100cb57600080fd5b5061006c610105565b3480156100e057600080fd5b5061006c610186565b60005481565b6100f96000610205565b565b6100f96001610205565b61010d610229565b151561017a57604080517f08c379a000000000000000000000000000000000000000000000000000000000815260206004820152601960248201527f636f6e74726163742073686f756c642062652070617573656400000000000000604482015290519081900360640190fd5b60008054600019019055565b61018e610229565b156101fa57604080517f08c379a000000000000000000000000000000000000000000000000000000000815260206004820152601d60248201527f636f6e74726163742073686f756c64206e6f7420626520706175736564000000604482015290519081900360640190fd5b600080546001019055565b7f9e7945c55c116aa3404b99fe56db7af9613d3b899554a437c2616a4749a94d8a55565b7f9e7945c55c116aa3404b99fe56db7af9613d3b899554a437c2616a4749a94d8a54905600a165627a7a72305820d5eb32692c76011a5cc9c7704954b0fe48135d3e008da9c80cbfe41f770353b10029",
  "source": "pragma solidity ^0.4.24;\n\nimport \"../lifecycle/PausableProxy.sol\";\n\ncontract PausableProxyMock is PausableProxy {\n    int256 public count;\n\n    function() payable public {}\n\n    function pause() public {\n        _setPaused(true);\n    }\n\n    function unpause() public {\n        _setPaused(false);\n    }\n\n    function callableWhenNotPaused() public whenNotPaused {\n        count++;\n    }\n\n    function callableWhenPaused() public whenPaused {\n        count--;\n    }\n}",
  "sourcePath": "C:\\src\\monetha\\reputation-js-sdk-example\\deployer\\tmp\\contracts\\mocks\\PausableProxyMock.sol",
  "compiler": {
    "name": "solc",
    "version": "0.4.24+commit.e67f0147.Emscripten.clang"
  },
  "schemaVersion": "2.0.1",
  "updatedAt": "2019-10-29T13:00:35.385Z"
}