{
  "contractName": "PrivateDataStorageLogic",
  "abi": [
    {
      "constant": true,
      "inputs": [],
      "name": "privateDataExchangeAcceptTimeout",
      "outputs": [
        {
          "name": "",
          "type": "uint256"
        }
      ],
      "payable": false,
      "stateMutability": "view",
      "type": "function"
    },
    {
      "constant": true,
      "inputs": [
        {
          "name": "_address",
          "type": "address"
        }
      ],
      "name": "isAllowedFactProvider",
      "outputs": [
        {
          "name": "",
          "type": "bool"
        }
      ],
      "payable": false,
      "stateMutability": "view",
      "type": "function"
    },
    {
      "constant": false,
      "inputs": [
        {
          "name": "_onlyWhitelist",
          "type": "bool"
        }
      ],
      "name": "setWhitelistOnlyPermission",
      "outputs": [],
      "payable": false,
      "stateMutability": "nonpayable",
      "type": "function"
    },
    {
      "constant": false,
      "inputs": [],
      "name": "claimOwnership",
      "outputs": [],
      "payable": false,
      "stateMutability": "nonpayable",
      "type": "function"
    },
    {
      "constant": true,
      "inputs": [],
      "name": "isWhitelistOnlyPermissionSet",
      "outputs": [
        {
          "name": "",
          "type": "bool"
        }
      ],
      "payable": false,
      "stateMutability": "view",
      "type": "function"
    },
    {
      "constant": false,
      "inputs": [
        {
          "name": "_address",
          "type": "address"
        }
      ],
      "name": "removeFactProviderFromWhitelist",
      "outputs": [],
      "payable": false,
      "stateMutability": "nonpayable",
      "type": "function"
    },
    {
      "constant": true,
      "inputs": [
        {
          "name": "",
          "type": "uint256"
        }
      ],
      "name": "privateDataExchanges",
      "outputs": [
        {
          "name": "dataRequester",
          "type": "address"
        },
        {
          "name": "dataRequesterValue",
          "type": "uint256"
        },
        {
          "name": "passportOwner",
          "type": "address"
        },
        {
          "name": "passportOwnerValue",
          "type": "uint256"
        },
        {
          "name": "factProvider",
          "type": "address"
        },
        {
          "name": "key",
          "type": "bytes32"
        },
        {
          "name": "dataIPFSHash",
          "type": "string"
        },
        {
          "name": "dataKeyHash",
          "type": "bytes32"
        },
        {
          "name": "encryptedExchangeKey",
          "type": "bytes"
        },
        {
          "name": "exchangeKeyHash",
          "type": "bytes32"
        },
        {
          "name": "encryptedDataKey",
          "type": "bytes32"
        },
        {
          "name": "state",
          "type": "uint8"
        },
        {
          "name": "stateExpired",
          "type": "uint256"
        }
      ],
      "payable": false,
      "stateMutability": "view",
      "type": "function"
    },
    {
      "constant": false,
      "inputs": [],
      "name": "renounceOwnership",
      "outputs": [],
      "payable": false,
      "stateMutability": "nonpayable",
      "type": "function"
    },
    {
      "constant": true,
      "inputs": [
        {
          "name": "_address",
          "type": "address"
        }
      ],
      "name": "isFactProviderInWhitelist",
      "outputs": [
        {
          "name": "",
          "type": "bool"
        }
      ],
      "payable": false,
      "stateMutability": "view",
      "type": "function"
    },
    {
      "constant": true,
      "inputs": [],
      "name": "owner",
      "outputs": [
        {
          "name": "",
          "type": "address"
        }
      ],
      "payable": false,
      "stateMutability": "view",
      "type": "function"
    },
    {
      "constant": true,
      "inputs": [],
      "name": "privateDataExchangeProposeTimeout",
      "outputs": [
        {
          "name": "",
          "type": "uint256"
        }
      ],
      "payable": false,
      "stateMutability": "view",
      "type": "function"
    },
    {
      "constant": false,
      "inputs": [
        {
          "name": "_address",
          "type": "address"
        }
      ],
      "name": "addFactProviderToWhitelist",
      "outputs": [],
      "payable": false,
      "stateMutability": "nonpayable",
      "type": "function"
    },
    {
      "constant": true,
      "inputs": [],
      "name": "openPrivateDataExchangesCount",
      "outputs": [
        {
          "name": "",
          "type": "uint256"
        }
      ],
      "payable": false,
      "stateMutability": "view",
      "type": "function"
    },
    {
      "constant": true,
      "inputs": [],
      "name": "pendingOwner",
      "outputs": [
        {
          "name": "",
          "type": "address"
        }
      ],
      "payable": false,
      "stateMutability": "view",
      "type": "function"
    },
    {
      "constant": false,
      "inputs": [
        {
          "name": "newOwner",
          "type": "address"
        }
      ],
      "name": "transferOwnership",
      "outputs": [],
      "payable": false,
      "stateMutability": "nonpayable",
      "type": "function"
    },
    {
      "anonymous": false,
      "inputs": [
        {
          "indexed": true,
          "name": "factProvider",
          "type": "address"
        },
        {
          "indexed": true,
          "name": "key",
          "type": "bytes32"
        }
      ],
      "name": "PrivateDataHashesUpdated",
      "type": "event"
    },
    {
      "anonymous": false,
      "inputs": [
        {
          "indexed": true,
          "name": "factProvider",
          "type": "address"
        },
        {
          "indexed": true,
          "name": "key",
          "type": "bytes32"
        }
      ],
      "name": "PrivateDataHashesDeleted",
      "type": "event"
    },
    {
      "anonymous": false,
      "inputs": [
        {
          "indexed": true,
          "name": "exchangeIdx",
          "type": "uint256"
        },
        {
          "indexed": true,
          "name": "dataRequester",
          "type": "address"
        },
        {
          "indexed": true,
          "name": "passportOwner",
          "type": "address"
        }
      ],
      "name": "PrivateDataExchangeProposed",
      "type": "event"
    },
    {
      "anonymous": false,
      "inputs": [
        {
          "indexed": true,
          "name": "exchangeIdx",
          "type": "uint256"
        },
        {
          "indexed": true,
          "name": "dataRequester",
          "type": "address"
        },
        {
          "indexed": true,
          "name": "passportOwner",
          "type": "address"
        }
      ],
      "name": "PrivateDataExchangeAccepted",
      "type": "event"
    },
    {
      "anonymous": false,
      "inputs": [
        {
          "indexed": true,
          "name": "exchangeIdx",
          "type": "uint256"
        }
      ],
      "name": "PrivateDataExchangeClosed",
      "type": "event"
    },
    {
      "anonymous": false,
      "inputs": [
        {
          "indexed": true,
          "name": "exchangeIdx",
          "type": "uint256"
        },
        {
          "indexed": true,
          "name": "successful",
          "type": "bool"
        },
        {
          "indexed": true,
          "name": "cheater",
          "type": "address"
        }
      ],
      "name": "PrivateDataExchangeDisputed",
      "type": "event"
    },
    {
      "anonymous": false,
      "inputs": [
        {
          "indexed": true,
          "name": "onlyWhitelist",
          "type": "bool"
        }
      ],
      "name": "WhitelistOnlyPermissionSet",
      "type": "event"
    },
    {
      "anonymous": false,
      "inputs": [
        {
          "indexed": true,
          "name": "factProvider",
          "type": "address"
        }
      ],
      "name": "WhitelistFactProviderAdded",
      "type": "event"
    },
    {
      "anonymous": false,
      "inputs": [
        {
          "indexed": true,
          "name": "factProvider",
          "type": "address"
        }
      ],
      "name": "WhitelistFactProviderRemoved",
      "type": "event"
    },
    {
      "anonymous": false,
      "inputs": [
        {
          "indexed": true,
          "name": "previousOwner",
          "type": "address"
        }
      ],
      "name": "OwnershipRenounced",
      "type": "event"
    },
    {
      "anonymous": false,
      "inputs": [
        {
          "indexed": true,
          "name": "previousOwner",
          "type": "address"
        },
        {
          "indexed": true,
          "name": "newOwner",
          "type": "address"
        }
      ],
      "name": "OwnershipTransferred",
      "type": "event"
    },
    {
      "constant": false,
      "inputs": [
        {
          "name": "_key",
          "type": "bytes32"
        },
        {
          "name": "_dataIPFSHash",
          "type": "string"
        },
        {
          "name": "_dataKeyHash",
          "type": "bytes32"
        }
      ],
      "name": "setPrivateDataHashes",
      "outputs": [],
      "payable": false,
      "stateMutability": "nonpayable",
      "type": "function"
    },
    {
      "constant": false,
      "inputs": [
        {
          "name": "_key",
          "type": "bytes32"
        }
      ],
      "name": "deletePrivateDataHashes",
      "outputs": [],
      "payable": false,
      "stateMutability": "nonpayable",
      "type": "function"
    },
    {
      "constant": true,
      "inputs": [
        {
          "name": "_factProvider",
          "type": "address"
        },
        {
          "name": "_key",
          "type": "bytes32"
        }
      ],
      "name": "getPrivateDataHashes",
      "outputs": [
        {
          "name": "success",
          "type": "bool"
        },
        {
          "name": "dataIPFSHash",
          "type": "string"
        },
        {
          "name": "dataKeyHash",
          "type": "bytes32"
        }
      ],
      "payable": false,
      "stateMutability": "view",
      "type": "function"
    },
    {
      "constant": true,
      "inputs": [],
      "name": "getPrivateDataExchangesCount",
      "outputs": [
        {
          "name": "count",
          "type": "uint256"
        }
      ],
      "payable": false,
      "stateMutability": "view",
      "type": "function"
    },
    {
      "constant": false,
      "inputs": [
        {
          "name": "_factProvider",
          "type": "address"
        },
        {
          "name": "_key",
          "type": "bytes32"
        },
        {
          "name": "_encryptedExchangeKey",
          "type": "bytes"
        },
        {
          "name": "_exchangeKeyHash",
          "type": "bytes32"
        }
      ],
      "name": "proposePrivateDataExchange",
      "outputs": [],
      "payable": true,
      "stateMutability": "payable",
      "type": "function"
    },
    {
      "constant": false,
      "inputs": [
        {
          "name": "_exchangeIdx",
          "type": "uint256"
        },
        {
          "name": "_encryptedDataKey",
          "type": "bytes32"
        }
      ],
      "name": "acceptPrivateDataExchange",
      "outputs": [],
      "payable": true,
      "stateMutability": "payable",
      "type": "function"
    },
    {
      "constant": false,
      "inputs": [
        {
          "name": "_exchangeIdx",
          "type": "uint256"
        }
      ],
      "name": "finishPrivateDataExchange",
      "outputs": [],
      "payable": false,
      "stateMutability": "nonpayable",
      "type": "function"
    },
    {
      "constant": false,
      "inputs": [
        {
          "name": "_exchangeIdx",
          "type": "uint256"
        }
      ],
      "name": "timeoutPrivateDataExchange",
      "outputs": [],
      "payable": false,
      "stateMutability": "nonpayable",
      "type": "function"
    },
    {
      "constant": false,
      "inputs": [
        {
          "name": "_exchangeIdx",
          "type": "uint256"
        },
        {
          "name": "_exchangeKey",
          "type": "bytes32"
        }
      ],
      "name": "disputePrivateDataExchange",
      "outputs": [],
      "payable": false,
      "stateMutability": "nonpayable",
      "type": "function"
    }
  ],
  "bytecode": "0x608060408190527f6f72672e6d6f6e657468612e70726f78792e6f776e6572000000000000000000905261003b3364010000000061009a810204565b604080517f6f72672e6d6f6e657468612e70726f78792e70656e64696e674f776e657200008152905190819003601e0190207fcfd0c6ea5352192d7d4c5d4e7a73c5da12c871730cb60ff57879cbe7b403bb521461009557fe5b6100be565b7f3ca57e4b51fc2e18497b219410298879868edada7e6fe5132c8feceb0a080d2255565b611f99806100cd6000396000f30060806040526004361061013d5763ffffffff7c010000000000000000000000000000000000000000000000000000000060003504166306427a88811461014257806308c504981461015c5780630a25652514610174578063208881581461019b5780632b42a89a146101d05780632db27bd2146101ea5780634e71e0c81461029557806361a2d076146102aa57806363019d1d146102bf5780636d4e7802146102d75780636f618f9a146102f8578063715018a61461049f5780637dd291e4146104b457806386ca9a7c146104c95780638ae44a08146104d75780638da5cb5b146104f8578063ab338e3614610174578063ac0aeb1a14610529578063caa95f1b1461054a578063cea332cc1461055f578063e30c397814610586578063e75a836a1461059b578063f2fde38b146105c2578063fc2d0584146105e3575b600080fd5b34801561014e57600080fd5b5061015a6004356105fe565b005b34801561016857600080fd5b5061015a600435610836565b34801561018057600080fd5b50610189610a56565b60408051918252519081900360200190f35b3480156101a757600080fd5b506101bc600160a060020a0360043516610a5d565b604080519115158252519081900360200190f35b3480156101dc57600080fd5b5061015a6004351515610ab3565b3480156101f657600080fd5b5061020e600160a060020a0360043516602435610b0c565b604080518415158152908101829052606060208083018281528551928401929092528451608084019186019080838360005b83811015610258578181015183820152602001610240565b50505050905090810190601f1680156102855780820380516001836020036101000a031916815260200191505b5094505050505060405180910390f35b3480156102a157600080fd5b5061015a610b29565b3480156102b657600080fd5b506101bc610c0c565b3480156102cb57600080fd5b5061015a600435610c16565b3480156102e357600080fd5b5061015a600160a060020a0360043516610c22565b34801561030457600080fd5b50610310600435610c87565b604051808e600160a060020a0316600160a060020a031681526020018d81526020018c600160a060020a0316600160a060020a031681526020018b81526020018a600160a060020a0316600160a060020a03168152602001896000191660001916815260200180602001886000191660001916815260200180602001876000191660001916815260200186600019166000191681526020018560028111156103b457fe5b60ff16815260200184815260200183810383528a818151815260200191508051906020019080838360005b838110156103f75781810151838201526020016103df565b50505050905090810190601f1680156104245780820380516001836020036101000a031916815260200191505b5083810382528851815288516020918201918a019080838360005b8381101561045757818101518382015260200161043f565b50505050905090810190601f1680156104845780820380516001836020036101000a031916815260200191505b509f5050505050505050505050505050505060405180910390f35b3480156104ab57600080fd5b5061015a610e27565b3480156104c057600080fd5b50610189610ee7565b61015a600435602435610eed565b3480156104e357600080fd5b506101bc600160a060020a0360043516611184565b34801561050457600080fd5b5061050d6111a2565b60408051600160a060020a039092168252519081900360200190f35b34801561053557600080fd5b5061015a600160a060020a03600435166111b1565b34801561055657600080fd5b50610189611219565b61015a60048035600160a060020a031690602480359160443591820191013560643561121f565b34801561059257600080fd5b5061050d6115b1565b3480156105a757600080fd5b5061015a6004803590602480359081019101356044356115bb565b3480156105ce57600080fd5b5061015a600160a060020a03600435166115fd565b3480156105ef57600080fd5b5061015a60043560243561167f565b600c546000908190831061064a576040805160e560020a62461bcd0281526020600482015260166024820152600080516020611f4e833981519152604482015290519081900360640190fd5b600c80548490811061065857fe5b60009182526020909120600d90910201600b81015490925060ff16600281111561067e57fe5b6002146106e3576040805160e560020a62461bcd02815260206004820152602260248201527f65786368616e6765206d75737420626520696e20616363657074656420737461604482015260f060020a61746502606482015290519081900360840190fd5b81600c01546106f0611aba565b118061070557508154600160a060020a031633145b15156107a8576040805160e560020a62461bcd028152602060048201526044602482018190527f65786368616e6765206d75737420626520656974686572206578706972656420908201527f6f722062652066696e697368656420627920746865206461746120726571756560648201527f7374657200000000000000000000000000000000000000000000000000000000608482015290519081900360a40190fd5b600b8201805460ff19169055600382015460018301546107c791611add565b6002830154604051919250600160a060020a03169082156108fc029083906000818181858888f1935050505015156107fe57600080fd5b610806611aea565b60405183907f5d1a7ae2ffda31cae15ed5129d32260ef2a270a21325f536f7954ed297e52c8e90600090a2505050565b600c546000908210610880576040805160e560020a62461bcd0281526020600482015260166024820152600080516020611f4e833981519152604482015290519081900360640190fd5b600c80548390811061088e57fe5b60009182526020909120600d90910201600b81015490915060ff1660028111156108b457fe5b600114610919576040805160e560020a62461bcd02815260206004820152602260248201527f65786368616e6765206d75737420626520696e2070726f706f73656420737461604482015260f060020a61746502606482015290519081900360840190fd5b8054600160a060020a0316331461097a576040805160e560020a62461bcd02815260206004820152601b60248201527f6f6e6c7920646174612072657175657374657220616c6c6f7765640000000000604482015290519081900360640190fd5b80600c0154610987611aba565b116109dc576040805160e560020a62461bcd02815260206004820152601860248201527f65786368616e6765206d75737420626520657870697265640000000000000000604482015290519081900360640190fd5b600b8101805460ff1916905580546001820154604051600160a060020a03909216916108fc82150291906000818181858888f193505050501515610a1f57600080fd5b610a27611aea565b60405182907f5d1a7ae2ffda31cae15ed5129d32260ef2a270a21325f536f7954ed297e52c8e90600090a25050565b6201518081565b60075460009060ff161580610a8a5750600160a060020a03821660009081526008602052604090205460ff165b80610aad5750610a98611b06565b600160a060020a031682600160a060020a0316145b92915050565b610abb611b06565b600160a060020a03163314610acf57600080fd5b6007805460ff19168215159081179091556040517f6e1eb3fa845047cf9d5fd1deb1b7770b4e26163dd4d88cefb14fe7964a70059590600090a250565b600060606000610b1c8585611b2b565b9250925092509250925092565b610b31611bfb565b600160a060020a03163314610b4557600080fd5b610b4d611c20565b15610ba2576040805160e560020a62461bcd02815260206004820152601d60248201527f636f6e74726163742073686f756c64206e6f7420626520706175736564000000604482015290519081900360640190fd5b610baa611bfb565b600160a060020a0316610bbb611b06565b600160a060020a03167f8be0079c531659141344cd1fd0a4f28419497f9722a3daafe3b4186f6b6457e060405160405180910390a3610c00610bfb611bfb565b611c45565b610c0a6000611c69565b565b60075460ff165b90565b610c1f81611c8d565b50565b610c2a611b06565b600160a060020a03163314610c3e57600080fd5b600160a060020a038116600081815260086020526040808220805460ff19169055517f5bf47f016603dfff957e6086bd9a350212686e8f1d9208b3db47c5a3107c78789190a250565b600c805482908110610c9557fe5b6000918252602091829020600d90910201805460018083015460028085015460038601546004870154600588015460068901805460408051601f6000199b841615610100029b909b01909216979097049889018c90048c0281018c01909652878652600160a060020a039889169b50959993881698929791909116959094919392830182828015610d675780601f10610d3c57610100808354040283529160200191610d67565b820191906000526020600020905b815481529060010190602001808311610d4a57829003601f168201915b50505050600783015460088401805460408051602060026001851615610100026000190190941693909304601f81018490048402820184019092528181529596939593945090830182828015610dfe5780601f10610dd357610100808354040283529160200191610dfe565b820191906000526020600020905b815481529060010190602001808311610de157829003601f168201915b5050506009840154600a850154600b860154600c909601549495919490935060ff90911691508d565b610e2f611b06565b600160a060020a03163314610e4357600080fd5b610e4b611c20565b15610ea0576040805160e560020a62461bcd02815260206004820152601d60248201527f636f6e74726163742073686f756c64206e6f7420626520706175736564000000604482015290519081900360640190fd5b610ea8611b06565b600160a060020a03167ff8df31144d9c2f0f6b59d69b8b98abd5459d07f2742c4df920b25aae33c6482060405160405180910390a2610c0a6000611c45565b600c5490565b600c546000908310610f37576040805160e560020a62461bcd0281526020600482015260166024820152600080516020611f4e833981519152604482015290519081900360640190fd5b600c805484908110610f4557fe5b60009182526020909120600d909102016002810154909150600160a060020a03163314610fbc576040805160e560020a62461bcd02815260206004820152601b60248201527f6f6e6c792070617373706f7274206f776e657220616c6c6f7765640000000000604482015290519081900360640190fd5b600b81015460ff166002811115610fcf57fe5b600114611034576040805160e560020a62461bcd02815260206004820152602260248201527f65786368616e6765206d75737420626520696e2070726f706f73656420737461604482015260f060020a61746502606482015290519081900360840190fd5b60018101543410156110b6576040805160e560020a62461bcd02815260206004820152602c60248201527f6e65656420746f207374616b65206174206c656173742064617461207265717560448201527f657374657220616d6f756e740000000000000000000000000000000000000000606482015290519081900360840190fd5b80600c01546110c3611aba565b10611118576040805160e560020a62461bcd02815260206004820152601660248201527f65786368616e6765207374617465206578706972656400000000000000000000604482015290519081900360640190fd5b346003820155600a8101829055600b8101805460ff1916600217905562015180611140611aba565b01600c82015580546040513391600160a060020a03169085907f843dda373d0d243dce80a6cd203b9cbba8576d036c7eb937f9de36ebe6e8b02390600090a4505050565b600160a060020a031660009081526008602052604090205460ff1690565b60006111ac611b06565b905090565b6111b9611b06565b600160a060020a031633146111cd57600080fd5b600160a060020a038116600081815260086020526040808220805460ff19166001179055517fff8ac5f0e9cdc8f7ffbbc29ab1301ee649cf01cf7a6a9265a2d90587612c41759190a250565b600b5481565b600060606000806000611230611e0e565b600061123c8c8c611b2b565b965096509650861515611299576040805160e560020a62461bcd02815260206004820152601760248201527f707269766174652064617461206d757374206578697374000000000000000000604482015290519081900360640190fd5b6112a1611b06565b93506101a06040519081016040528033600160a060020a0316815260200134815260200185600160a060020a03168152602001600081526020018d600160a060020a031681526020018c600019168152602001878152602001866000191681526020018b8b8080601f016020809104026020016040519081016040528093929190818152602001838380828437505050928452505050602081018a905260408101859052606001600181526020016201518061135b611aba565b019052600c8054600181018083556000929092528251600d9091027fdf6966c971051c3d54ec59162606531493a51404a002842f56009d7e5cf4a8c781018054600160a060020a0393841673ffffffffffffffffffffffffffffffffffffffff199182161782556020808701517fdf6966c971051c3d54ec59162606531493a51404a002842f56009d7e5cf4a8c885015560408701517fdf6966c971051c3d54ec59162606531493a51404a002842f56009d7e5cf4a8c98501805491871691841691909117905560608701517fdf6966c971051c3d54ec59162606531493a51404a002842f56009d7e5cf4a8ca85015560808701517fdf6966c971051c3d54ec59162606531493a51404a002842f56009d7e5cf4a8cb850180549190961692169190911790935560a08501517fdf6966c971051c3d54ec59162606531493a51404a002842f56009d7e5cf4a8cc83015560c085015180519597509394879491936114e9937fdf6966c971051c3d54ec59162606531493a51404a002842f56009d7e5cf4a8cd01920190611e79565b5060e082015160078201556101008201518051611510916008840191602090910190611e79565b506101208201516009820155610140820151600a820155610160820151600b8201805460ff1916600183600281111561154557fe5b021790555061018082015181600c0155505050611560611d0f565b50600c5460405160001990910190600160a060020a03851690339083907fabe53237e9ea366da7fa5507ac62db22bd446d6b66bcff4a6d6c1b11e9af198390600090a4505050505050505050505050565b60006111ac611bfb565b6115f78484848080601f01602080910402602001604051908101604052809392919081815260200183838082843750889450611d2c9350505050565b50505050565b611605611b06565b600160a060020a0316331461161957600080fd5b611621611c20565b15611676576040805160e560020a62461bcd02815260206004820152601d60248201527f636f6e74726163742073686f756c64206e6f7420626520706175736564000000604482015290519081900360640190fd5b610c1f81611c69565b6000806000806000600c80549050871015156116d3576040805160e560020a62461bcd0281526020600482015260166024820152600080516020611f4e833981519152604482015290519081900360640190fd5b600c8054889081106116e157fe5b60009182526020909120600d90910201600b81015490955060ff16600281111561170757fe5b60021461176c576040805160e560020a62461bcd02815260206004820152602260248201527f65786368616e6765206d75737420626520696e20616363657074656420737461604482015260f060020a61746502606482015290519081900360840190fd5b8454600160a060020a031633146117cd576040805160e560020a62461bcd02815260206004820152601b60248201527f6f6e6c7920646174612072657175657374657220616c6c6f7765640000000000604482015290519081900360640190fd5b84600c01546117da611aba565b1061182f576040805160e560020a62461bcd02815260206004820152601c60248201527f65786368616e6765206d757374206e6f74206265206578706972656400000000604482015290519081900360640190fd5b60098501546040805160208082018a905282518083038201815291830192839052815191929182918401908083835b6020831061187d5780518252601f19909201916020918201910161185e565b6001836020036101000a038019825116818451168082178552505050505050905001915050604051809103902060001916141515611905576040805160e560020a62461bcd02815260206004820152601c60248201527f65786368616e6765206b65792068617368206d757374206d6174636800000000604482015290519081900360640190fd5b600a85015460078601546040805192891860208085018290528251808603820181529483019283905284519198509293928291908401908083835b6020831061195f5780518252601f199092019160209182019101611940565b5181516020939093036101000a60001901801990911692169190911790526040519201829003909120600b8a01805460ff1916905560038a015460018b01549590911497506119b39493509150611add9050565b91508215611a02576002850154604051600160a060020a039091169083156108fc029084906000818181858888f1935050505015156119f157600080fd5b508354600160a060020a0316611a45565b8454604051600160a060020a039091169083156108fc029084906000818181858888f193505050501515611a3557600080fd5b506002840154600160a060020a03165b611a4d611aea565b60405187907f5d1a7ae2ffda31cae15ed5129d32260ef2a270a21325f536f7954ed297e52c8e90600090a2604051600160a060020a0382169084159089907f540941e0fc2370abde0bfa6ddbb49188469597e518416fa24327f39469c9b2ec90600090a450505050505050565b600042670214e8348c4f0000811115611ad557633b9aca0090045b8091505b5090565b81810182811015610aad57fe5b600b805460001901908190551515610c0a57610c0a6000611dea565b7f3ca57e4b51fc2e18497b219410298879868edada7e6fe5132c8feceb0a080d225490565b600160a060020a0382166000908152600a6020908152604080832084845282528083208054600280830154600180850180548751601f93821615610100026000190190911694909404918201889004880284018801909652808352606096889660ff9095169493918491830182828015611be65780601f10611bbb57610100808354040283529160200191611be6565b820191906000526020600020905b815481529060010190602001808311611bc957829003601f168201915b50505050509150935093509350509250925092565b7fcfd0c6ea5352192d7d4c5d4e7a73c5da12c871730cb60ff57879cbe7b403bb525490565b7f9e7945c55c116aa3404b99fe56db7af9613d3b899554a437c2616a4749a94d8a5490565b7f3ca57e4b51fc2e18497b219410298879868edada7e6fe5132c8feceb0a080d2255565b7fcfd0c6ea5352192d7d4c5d4e7a73c5da12c871730cb60ff57879cbe7b403bb5255565b611c9633610a5d565b1515611ca157600080fd5b336000908152600a602090815260408083208484529091528120805460ff19168155906001820181611cd38282611ef3565b5060006001919091018190556040518493503392507f9cad6db22e9f7e2a3441e18ef08567fa48da09796f593ded4222f0a315f986019190a350565b600b80546001908101918290551415610c0a57610c0a6001611dea565b611d3533610a5d565b1515611d4057600080fd5b6040805180820182526001808252825180840184528581526020808201869052808401918252336000908152600a82528581208982528252949094208351815460ff1916901515178155905180518051949592949193850192611da892849290910190611e79565b50602091909101516001909101555050604051839033907f0ed4013fbc8174781b18a7aa1cce7d589bc1fc3509941835787881ed2ab8b48e90600090a3505050565b7f9e7945c55c116aa3404b99fe56db7af9613d3b899554a437c2616a4749a94d8a55565b604080516101a08101825260008082526020820181905291810182905260608082018390526080820183905260a0820183905260c0820181905260e0820183905261010082015261012081018290526101408101829052906101608201908152602001600081525090565b828054600181600116156101000203166002900490600052602060002090601f016020900481019282601f10611eba57805160ff1916838001178555611ee7565b82800160010185558215611ee7579182015b82811115611ee7578251825591602001919060010190611ecc565b50611ad9929150611f33565b50805460018160011615610100020316600290046000825580601f10611f195750610c1f565b601f016020900490600052602060002090810190610c1f91905b610c1391905b80821115611ad95760008155600101611f395600696e76616c69642065786368616e676520696e64657800000000000000000000a165627a7a723058204472929c95d65ece94b3ed962ab8903ee86391344a0572e338a16645f72d1c150029",
  "source": "pragma solidity ^0.4.24;\n\nimport \"openzeppelin-solidity/contracts/math/SafeMath.sol\";\nimport \"./Storage.sol\";\n\ncontract PrivateDataStorageLogic is Storage {\n    using SafeMath for uint256;\n\n    event PrivateDataHashesUpdated(address indexed factProvider, bytes32 indexed key);\n    event PrivateDataHashesDeleted(address indexed factProvider, bytes32 indexed key);\n\n    event PrivateDataExchangeProposed(uint256 indexed exchangeIdx, address indexed dataRequester, address indexed passportOwner);\n    event PrivateDataExchangeAccepted(uint256 indexed exchangeIdx, address indexed dataRequester, address indexed passportOwner);\n    event PrivateDataExchangeClosed(uint256 indexed exchangeIdx);\n    event PrivateDataExchangeDisputed(uint256 indexed exchangeIdx, bool indexed successful, address indexed cheater);\n\n    uint256 constant public privateDataExchangeProposeTimeout = 1 days;\n    uint256 constant public privateDataExchangeAcceptTimeout = 1 days;\n\n    /// @param _key The key for the record\n    /// @param _dataIPFSHash The IPFS hash of encrypted private data\n    /// @param _dataKeyHash The hash of symmetric key that was used to encrypt the data\n    function setPrivateDataHashes(bytes32 _key, string _dataIPFSHash, bytes32 _dataKeyHash) external {\n        _setPrivateDataHashes(_key, _dataIPFSHash, _dataKeyHash);\n    }\n\n    /// @param _key The key for the record\n    function deletePrivateDataHashes(bytes32 _key) external {\n        _deletePrivateDataHashes(_key);\n    }\n\n    /// @param _factProvider The fact provider\n    /// @param _key The key for the record\n    function getPrivateDataHashes(address _factProvider, bytes32 _key) external view returns (bool success, string dataIPFSHash, bytes32 dataKeyHash) {\n        return _getPrivateDataHashes(_factProvider, _key);\n    }\n\n    /**\n     * @dev returns the number of private data exchanges created.\n     */\n    function getPrivateDataExchangesCount() public constant returns (uint256 count) {\n        return privateDataExchanges.length;\n    }\n\n    /// @param _factProvider The fact provider\n    /// @param _key The key for the record\n    /// @param _encryptedExchangeKey The encrypted exchange session key (only passport owner can decrypt it)\n    /// @param _exchangeKeyHash The hash of exchange session key\n    function proposePrivateDataExchange(\n        address _factProvider,\n        bytes32 _key,\n        bytes _encryptedExchangeKey,\n        bytes32 _exchangeKeyHash\n    ) external payable {\n        (bool success, string memory dataIPFSHash, bytes32 dataKeyHash) = _getPrivateDataHashes(_factProvider, _key);\n        require(success, \"private data must exist\");\n\n        address passportOwner = _getOwner();\n        bytes32 encryptedDataKey;\n        PrivateDataExchange memory exchange = PrivateDataExchange({\n            dataRequester : msg.sender,\n            dataRequesterValue : msg.value,\n            passportOwner : passportOwner,\n            passportOwnerValue : 0,\n            factProvider : _factProvider,\n            key : _key,\n            dataIPFSHash : dataIPFSHash,\n            dataKeyHash : dataKeyHash,\n            encryptedExchangeKey : _encryptedExchangeKey,\n            exchangeKeyHash : _exchangeKeyHash,\n            encryptedDataKey : encryptedDataKey,\n            state : PrivateDataExchangeState.Proposed,\n            stateExpired : _nowSeconds() + privateDataExchangeProposeTimeout\n            });\n        privateDataExchanges.push(exchange);\n\n        _incOpenPrivateDataExchangesCount();\n\n        uint256 exchangeIdx = privateDataExchanges.length - 1;\n        emit PrivateDataExchangeProposed(exchangeIdx, msg.sender, passportOwner);\n    }\n\n    /// @param _exchangeIdx The private data exchange index\n    /// @param _encryptedDataKey The data symmetric key XORed with the exchange key\n    function acceptPrivateDataExchange(uint256 _exchangeIdx, bytes32 _encryptedDataKey) external payable {\n        require(_exchangeIdx < privateDataExchanges.length, \"invalid exchange index\");\n        PrivateDataExchange storage exchange = privateDataExchanges[_exchangeIdx];\n        require(msg.sender == exchange.passportOwner, \"only passport owner allowed\");\n        require(PrivateDataExchangeState.Proposed == exchange.state, \"exchange must be in proposed state\");\n        require(msg.value >= exchange.dataRequesterValue, \"need to stake at least data requester amount\");\n        require(_nowSeconds() < exchange.stateExpired, \"exchange state expired\");\n\n        exchange.passportOwnerValue = msg.value;\n        exchange.encryptedDataKey = _encryptedDataKey;\n        exchange.state = PrivateDataExchangeState.Accepted;\n        exchange.stateExpired = _nowSeconds() + privateDataExchangeAcceptTimeout;\n\n        emit PrivateDataExchangeAccepted(_exchangeIdx, exchange.dataRequester, msg.sender);\n    }\n\n    /// @param _exchangeIdx The private data exchange index\n    function finishPrivateDataExchange(uint256 _exchangeIdx) external {\n        require(_exchangeIdx < privateDataExchanges.length, \"invalid exchange index\");\n        PrivateDataExchange storage exchange = privateDataExchanges[_exchangeIdx];\n        require(PrivateDataExchangeState.Accepted == exchange.state, \"exchange must be in accepted state\");\n        require(_nowSeconds() > exchange.stateExpired || msg.sender == exchange.dataRequester, \"exchange must be either expired or be finished by the data requester\");\n\n        exchange.state = PrivateDataExchangeState.Closed;\n\n        // transfer all exchange staked money to passport owner\n        uint256 val = exchange.dataRequesterValue.add(exchange.passportOwnerValue);\n        require(exchange.passportOwner.send(val));\n\n        _decOpenPrivateDataExchangesCount();\n\n        emit PrivateDataExchangeClosed(_exchangeIdx);\n    }\n\n    /// @param _exchangeIdx The private data exchange index\n    function timeoutPrivateDataExchange(uint256 _exchangeIdx) external {\n        require(_exchangeIdx < privateDataExchanges.length, \"invalid exchange index\");\n        PrivateDataExchange storage exchange = privateDataExchanges[_exchangeIdx];\n        require(PrivateDataExchangeState.Proposed == exchange.state, \"exchange must be in proposed state\");\n        require(msg.sender == exchange.dataRequester, \"only data requester allowed\");\n        require(_nowSeconds() > exchange.stateExpired, \"exchange must be expired\");\n\n        exchange.state = PrivateDataExchangeState.Closed;\n\n        // return staked amount to data requester\n        require(exchange.dataRequester.send(exchange.dataRequesterValue));\n\n        _decOpenPrivateDataExchangesCount();\n\n        emit PrivateDataExchangeClosed(_exchangeIdx);\n    }\n\n    /// @param _exchangeIdx The private data exchange index\n    /// @param _exchangeKey The unencrypted exchange session key\n    function disputePrivateDataExchange(uint256 _exchangeIdx, bytes32 _exchangeKey) external {\n        require(_exchangeIdx < privateDataExchanges.length, \"invalid exchange index\");\n        PrivateDataExchange storage exchange = privateDataExchanges[_exchangeIdx];\n        require(PrivateDataExchangeState.Accepted == exchange.state, \"exchange must be in accepted state\");\n        require(msg.sender == exchange.dataRequester, \"only data requester allowed\");\n        require(_nowSeconds() < exchange.stateExpired, \"exchange must not be expired\");\n        require(keccak256(abi.encodePacked(_exchangeKey)) == exchange.exchangeKeyHash, \"exchange key hash must match\");\n\n        bytes32 dataKey = _exchangeKey ^ exchange.encryptedDataKey;\n        // data symmetric key is XORed with exchange key\n        bool validDataKey = keccak256(abi.encodePacked(dataKey)) == exchange.dataKeyHash;\n\n        exchange.state = PrivateDataExchangeState.Closed;\n\n        uint256 val = exchange.dataRequesterValue.add(exchange.passportOwnerValue);\n\n        address cheater;\n        if (validDataKey) {// the data key was valid -> data requester cheated\n            require(exchange.passportOwner.send(val));\n            cheater = exchange.dataRequester;\n        } else {// the data key is invalid -> passport owner cheated\n            require(exchange.dataRequester.send(val));\n            cheater = exchange.passportOwner;\n        }\n\n        _decOpenPrivateDataExchangesCount();\n\n        emit PrivateDataExchangeClosed(_exchangeIdx);\n        emit PrivateDataExchangeDisputed(_exchangeIdx, !validDataKey, cheater);\n    }\n\n    function _incOpenPrivateDataExchangesCount() internal {\n        if (++openPrivateDataExchangesCount == 1) {\n            // don't allow passport owner to transfer ownership and destroy passport when there are open exchanges\n            _setPaused(true);\n        }\n    }\n\n    function _decOpenPrivateDataExchangesCount() internal {\n        if (--openPrivateDataExchangesCount == 0) {\n            // allow passport owner to transfer ownership and destroy passport when all exchanges are closed\n            _setPaused(false);\n        }\n    }\n\n    function _setPrivateDataHashes(bytes32 _key, string _dataIPFSHash, bytes32 _dataKeyHash) allowedFactProvider internal {\n        privateDataStorage[msg.sender][_key] = PrivateDataValue({\n            initialized : true,\n            value : PrivateData({\n                dataIPFSHash : _dataIPFSHash,\n                dataKeyHash : _dataKeyHash\n                })\n            });\n        emit PrivateDataHashesUpdated(msg.sender, _key);\n    }\n\n    function _deletePrivateDataHashes(bytes32 _key) allowedFactProvider internal {\n        delete privateDataStorage[msg.sender][_key];\n        emit PrivateDataHashesDeleted(msg.sender, _key);\n    }\n\n    function _getPrivateDataHashes(address _factProvider, bytes32 _key) internal view returns (bool success, string dataIPFSHash, bytes32 dataKeyHash) {\n        PrivateDataValue storage initValue = privateDataStorage[_factProvider][_key];\n        return (initValue.initialized, initValue.value.dataIPFSHash, initValue.value.dataKeyHash);\n    }\n\n    function _nowSeconds() private view returns(uint256) {\n        uint256 t = now;\n\n        // In Quorum blockchain timestamp is in nanoseconds, not seconds:\n        // https://github.com/jpmorganchase/quorum/issues/713\n        // https://github.com/jpmorganchase/quorum/issues/190\n        if (t > 150000000000000000) {\n            t /= 1000000000;\n        }\n\n        return t;\n    }\n}",
  "sourcePath": "C:\\src\\monetha\\reputation-js-sdk-example\\deployer\\tmp\\contracts\\storage\\PrivateDataStorageLogic.sol",
  "compiler": {
    "name": "solc",
    "version": "0.4.24+commit.e67f0147.Emscripten.clang"
  },
  "schemaVersion": "2.0.1",
  "updatedAt": "2019-10-29T13:00:35.395Z"
}