{
  "contractName": "Storage",
  "abi": [
    {
      "constant": false,
      "inputs": [],
      "name": "claimOwnership",
      "outputs": [],
      "payable": false,
      "stateMutability": "nonpayable",
      "type": "function"
    },
    {
      "constant": true,
      "inputs": [
        {
          "name": "",
          "type": "uint256"
        }
      ],
      "name": "privateDataExchanges",
      "outputs": [
        {
          "name": "dataRequester",
          "type": "address"
        },
        {
          "name": "dataRequesterValue",
          "type": "uint256"
        },
        {
          "name": "passportOwner",
          "type": "address"
        },
        {
          "name": "passportOwnerValue",
          "type": "uint256"
        },
        {
          "name": "factProvider",
          "type": "address"
        },
        {
          "name": "key",
          "type": "bytes32"
        },
        {
          "name": "dataIPFSHash",
          "type": "string"
        },
        {
          "name": "dataKeyHash",
          "type": "bytes32"
        },
        {
          "name": "encryptedExchangeKey",
          "type": "bytes"
        },
        {
          "name": "exchangeKeyHash",
          "type": "bytes32"
        },
        {
          "name": "encryptedDataKey",
          "type": "bytes32"
        },
        {
          "name": "state",
          "type": "uint8"
        },
        {
          "name": "stateExpired",
          "type": "uint256"
        }
      ],
      "payable": false,
      "stateMutability": "view",
      "type": "function"
    },
    {
      "constant": false,
      "inputs": [],
      "name": "renounceOwnership",
      "outputs": [],
      "payable": false,
      "stateMutability": "nonpayable",
      "type": "function"
    },
    {
      "constant": true,
      "inputs": [],
      "name": "owner",
      "outputs": [
        {
          "name": "",
          "type": "address"
        }
      ],
      "payable": false,
      "stateMutability": "view",
      "type": "function"
    },
    {
      "constant": true,
      "inputs": [],
      "name": "openPrivateDataExchangesCount",
      "outputs": [
        {
          "name": "",
          "type": "uint256"
        }
      ],
      "payable": false,
      "stateMutability": "view",
      "type": "function"
    },
    {
      "constant": true,
      "inputs": [],
      "name": "pendingOwner",
      "outputs": [
        {
          "name": "",
          "type": "address"
        }
      ],
      "payable": false,
      "stateMutability": "view",
      "type": "function"
    },
    {
      "constant": false,
      "inputs": [
        {
          "name": "newOwner",
          "type": "address"
        }
      ],
      "name": "transferOwnership",
      "outputs": [],
      "payable": false,
      "stateMutability": "nonpayable",
      "type": "function"
    },
    {
      "anonymous": false,
      "inputs": [
        {
          "indexed": true,
          "name": "onlyWhitelist",
          "type": "bool"
        }
      ],
      "name": "WhitelistOnlyPermissionSet",
      "type": "event"
    },
    {
      "anonymous": false,
      "inputs": [
        {
          "indexed": true,
          "name": "factProvider",
          "type": "address"
        }
      ],
      "name": "WhitelistFactProviderAdded",
      "type": "event"
    },
    {
      "anonymous": false,
      "inputs": [
        {
          "indexed": true,
          "name": "factProvider",
          "type": "address"
        }
      ],
      "name": "WhitelistFactProviderRemoved",
      "type": "event"
    },
    {
      "anonymous": false,
      "inputs": [
        {
          "indexed": true,
          "name": "previousOwner",
          "type": "address"
        }
      ],
      "name": "OwnershipRenounced",
      "type": "event"
    },
    {
      "anonymous": false,
      "inputs": [
        {
          "indexed": true,
          "name": "previousOwner",
          "type": "address"
        },
        {
          "indexed": true,
          "name": "newOwner",
          "type": "address"
        }
      ],
      "name": "OwnershipTransferred",
      "type": "event"
    },
    {
      "constant": true,
      "inputs": [
        {
          "name": "_address",
          "type": "address"
        }
      ],
      "name": "isAllowedFactProvider",
      "outputs": [
        {
          "name": "",
          "type": "bool"
        }
      ],
      "payable": false,
      "stateMutability": "view",
      "type": "function"
    },
    {
      "constant": true,
      "inputs": [],
      "name": "isWhitelistOnlyPermissionSet",
      "outputs": [
        {
          "name": "",
          "type": "bool"
        }
      ],
      "payable": false,
      "stateMutability": "view",
      "type": "function"
    },
    {
      "constant": false,
      "inputs": [
        {
          "name": "_onlyWhitelist",
          "type": "bool"
        }
      ],
      "name": "setWhitelistOnlyPermission",
      "outputs": [],
      "payable": false,
      "stateMutability": "nonpayable",
      "type": "function"
    },
    {
      "constant": true,
      "inputs": [
        {
          "name": "_address",
          "type": "address"
        }
      ],
      "name": "isFactProviderInWhitelist",
      "outputs": [
        {
          "name": "",
          "type": "bool"
        }
      ],
      "payable": false,
      "stateMutability": "view",
      "type": "function"
    },
    {
      "constant": false,
      "inputs": [
        {
          "name": "_address",
          "type": "address"
        }
      ],
      "name": "addFactProviderToWhitelist",
      "outputs": [],
      "payable": false,
      "stateMutability": "nonpayable",
      "type": "function"
    },
    {
      "constant": false,
      "inputs": [
        {
          "name": "_address",
          "type": "address"
        }
      ],
      "name": "removeFactProviderFromWhitelist",
      "outputs": [],
      "payable": false,
      "stateMutability": "nonpayable",
      "type": "function"
    }
  ],
  "bytecode": "0x608060408190527f6f72672e6d6f6e657468612e70726f78792e6f776e6572000000000000000000905261003b3364010000000061009a810204565b604080517f6f72672e6d6f6e657468612e70726f78792e70656e64696e674f776e657200008152905190819003601e0190207fcfd0c6ea5352192d7d4c5d4e7a73c5da12c871730cb60ff57879cbe7b403bb521461009557fe5b6100be565b7f3ca57e4b51fc2e18497b219410298879868edada7e6fe5132c8feceb0a080d2255565b610aa3806100cd6000396000f3006080604052600436106100c45763ffffffff7c01000000000000000000000000000000000000000000000000000000006000350416632088815881146100c95780632b42a89a146100fe5780634e71e0c81461011a57806361a2d0761461012f5780636d4e7802146101445780636f618f9a14610165578063715018a61461030c5780638ae44a08146103215780638da5cb5b14610342578063ac0aeb1a14610373578063caa95f1b14610394578063e30c3978146103bb578063f2fde38b146103d0575b600080fd5b3480156100d557600080fd5b506100ea600160a060020a03600435166103f1565b604080519115158252519081900360200190f35b34801561010a57600080fd5b506101186004351515610447565b005b34801561012657600080fd5b506101186104a0565b34801561013b57600080fd5b506100ea61059a565b34801561015057600080fd5b50610118600160a060020a03600435166105a3565b34801561017157600080fd5b5061017d600435610608565b604051808e600160a060020a0316600160a060020a031681526020018d81526020018c600160a060020a0316600160a060020a031681526020018b81526020018a600160a060020a0316600160a060020a031681526020018960001916600019168152602001806020018860001916600019168152602001806020018760001916600019168152602001866000191660001916815260200185600281111561022157fe5b60ff16815260200184815260200183810383528a818151815260200191508051906020019080838360005b8381101561026457818101518382015260200161024c565b50505050905090810190601f1680156102915780820380516001836020036101000a031916815260200191505b5083810382528851815288516020918201918a019080838360005b838110156102c45781810151838201526020016102ac565b50505050905090810190601f1680156102f15780820380516001836020036101000a031916815260200191505b509f5050505050505050505050505050505060405180910390f35b34801561031857600080fd5b506101186107a8565b34801561032d57600080fd5b506100ea600160a060020a036004351661087f565b34801561034e57600080fd5b5061035761089d565b60408051600160a060020a039092168252519081900360200190f35b34801561037f57600080fd5b50610118600160a060020a03600435166108ac565b3480156103a057600080fd5b506103a9610914565b60408051918252519081900360200190f35b3480156103c757600080fd5b5061035761091a565b3480156103dc57600080fd5b50610118600160a060020a0360043516610924565b60075460009060ff16158061041e5750600160a060020a03821660009081526008602052604090205460ff165b80610441575061042c6109c0565b600160a060020a031682600160a060020a0316145b92915050565b61044f6109c0565b600160a060020a0316331461046357600080fd5b6007805460ff19168215159081179091556040517f6e1eb3fa845047cf9d5fd1deb1b7770b4e26163dd4d88cefb14fe7964a70059590600090a250565b6104a86109e5565b600160a060020a031633146104bc57600080fd5b6104c4610a0a565b1561053057604080517f08c379a000000000000000000000000000000000000000000000000000000000815260206004820152601d60248201527f636f6e74726163742073686f756c64206e6f7420626520706175736564000000604482015290519081900360640190fd5b6105386109e5565b600160a060020a03166105496109c0565b600160a060020a03167f8be0079c531659141344cd1fd0a4f28419497f9722a3daafe3b4186f6b6457e060405160405180910390a361058e6105896109e5565b610a2f565b6105986000610a53565b565b60075460ff1690565b6105ab6109c0565b600160a060020a031633146105bf57600080fd5b600160a060020a038116600081815260086020526040808220805460ff19169055517f5bf47f016603dfff957e6086bd9a350212686e8f1d9208b3db47c5a3107c78789190a250565b600c80548290811061061657fe5b6000918252602091829020600d90910201805460018083015460028085015460038601546004870154600588015460068901805460408051601f6000199b841615610100029b909b01909216979097049889018c90048c0281018c01909652878652600160a060020a039889169b509599938816989297919091169590949193928301828280156106e85780601f106106bd576101008083540402835291602001916106e8565b820191906000526020600020905b8154815290600101906020018083116106cb57829003601f168201915b50505050600783015460088401805460408051602060026001851615610100026000190190941693909304601f8101849004840282018401909252818152959693959394509083018282801561077f5780601f106107545761010080835404028352916020019161077f565b820191906000526020600020905b81548152906001019060200180831161076257829003601f168201915b5050506009840154600a850154600b860154600c909601549495919490935060ff90911691508d565b6107b06109c0565b600160a060020a031633146107c457600080fd5b6107cc610a0a565b1561083857604080517f08c379a000000000000000000000000000000000000000000000000000000000815260206004820152601d60248201527f636f6e74726163742073686f756c64206e6f7420626520706175736564000000604482015290519081900360640190fd5b6108406109c0565b600160a060020a03167ff8df31144d9c2f0f6b59d69b8b98abd5459d07f2742c4df920b25aae33c6482060405160405180910390a26105986000610a2f565b600160a060020a031660009081526008602052604090205460ff1690565b60006108a76109c0565b905090565b6108b46109c0565b600160a060020a031633146108c857600080fd5b600160a060020a038116600081815260086020526040808220805460ff19166001179055517fff8ac5f0e9cdc8f7ffbbc29ab1301ee649cf01cf7a6a9265a2d90587612c41759190a250565b600b5481565b60006108a76109e5565b61092c6109c0565b600160a060020a0316331461094057600080fd5b610948610a0a565b156109b457604080517f08c379a000000000000000000000000000000000000000000000000000000000815260206004820152601d60248201527f636f6e74726163742073686f756c64206e6f7420626520706175736564000000604482015290519081900360640190fd5b6109bd81610a53565b50565b7f3ca57e4b51fc2e18497b219410298879868edada7e6fe5132c8feceb0a080d225490565b7fcfd0c6ea5352192d7d4c5d4e7a73c5da12c871730cb60ff57879cbe7b403bb525490565b7f9e7945c55c116aa3404b99fe56db7af9613d3b899554a437c2616a4749a94d8a5490565b7f3ca57e4b51fc2e18497b219410298879868edada7e6fe5132c8feceb0a080d2255565b7fcfd0c6ea5352192d7d4c5d4e7a73c5da12c871730cb60ff57879cbe7b403bb52555600a165627a7a7230582097fa8835abf9e8c6aff586624b943083f5b4dc746b81653dccc5a1412759dca40029",
  "source": "pragma solidity ^0.4.24;\n\nimport \"../ownership/ClaimableProxy.sol\";\n\n// Storage contracts holds all state.\n// Do not change the order of the fields, аdd new fields to the end of the contract!\ncontract Storage is ClaimableProxy\n{\n    /***************************************************************************\n     *** STORAGE VARIABLES. DO NOT REORDER!!! ADD NEW VARIABLE TO THE END!!! ***\n     ***************************************************************************/\n\n    struct AddressValue {\n        bool initialized;\n        address value;\n    }\n\n    mapping(address => mapping(bytes32 => AddressValue)) internal addressStorage;\n\n    struct UintValue {\n        bool initialized;\n        uint value;\n    }\n\n    mapping(address => mapping(bytes32 => UintValue)) internal uintStorage;\n\n    struct IntValue {\n        bool initialized;\n        int value;\n    }\n\n    mapping(address => mapping(bytes32 => IntValue)) internal intStorage;\n\n    struct BoolValue {\n        bool initialized;\n        bool value;\n    }\n\n    mapping(address => mapping(bytes32 => BoolValue)) internal boolStorage;\n\n    struct StringValue {\n        bool initialized;\n        string value;\n    }\n\n    mapping(address => mapping(bytes32 => StringValue)) internal stringStorage;\n\n    struct BytesValue {\n        bool initialized;\n        bytes value;\n    }\n\n    mapping(address => mapping(bytes32 => BytesValue)) internal bytesStorage;\n\n    struct BlockNumberValue {\n        bool initialized;\n        uint blockNumber;\n    }\n\n    mapping(address => mapping(bytes32 => BlockNumberValue)) internal txBytesStorage;\n\n    bool private onlyFactProviderFromWhitelistAllowed;\n    mapping(address => bool) private factProviderWhitelist;\n\n    struct IPFSHashValue {\n        bool initialized;\n        string value;\n    }\n\n    mapping(address => mapping(bytes32 => IPFSHashValue)) internal ipfsHashStorage;\n\n    struct PrivateData {\n        string dataIPFSHash; // The IPFS hash of encrypted private data\n        bytes32 dataKeyHash; // The hash of symmetric key that was used to encrypt the data\n    }\n\n    struct PrivateDataValue {\n        bool initialized;\n        PrivateData value;\n    }\n\n    mapping(address => mapping(bytes32 => PrivateDataValue)) internal privateDataStorage;\n\n    enum PrivateDataExchangeState {Closed, Proposed, Accepted}\n\n    struct PrivateDataExchange {\n        address dataRequester;          // The address of the data requester\n        uint256 dataRequesterValue;     // The amount staked by the data requester\n        address passportOwner;          // The address of the passport owner at the time of the data exchange proposition\n        uint256 passportOwnerValue;     // Tha amount staked by the passport owner\n        address factProvider;           // The private data provider\n        bytes32 key;                    // the key for the private data record\n        string dataIPFSHash;            // The IPFS hash of encrypted private data\n        bytes32 dataKeyHash;            // The hash of data symmetric key that was used to encrypt the data\n        bytes encryptedExchangeKey;     // The encrypted exchange session key (only passport owner can decrypt it)\n        bytes32 exchangeKeyHash;        // The hash of exchange session key\n        bytes32 encryptedDataKey;       // The data symmetric key XORed with the exchange key\n        PrivateDataExchangeState state; // The state of private data exchange\n        uint256 stateExpired;           // The state expiration timestamp\n    }\n\n    uint public openPrivateDataExchangesCount; // the count of open private data exchanges TODO: use it in contract destruction/ownership transfer logic\n    PrivateDataExchange[] public privateDataExchanges;\n\n    /***************************************************************************\n     *** END OF SECTION OF STORAGE VARIABLES                                 ***\n     ***************************************************************************/\n\n    event WhitelistOnlyPermissionSet(bool indexed onlyWhitelist);\n    event WhitelistFactProviderAdded(address indexed factProvider);\n    event WhitelistFactProviderRemoved(address indexed factProvider);\n\n    /**\n     *  Restrict methods in such way, that they can be invoked only by allowed fact provider.\n     */\n    modifier allowedFactProvider() {\n        require(isAllowedFactProvider(msg.sender));\n        _;\n    }\n\n    /**\n     *  Returns true when the given address is an allowed fact provider.\n     */\n    function isAllowedFactProvider(address _address) public view returns (bool) {\n        return !onlyFactProviderFromWhitelistAllowed || factProviderWhitelist[_address] || _address == _getOwner();\n    }\n\n    /**\n     *  Returns true when a whitelist of fact providers is enabled.\n     */\n    function isWhitelistOnlyPermissionSet() external view returns (bool) {\n        return onlyFactProviderFromWhitelistAllowed;\n    }\n\n    /**\n     *  Enables or disables the use of a whitelist of fact providers.\n     */\n    function setWhitelistOnlyPermission(bool _onlyWhitelist) onlyOwner external {\n        onlyFactProviderFromWhitelistAllowed = _onlyWhitelist;\n        emit WhitelistOnlyPermissionSet(_onlyWhitelist);\n    }\n\n    /**\n     *  Returns true if fact provider is added to the whitelist.\n     */\n    function isFactProviderInWhitelist(address _address) external view returns (bool) {\n        return factProviderWhitelist[_address];\n    }\n\n    /**\n     *  Allows owner to add fact provider to whitelist.\n     */\n    function addFactProviderToWhitelist(address _address) onlyOwner external {\n        factProviderWhitelist[_address] = true;\n        emit WhitelistFactProviderAdded(_address);\n    }\n\n    /**\n     *  Allows owner to remove fact provider from whitelist.\n     */\n    function removeFactProviderFromWhitelist(address _address) onlyOwner external {\n        delete factProviderWhitelist[_address];\n        emit WhitelistFactProviderRemoved(_address);\n    }\n}",
  "sourcePath": "C:\\src\\monetha\\reputation-js-sdk-example\\deployer\\tmp\\contracts\\storage\\Storage.sol",
  "compiler": {
    "name": "solc",
    "version": "0.4.24+commit.e67f0147.Emscripten.clang"
  },
  "schemaVersion": "2.0.1",
  "updatedAt": "2019-10-29T13:00:35.399Z"
}