{
  "contractName": "StringStorageLogic",
  "abi": [
    {
      "constant": true,
      "inputs": [
        {
          "name": "_address",
          "type": "address"
        }
      ],
      "name": "isAllowedFactProvider",
      "outputs": [
        {
          "name": "",
          "type": "bool"
        }
      ],
      "payable": false,
      "stateMutability": "view",
      "type": "function"
    },
    {
      "constant": false,
      "inputs": [
        {
          "name": "_onlyWhitelist",
          "type": "bool"
        }
      ],
      "name": "setWhitelistOnlyPermission",
      "outputs": [],
      "payable": false,
      "stateMutability": "nonpayable",
      "type": "function"
    },
    {
      "constant": false,
      "inputs": [],
      "name": "claimOwnership",
      "outputs": [],
      "payable": false,
      "stateMutability": "nonpayable",
      "type": "function"
    },
    {
      "constant": true,
      "inputs": [],
      "name": "isWhitelistOnlyPermissionSet",
      "outputs": [
        {
          "name": "",
          "type": "bool"
        }
      ],
      "payable": false,
      "stateMutability": "view",
      "type": "function"
    },
    {
      "constant": false,
      "inputs": [
        {
          "name": "_address",
          "type": "address"
        }
      ],
      "name": "removeFactProviderFromWhitelist",
      "outputs": [],
      "payable": false,
      "stateMutability": "nonpayable",
      "type": "function"
    },
    {
      "constant": true,
      "inputs": [
        {
          "name": "",
          "type": "uint256"
        }
      ],
      "name": "privateDataExchanges",
      "outputs": [
        {
          "name": "dataRequester",
          "type": "address"
        },
        {
          "name": "dataRequesterValue",
          "type": "uint256"
        },
        {
          "name": "passportOwner",
          "type": "address"
        },
        {
          "name": "passportOwnerValue",
          "type": "uint256"
        },
        {
          "name": "factProvider",
          "type": "address"
        },
        {
          "name": "key",
          "type": "bytes32"
        },
        {
          "name": "dataIPFSHash",
          "type": "string"
        },
        {
          "name": "dataKeyHash",
          "type": "bytes32"
        },
        {
          "name": "encryptedExchangeKey",
          "type": "bytes"
        },
        {
          "name": "exchangeKeyHash",
          "type": "bytes32"
        },
        {
          "name": "encryptedDataKey",
          "type": "bytes32"
        },
        {
          "name": "state",
          "type": "uint8"
        },
        {
          "name": "stateExpired",
          "type": "uint256"
        }
      ],
      "payable": false,
      "stateMutability": "view",
      "type": "function"
    },
    {
      "constant": false,
      "inputs": [],
      "name": "renounceOwnership",
      "outputs": [],
      "payable": false,
      "stateMutability": "nonpayable",
      "type": "function"
    },
    {
      "constant": true,
      "inputs": [
        {
          "name": "_address",
          "type": "address"
        }
      ],
      "name": "isFactProviderInWhitelist",
      "outputs": [
        {
          "name": "",
          "type": "bool"
        }
      ],
      "payable": false,
      "stateMutability": "view",
      "type": "function"
    },
    {
      "constant": true,
      "inputs": [],
      "name": "owner",
      "outputs": [
        {
          "name": "",
          "type": "address"
        }
      ],
      "payable": false,
      "stateMutability": "view",
      "type": "function"
    },
    {
      "constant": false,
      "inputs": [
        {
          "name": "_address",
          "type": "address"
        }
      ],
      "name": "addFactProviderToWhitelist",
      "outputs": [],
      "payable": false,
      "stateMutability": "nonpayable",
      "type": "function"
    },
    {
      "constant": true,
      "inputs": [],
      "name": "openPrivateDataExchangesCount",
      "outputs": [
        {
          "name": "",
          "type": "uint256"
        }
      ],
      "payable": false,
      "stateMutability": "view",
      "type": "function"
    },
    {
      "constant": true,
      "inputs": [],
      "name": "pendingOwner",
      "outputs": [
        {
          "name": "",
          "type": "address"
        }
      ],
      "payable": false,
      "stateMutability": "view",
      "type": "function"
    },
    {
      "constant": false,
      "inputs": [
        {
          "name": "newOwner",
          "type": "address"
        }
      ],
      "name": "transferOwnership",
      "outputs": [],
      "payable": false,
      "stateMutability": "nonpayable",
      "type": "function"
    },
    {
      "anonymous": false,
      "inputs": [
        {
          "indexed": true,
          "name": "factProvider",
          "type": "address"
        },
        {
          "indexed": true,
          "name": "key",
          "type": "bytes32"
        }
      ],
      "name": "StringUpdated",
      "type": "event"
    },
    {
      "anonymous": false,
      "inputs": [
        {
          "indexed": true,
          "name": "factProvider",
          "type": "address"
        },
        {
          "indexed": true,
          "name": "key",
          "type": "bytes32"
        }
      ],
      "name": "StringDeleted",
      "type": "event"
    },
    {
      "anonymous": false,
      "inputs": [
        {
          "indexed": true,
          "name": "onlyWhitelist",
          "type": "bool"
        }
      ],
      "name": "WhitelistOnlyPermissionSet",
      "type": "event"
    },
    {
      "anonymous": false,
      "inputs": [
        {
          "indexed": true,
          "name": "factProvider",
          "type": "address"
        }
      ],
      "name": "WhitelistFactProviderAdded",
      "type": "event"
    },
    {
      "anonymous": false,
      "inputs": [
        {
          "indexed": true,
          "name": "factProvider",
          "type": "address"
        }
      ],
      "name": "WhitelistFactProviderRemoved",
      "type": "event"
    },
    {
      "anonymous": false,
      "inputs": [
        {
          "indexed": true,
          "name": "previousOwner",
          "type": "address"
        }
      ],
      "name": "OwnershipRenounced",
      "type": "event"
    },
    {
      "anonymous": false,
      "inputs": [
        {
          "indexed": true,
          "name": "previousOwner",
          "type": "address"
        },
        {
          "indexed": true,
          "name": "newOwner",
          "type": "address"
        }
      ],
      "name": "OwnershipTransferred",
      "type": "event"
    },
    {
      "constant": false,
      "inputs": [
        {
          "name": "_key",
          "type": "bytes32"
        },
        {
          "name": "_value",
          "type": "string"
        }
      ],
      "name": "setString",
      "outputs": [],
      "payable": false,
      "stateMutability": "nonpayable",
      "type": "function"
    },
    {
      "constant": false,
      "inputs": [
        {
          "name": "_key",
          "type": "bytes32"
        }
      ],
      "name": "deleteString",
      "outputs": [],
      "payable": false,
      "stateMutability": "nonpayable",
      "type": "function"
    },
    {
      "constant": true,
      "inputs": [
        {
          "name": "_factProvider",
          "type": "address"
        },
        {
          "name": "_key",
          "type": "bytes32"
        }
      ],
      "name": "getString",
      "outputs": [
        {
          "name": "success",
          "type": "bool"
        },
        {
          "name": "value",
          "type": "string"
        }
      ],
      "payable": false,
      "stateMutability": "view",
      "type": "function"
    }
  ],
  "bytecode": "0x608060408190527f6f72672e6d6f6e657468612e70726f78792e6f776e6572000000000000000000905261003b3364010000000061009a810204565b604080517f6f72672e6d6f6e657468612e70726f78792e70656e64696e674f776e657200008152905190819003601e0190207fcfd0c6ea5352192d7d4c5d4e7a73c5da12c871730cb60ff57879cbe7b403bb521461009557fe5b6100be565b7f3ca57e4b51fc2e18497b219410298879868edada7e6fe5132c8feceb0a080d2255565b610ebb806100cd6000396000f3006080604052600436106100e55763ffffffff7c01000000000000000000000000000000000000000000000000000000006000350416632088815881146100ea5780632b42a89a1461011f5780634e71e0c81461013b57806361a2d076146101505780636d4e7802146101655780636e899550146101865780636f618f9a146101aa578063715018a6146103515780638ae44a08146103665780638da5cb5b14610387578063ac0aeb1a146103b8578063caa95f1b146103d9578063e30c397814610400578063e318de7314610415578063f2fde38b146104bc578063f6bb3cc4146104dd575b600080fd5b3480156100f657600080fd5b5061010b600160a060020a03600435166104f5565b604080519115158252519081900360200190f35b34801561012b57600080fd5b50610139600435151561054b565b005b34801561014757600080fd5b506101396105a4565b34801561015c57600080fd5b5061010b61069e565b34801561017157600080fd5b50610139600160a060020a03600435166106a8565b34801561019257600080fd5b5061013960048035906024803590810191013561070d565b3480156101b657600080fd5b506101c260043561074c565b604051808e600160a060020a0316600160a060020a031681526020018d81526020018c600160a060020a0316600160a060020a031681526020018b81526020018a600160a060020a0316600160a060020a031681526020018960001916600019168152602001806020018860001916600019168152602001806020018760001916600019168152602001866000191660001916815260200185600281111561026657fe5b60ff16815260200184815260200183810383528a818151815260200191508051906020019080838360005b838110156102a9578181015183820152602001610291565b50505050905090810190601f1680156102d65780820380516001836020036101000a031916815260200191505b5083810382528851815288516020918201918a019080838360005b838110156103095781810151838201526020016102f1565b50505050905090810190601f1680156103365780820380516001836020036101000a031916815260200191505b509f5050505050505050505050505050505060405180910390f35b34801561035d57600080fd5b506101396108ec565b34801561037257600080fd5b5061010b600160a060020a03600435166109c3565b34801561039357600080fd5b5061039c6109e1565b60408051600160a060020a039092168252519081900360200190f35b3480156103c457600080fd5b50610139600160a060020a03600435166109f0565b3480156103e557600080fd5b506103ee610a58565b60408051918252519081900360200190f35b34801561040c57600080fd5b5061039c610a5e565b34801561042157600080fd5b50610439600160a060020a0360043516602435610a68565b604051808315151515815260200180602001828103825283818151815260200191508051906020019080838360005b83811015610480578181015183820152602001610468565b50505050905090810190601f1680156104ad5780820380516001836020036101000a031916815260200191505b50935050505060405180910390f35b3480156104c857600080fd5b50610139600160a060020a0360043516610a81565b3480156104e957600080fd5b50610139600435610b1d565b60075460009060ff1615806105225750600160a060020a03821660009081526008602052604090205460ff165b806105455750610530610b26565b600160a060020a031682600160a060020a0316145b92915050565b610553610b26565b600160a060020a0316331461056757600080fd5b6007805460ff19168215159081179091556040517f6e1eb3fa845047cf9d5fd1deb1b7770b4e26163dd4d88cefb14fe7964a70059590600090a250565b6105ac610b4b565b600160a060020a031633146105c057600080fd5b6105c8610b70565b1561063457604080517f08c379a000000000000000000000000000000000000000000000000000000000815260206004820152601d60248201527f636f6e74726163742073686f756c64206e6f7420626520706175736564000000604482015290519081900360640190fd5b61063c610b4b565b600160a060020a031661064d610b26565b600160a060020a03167f8be0079c531659141344cd1fd0a4f28419497f9722a3daafe3b4186f6b6457e060405160405180910390a361069261068d610b4b565b610b95565b61069c6000610bb9565b565b60075460ff165b90565b6106b0610b26565b600160a060020a031633146106c457600080fd5b600160a060020a038116600081815260086020526040808220805460ff19169055517f5bf47f016603dfff957e6086bd9a350212686e8f1d9208b3db47c5a3107c78789190a250565b6107478383838080601f01602080910402602001604051908101604052809392919081815260200183838082843750610bdd945050505050565b505050565b600c80548290811061075a57fe5b6000918252602091829020600d90910201805460018083015460028085015460038601546004870154600588015460068901805460408051601f6000199b841615610100029b909b01909216979097049889018c90048c0281018c01909652878652600160a060020a039889169b5095999388169892979190911695909491939283018282801561082c5780601f106108015761010080835404028352916020019161082c565b820191906000526020600020905b81548152906001019060200180831161080f57829003601f168201915b50505050600783015460088401805460408051602060026001851615610100026000190190941693909304601f810184900484028201840190925281815295969395939450908301828280156108c35780601f10610898576101008083540402835291602001916108c3565b820191906000526020600020905b8154815290600101906020018083116108a657829003601f168201915b5050506009840154600a850154600b860154600c909601549495919490935060ff90911691508d565b6108f4610b26565b600160a060020a0316331461090857600080fd5b610910610b70565b1561097c57604080517f08c379a000000000000000000000000000000000000000000000000000000000815260206004820152601d60248201527f636f6e74726163742073686f756c64206e6f7420626520706175736564000000604482015290519081900360640190fd5b610984610b26565b600160a060020a03167ff8df31144d9c2f0f6b59d69b8b98abd5459d07f2742c4df920b25aae33c6482060405160405180910390a261069c6000610b95565b600160a060020a031660009081526008602052604090205460ff1690565b60006109eb610b26565b905090565b6109f8610b26565b600160a060020a03163314610a0c57600080fd5b600160a060020a038116600081815260086020526040808220805460ff19166001179055517fff8ac5f0e9cdc8f7ffbbc29ab1301ee649cf01cf7a6a9265a2d90587612c41759190a250565b600b5481565b60006109eb610b4b565b60006060610a768484610c77565b915091509250929050565b610a89610b26565b600160a060020a03163314610a9d57600080fd5b610aa5610b70565b15610b1157604080517f08c379a000000000000000000000000000000000000000000000000000000000815260206004820152601d60248201527f636f6e74726163742073686f756c64206e6f7420626520706175736564000000604482015290519081900360640190fd5b610b1a81610bb9565b50565b610b1a81610d41565b7f3ca57e4b51fc2e18497b219410298879868edada7e6fe5132c8feceb0a080d225490565b7fcfd0c6ea5352192d7d4c5d4e7a73c5da12c871730cb60ff57879cbe7b403bb525490565b7f9e7945c55c116aa3404b99fe56db7af9613d3b899554a437c2616a4749a94d8a5490565b7f3ca57e4b51fc2e18497b219410298879868edada7e6fe5132c8feceb0a080d2255565b7fcfd0c6ea5352192d7d4c5d4e7a73c5da12c871730cb60ff57879cbe7b403bb5255565b610be6336104f5565b1515610bf157600080fd5b60408051808201825260018082526020808301858152336000908152600483528581208882528352949094208351815460ff191690151517815593518051939493610c43938501929190910190610db7565b505060405183915033907f43e6b7e3323b4598401023341c086c07c3ff5577f594b5aab9c065f2c3c9d59090600090a35050565b600160a060020a038216600090815260046020908152604080832084845282528083208054600180830180548551601f600294831615610100026000190190921693909304908101879004870283018701909552848252606095939460ff9093169390928391830182828015610d2e5780601f10610d0357610100808354040283529160200191610d2e565b820191906000526020600020905b815481529060010190602001808311610d1157829003601f168201915b5050505050905092509250509250929050565b610d4a336104f5565b1515610d5557600080fd5b3360009081526004602090815260408083208484529091528120805460ff1916815590610d856001830182610e35565b5050604051819033907f491a0e0281af9fc88ff024cffc24db22eddd4f826cb30d84936592967dc9237c90600090a350565b828054600181600116156101000203166002900490600052602060002090601f016020900481019282601f10610df857805160ff1916838001178555610e25565b82800160010185558215610e25579182015b82811115610e25578251825591602001919060010190610e0a565b50610e31929150610e75565b5090565b50805460018160011615610100020316600290046000825580601f10610e5b5750610b1a565b601f016020900490600052602060002090810190610b1a91905b6106a591905b80821115610e315760008155600101610e7b5600a165627a7a7230582026dde5eebae981a5449a044c87e3a779a9ec74110ead3ced6cdcd6837c859ded0029",
  "source": "pragma solidity ^0.4.24;\n\nimport \"./Storage.sol\";\n\ncontract StringStorageLogic is Storage {\n    event StringUpdated(address indexed factProvider, bytes32 indexed key);\n    event StringDeleted(address indexed factProvider, bytes32 indexed key);\n\n    /// @param _key The key for the record\n    /// @param _value The value for the record\n    function setString(bytes32 _key, string _value) external {\n        _setString(_key, _value);\n    }\n\n    /// @param _key The key for the record\n    function deleteString(bytes32 _key) external {\n        _deleteString(_key);\n    }\n\n    /// @param _factProvider The fact provider\n    /// @param _key The key for the record\n    function getString(address _factProvider, bytes32 _key) external view returns (bool success, string value) {\n        return _getString(_factProvider, _key);\n    }\n\n    function _setString(bytes32 _key, string _value) allowedFactProvider internal {\n        stringStorage[msg.sender][_key] = StringValue({\n            initialized : true,\n            value : _value\n            });\n        emit StringUpdated(msg.sender, _key);\n    }\n\n    function _deleteString(bytes32 _key) allowedFactProvider internal {\n        delete stringStorage[msg.sender][_key];\n        emit StringDeleted(msg.sender, _key);\n    }\n\n    function _getString(address _factProvider, bytes32 _key) internal view returns (bool success, string value) {\n        StringValue storage initValue = stringStorage[_factProvider][_key];\n        return (initValue.initialized, initValue.value);\n    }\n}",
  "sourcePath": "C:\\src\\monetha\\reputation-js-sdk-example\\deployer\\tmp\\contracts\\storage\\StringStorageLogic.sol",
  "compiler": {
    "name": "solc",
    "version": "0.4.24+commit.e67f0147.Emscripten.clang"
  },
  "schemaVersion": "2.0.1",
  "updatedAt": "2019-10-29T13:00:35.401Z"
}