{
  "contractName": "TxDataStorageLogic",
  "abi": [
    {
      "constant": true,
      "inputs": [
        {
          "name": "_address",
          "type": "address"
        }
      ],
      "name": "isAllowedFactProvider",
      "outputs": [
        {
          "name": "",
          "type": "bool"
        }
      ],
      "payable": false,
      "stateMutability": "view",
      "type": "function"
    },
    {
      "constant": false,
      "inputs": [
        {
          "name": "_onlyWhitelist",
          "type": "bool"
        }
      ],
      "name": "setWhitelistOnlyPermission",
      "outputs": [],
      "payable": false,
      "stateMutability": "nonpayable",
      "type": "function"
    },
    {
      "constant": false,
      "inputs": [],
      "name": "claimOwnership",
      "outputs": [],
      "payable": false,
      "stateMutability": "nonpayable",
      "type": "function"
    },
    {
      "constant": true,
      "inputs": [],
      "name": "isWhitelistOnlyPermissionSet",
      "outputs": [
        {
          "name": "",
          "type": "bool"
        }
      ],
      "payable": false,
      "stateMutability": "view",
      "type": "function"
    },
    {
      "constant": false,
      "inputs": [
        {
          "name": "_address",
          "type": "address"
        }
      ],
      "name": "removeFactProviderFromWhitelist",
      "outputs": [],
      "payable": false,
      "stateMutability": "nonpayable",
      "type": "function"
    },
    {
      "constant": true,
      "inputs": [
        {
          "name": "",
          "type": "uint256"
        }
      ],
      "name": "privateDataExchanges",
      "outputs": [
        {
          "name": "dataRequester",
          "type": "address"
        },
        {
          "name": "dataRequesterValue",
          "type": "uint256"
        },
        {
          "name": "passportOwner",
          "type": "address"
        },
        {
          "name": "passportOwnerValue",
          "type": "uint256"
        },
        {
          "name": "factProvider",
          "type": "address"
        },
        {
          "name": "key",
          "type": "bytes32"
        },
        {
          "name": "dataIPFSHash",
          "type": "string"
        },
        {
          "name": "dataKeyHash",
          "type": "bytes32"
        },
        {
          "name": "encryptedExchangeKey",
          "type": "bytes"
        },
        {
          "name": "exchangeKeyHash",
          "type": "bytes32"
        },
        {
          "name": "encryptedDataKey",
          "type": "bytes32"
        },
        {
          "name": "state",
          "type": "uint8"
        },
        {
          "name": "stateExpired",
          "type": "uint256"
        }
      ],
      "payable": false,
      "stateMutability": "view",
      "type": "function"
    },
    {
      "constant": false,
      "inputs": [],
      "name": "renounceOwnership",
      "outputs": [],
      "payable": false,
      "stateMutability": "nonpayable",
      "type": "function"
    },
    {
      "constant": true,
      "inputs": [
        {
          "name": "_address",
          "type": "address"
        }
      ],
      "name": "isFactProviderInWhitelist",
      "outputs": [
        {
          "name": "",
          "type": "bool"
        }
      ],
      "payable": false,
      "stateMutability": "view",
      "type": "function"
    },
    {
      "constant": true,
      "inputs": [],
      "name": "owner",
      "outputs": [
        {
          "name": "",
          "type": "address"
        }
      ],
      "payable": false,
      "stateMutability": "view",
      "type": "function"
    },
    {
      "constant": false,
      "inputs": [
        {
          "name": "_address",
          "type": "address"
        }
      ],
      "name": "addFactProviderToWhitelist",
      "outputs": [],
      "payable": false,
      "stateMutability": "nonpayable",
      "type": "function"
    },
    {
      "constant": true,
      "inputs": [],
      "name": "openPrivateDataExchangesCount",
      "outputs": [
        {
          "name": "",
          "type": "uint256"
        }
      ],
      "payable": false,
      "stateMutability": "view",
      "type": "function"
    },
    {
      "constant": true,
      "inputs": [],
      "name": "pendingOwner",
      "outputs": [
        {
          "name": "",
          "type": "address"
        }
      ],
      "payable": false,
      "stateMutability": "view",
      "type": "function"
    },
    {
      "constant": false,
      "inputs": [
        {
          "name": "newOwner",
          "type": "address"
        }
      ],
      "name": "transferOwnership",
      "outputs": [],
      "payable": false,
      "stateMutability": "nonpayable",
      "type": "function"
    },
    {
      "anonymous": false,
      "inputs": [
        {
          "indexed": true,
          "name": "factProvider",
          "type": "address"
        },
        {
          "indexed": true,
          "name": "key",
          "type": "bytes32"
        }
      ],
      "name": "TxDataUpdated",
      "type": "event"
    },
    {
      "anonymous": false,
      "inputs": [
        {
          "indexed": true,
          "name": "factProvider",
          "type": "address"
        },
        {
          "indexed": true,
          "name": "key",
          "type": "bytes32"
        }
      ],
      "name": "TxDataDeleted",
      "type": "event"
    },
    {
      "anonymous": false,
      "inputs": [
        {
          "indexed": true,
          "name": "onlyWhitelist",
          "type": "bool"
        }
      ],
      "name": "WhitelistOnlyPermissionSet",
      "type": "event"
    },
    {
      "anonymous": false,
      "inputs": [
        {
          "indexed": true,
          "name": "factProvider",
          "type": "address"
        }
      ],
      "name": "WhitelistFactProviderAdded",
      "type": "event"
    },
    {
      "anonymous": false,
      "inputs": [
        {
          "indexed": true,
          "name": "factProvider",
          "type": "address"
        }
      ],
      "name": "WhitelistFactProviderRemoved",
      "type": "event"
    },
    {
      "anonymous": false,
      "inputs": [
        {
          "indexed": true,
          "name": "previousOwner",
          "type": "address"
        }
      ],
      "name": "OwnershipRenounced",
      "type": "event"
    },
    {
      "anonymous": false,
      "inputs": [
        {
          "indexed": true,
          "name": "previousOwner",
          "type": "address"
        },
        {
          "indexed": true,
          "name": "newOwner",
          "type": "address"
        }
      ],
      "name": "OwnershipTransferred",
      "type": "event"
    },
    {
      "constant": false,
      "inputs": [
        {
          "name": "_key",
          "type": "bytes32"
        },
        {
          "name": "_data",
          "type": "bytes"
        }
      ],
      "name": "setTxDataBlockNumber",
      "outputs": [],
      "payable": false,
      "stateMutability": "nonpayable",
      "type": "function"
    },
    {
      "constant": false,
      "inputs": [
        {
          "name": "_key",
          "type": "bytes32"
        }
      ],
      "name": "deleteTxDataBlockNumber",
      "outputs": [],
      "payable": false,
      "stateMutability": "nonpayable",
      "type": "function"
    },
    {
      "constant": true,
      "inputs": [
        {
          "name": "_factProvider",
          "type": "address"
        },
        {
          "name": "_key",
          "type": "bytes32"
        }
      ],
      "name": "getTxDataBlockNumber",
      "outputs": [
        {
          "name": "success",
          "type": "bool"
        },
        {
          "name": "blockNumber",
          "type": "uint256"
        }
      ],
      "payable": false,
      "stateMutability": "view",
      "type": "function"
    }
  ],
  "bytecode": "0x608060408190527f6f72672e6d6f6e657468612e70726f78792e6f776e6572000000000000000000905261003b3364010000000061009a810204565b604080517f6f72672e6d6f6e657468612e70726f78792e70656e64696e674f776e657200008152905190819003601e0190207fcfd0c6ea5352192d7d4c5d4e7a73c5da12c871730cb60ff57879cbe7b403bb521461009557fe5b6100be565b7f3ca57e4b51fc2e18497b219410298879868edada7e6fe5132c8feceb0a080d2255565b610c77806100cd6000396000f3006080604052600436106100e55763ffffffff7c0100000000000000000000000000000000000000000000000000000000600035041663174a627781146100ea57806320888158146101295780632b42a89a1461015e5780634e71e0c81461017a5780635b2a372d1461018f57806361a2d076146101b35780636d4e7802146101c85780636f618f9a146101e9578063715018a6146103905780638ae44a08146103a55780638da5cb5b146103c6578063a2b6cbe1146103f7578063ac0aeb1a1461040f578063caa95f1b14610430578063e30c397814610457578063f2fde38b1461046c575b600080fd5b3480156100f657600080fd5b5061010e600160a060020a036004351660243561048d565b60408051921515835260208301919091528051918290030190f35b34801561013557600080fd5b5061014a600160a060020a03600435166104a5565b604080519115158252519081900360200190f35b34801561016a57600080fd5b5061017860043515156104fb565b005b34801561018657600080fd5b50610178610554565b34801561019b57600080fd5b5061017860048035906024803590810191013561064e565b3480156101bf57600080fd5b5061014a6106d3565b3480156101d457600080fd5b50610178600160a060020a03600435166106dc565b3480156101f557600080fd5b50610201600435610741565b604051808e600160a060020a0316600160a060020a031681526020018d81526020018c600160a060020a0316600160a060020a031681526020018b81526020018a600160a060020a0316600160a060020a03168152602001896000191660001916815260200180602001886000191660001916815260200180602001876000191660001916815260200186600019166000191681526020018560028111156102a557fe5b60ff16815260200184815260200183810383528a818151815260200191508051906020019080838360005b838110156102e85781810151838201526020016102d0565b50505050905090810190601f1680156103155780820380516001836020036101000a031916815260200191505b5083810382528851815288516020918201918a019080838360005b83811015610348578181015183820152602001610330565b50505050905090810190601f1680156103755780820380516001836020036101000a031916815260200191505b509f5050505050505050505050505050505060405180910390f35b34801561039c57600080fd5b506101786108e1565b3480156103b157600080fd5b5061014a600160a060020a03600435166109b8565b3480156103d257600080fd5b506103db6109d6565b60408051600160a060020a039092168252519081900360200190f35b34801561040357600080fd5b506101786004356109e5565b34801561041b57600080fd5b50610178600160a060020a0360043516610a4c565b34801561043c57600080fd5b50610445610ab4565b60408051918252519081900360200190f35b34801561046357600080fd5b506103db610aba565b34801561047857600080fd5b50610178600160a060020a0360043516610ac4565b60008061049a8484610b60565b915091509250929050565b60075460009060ff1615806104d25750600160a060020a03821660009081526008602052604090205460ff165b806104f557506104e0610b94565b600160a060020a031682600160a060020a0316145b92915050565b610503610b94565b600160a060020a0316331461051757600080fd5b6007805460ff19168215159081179091556040517f6e1eb3fa845047cf9d5fd1deb1b7770b4e26163dd4d88cefb14fe7964a70059590600090a250565b61055c610bb9565b600160a060020a0316331461057057600080fd5b610578610bde565b156105e457604080517f08c379a000000000000000000000000000000000000000000000000000000000815260206004820152601d60248201527f636f6e74726163742073686f756c64206e6f7420626520706175736564000000604482015290519081900360640190fd5b6105ec610bb9565b600160a060020a03166105fd610b94565b600160a060020a03167f8be0079c531659141344cd1fd0a4f28419497f9722a3daafe3b4186f6b6457e060405160405180910390a361064261063d610bb9565b610c03565b61064c6000610c27565b565b610657336104a5565b151561066257600080fd5b6040805180820182526001808252436020808401918252336000818152600683528681208a82529092528582209451855460ff191690151517855591519390920192909255915185927fcbde9cd310365ff3de3ad9cb44ed688d8880c7b1d15df733a73880fb84d032de91a3505050565b60075460ff1690565b6106e4610b94565b600160a060020a031633146106f857600080fd5b600160a060020a038116600081815260086020526040808220805460ff19169055517f5bf47f016603dfff957e6086bd9a350212686e8f1d9208b3db47c5a3107c78789190a250565b600c80548290811061074f57fe5b6000918252602091829020600d90910201805460018083015460028085015460038601546004870154600588015460068901805460408051601f6000199b841615610100029b909b01909216979097049889018c90048c0281018c01909652878652600160a060020a039889169b509599938816989297919091169590949193928301828280156108215780601f106107f657610100808354040283529160200191610821565b820191906000526020600020905b81548152906001019060200180831161080457829003601f168201915b50505050600783015460088401805460408051602060026001851615610100026000190190941693909304601f810184900484028201840190925281815295969395939450908301828280156108b85780601f1061088d576101008083540402835291602001916108b8565b820191906000526020600020905b81548152906001019060200180831161089b57829003601f168201915b5050506009840154600a850154600b860154600c909601549495919490935060ff90911691508d565b6108e9610b94565b600160a060020a031633146108fd57600080fd5b610905610bde565b1561097157604080517f08c379a000000000000000000000000000000000000000000000000000000000815260206004820152601d60248201527f636f6e74726163742073686f756c64206e6f7420626520706175736564000000604482015290519081900360640190fd5b610979610b94565b600160a060020a03167ff8df31144d9c2f0f6b59d69b8b98abd5459d07f2742c4df920b25aae33c6482060405160405180910390a261064c6000610c03565b600160a060020a031660009081526008602052604090205460ff1690565b60006109e0610b94565b905090565b6109ee336104a5565b15156109f957600080fd5b336000818152600660209081526040808320858452909152808220805460ff19168155600101829055518392917f9b9532c8ba5879554dee7c3e9374bd26dbfb2f79cf7f247bcf90648fc81fc16491a350565b610a54610b94565b600160a060020a03163314610a6857600080fd5b600160a060020a038116600081815260086020526040808220805460ff19166001179055517fff8ac5f0e9cdc8f7ffbbc29ab1301ee649cf01cf7a6a9265a2d90587612c41759190a250565b600b5481565b60006109e0610bb9565b610acc610b94565b600160a060020a03163314610ae057600080fd5b610ae8610bde565b15610b5457604080517f08c379a000000000000000000000000000000000000000000000000000000000815260206004820152601d60248201527f636f6e74726163742073686f756c64206e6f7420626520706175736564000000604482015290519081900360640190fd5b610b5d81610c27565b50565b600160a060020a0391909116600090815260066020908152604080832093835292905220805460019091015460ff90911691565b7f3ca57e4b51fc2e18497b219410298879868edada7e6fe5132c8feceb0a080d225490565b7fcfd0c6ea5352192d7d4c5d4e7a73c5da12c871730cb60ff57879cbe7b403bb525490565b7f9e7945c55c116aa3404b99fe56db7af9613d3b899554a437c2616a4749a94d8a5490565b7f3ca57e4b51fc2e18497b219410298879868edada7e6fe5132c8feceb0a080d2255565b7fcfd0c6ea5352192d7d4c5d4e7a73c5da12c871730cb60ff57879cbe7b403bb52555600a165627a7a72305820ff00e5d15cc5e4ec1ea7ad31f27c6f92d12ed684c26210b39e80ab56851933c90029",
  "source": "pragma solidity ^0.4.24;\n\nimport \"./Storage.sol\";\n\n/**\n * @title TxDataStorage\n * @dev This contract saves only the block number for the input data. The input data is not stored into\n * Ethereum storage, but it can be decoded from the transaction input data later.\n */\ncontract TxDataStorageLogic is Storage {\n    event TxDataUpdated(address indexed factProvider, bytes32 indexed key);\n    event TxDataDeleted(address indexed factProvider, bytes32 indexed key);\n\n    /// @param _key The key for the record\n    /// @param _data The data for the record. Ignore \"unused function parameter\" warning, it's not commented out so that\n    ///              it would remain in the ABI file.\n    function setTxDataBlockNumber(bytes32 _key, bytes _data) allowedFactProvider external {\n        _data;\n        txBytesStorage[msg.sender][_key] = BlockNumberValue({\n            initialized : true,\n            blockNumber : block.number\n            });\n        emit TxDataUpdated(msg.sender, _key);\n    }\n\n    /// @param _key The key for the record\n    function deleteTxDataBlockNumber(bytes32 _key) allowedFactProvider external {\n        delete txBytesStorage[msg.sender][_key];\n        emit TxDataDeleted(msg.sender, _key);\n    }\n\n    /// @param _factProvider The fact provider\n    /// @param _key The key for the record\n    function getTxDataBlockNumber(address _factProvider, bytes32 _key) external view returns (bool success, uint blockNumber) {\n        return _getTxDataBlockNumber(_factProvider, _key);\n    }\n\n    function _getTxDataBlockNumber(address _factProvider, bytes32 _key) private view returns (bool success, uint blockNumber) {\n        BlockNumberValue storage initValue = txBytesStorage[_factProvider][_key];\n        return (initValue.initialized, initValue.blockNumber);\n    }\n}",
  "sourcePath": "C:\\src\\monetha\\reputation-js-sdk-example\\deployer\\tmp\\contracts\\storage\\TxDataStorageLogic.sol",
  "compiler": {
    "name": "solc",
    "version": "0.4.24+commit.e67f0147.Emscripten.clang"
  },
  "schemaVersion": "2.0.1",
  "updatedAt": "2019-10-29T13:00:35.402Z"
}